:100000000C94BA120C94EB120C94EB120C94EB12AD
:100010000C94EB120C94EB120C94EB120C94EB126C
:100020000C94EB120C94EB120C94EB120C94EB125C
:100030000C94EB120C94A0D30C94EB120C94EB12D6
:100040000C94EB120C94EF800C94EB120C94EB12CA
:100050000C94EB120C94EB120C94A3930C9448CDDB
:100060000C94EB120C944D250C94EB120C94EB12A7
:100070000C94EB120C94EB120C94EB120C94EB120C
:100080000C94EB120C94EB120C94EB120C94EB12FC
:100090000C94EB120C94EB120C94EB120C9417CC06
:1000A0000C94EB120C94EB120C94EB120C94EB12DC
:1000B0000C94EB120C94EB120C94EB120C94EB12CC
:1000C0000C94EB120C94EB120C94EB120C94EB12BC
:1000D0000C94EB120C94EB120C94EB120C94EB12AC
:1000E0000C94EB120D941D943C944C94679477946B
:1000F000929497949A949F94A294A794B1947CCE4E
:1001000081CE86CE90CE9ACE13CFA4CEACCEB4CE36
:10011000BECEC8CED2CEE1CEEBCE13CFF5CEFFCE43
:1001200009CF35CF38CF27CF2BCF31CF6FCF3CCFB3
:1001300040CF46CF4ACF4ECF54CF58CF5CCF6FCFB2
:1001400062CF66CF6ACF084AD73B3BCE016E84BCF4
:10015000BFFDC12F3D6C74319ABD56833DDA3D0021
:10016000C77F11BED9E4BB4C3E916BAAAABE00006A
:1001700000803F05A84CCDB2D44EB93836A9020C48
:1001800050B9918688083CA6AAAA2ABE0000008021
:100190003F000C943BA30C94D2580C94439B0C94BA
:1001A0004DCB0C9465A60C94D6580C94B1940C9439
:1001B0005BCB0C9440CF0C9463A90C94FEB40C94CC
:1001C000CBAF0C9467940C944C940C9458CF0C9433
:1001D0002AAA0C946ACF0C945CCF0C943EB60C9473
:1001E000CBA20C94ABCB0C94F7A40C9446CF0C94FC
:1001F00038CF0C94AB6F0C94ACCE0C941D940C9433
:1002000049C60C9423C20C9422A70C946CB80C948D
:100210009F940C94EACB0C9492940C9470A20C943E
:1002200027CF0C94FFAA0C94D2CE0C94D7B10C9487
:10023000A8A50C9413CF0C944ECF0C94F7AA0C9451
:100240006FCF0C947ECB0C949ACE0C94EBCE0C9486
:10025000F5CE0C9431CF0C94907B0C9435CF0C944C
:10026000FFCE0C947EB70C947CCE0C948FBE0C9475
:100270003C940C9489BD0C94A4A80C94C8CE0C9406
:1002800086CE0C9497940C940D940C9409CF0C94F6
:1002900066CF0C949A940C947F990C9407AB0C94B1
:1002A0002BCF0C94B9B90C940CA20C947DCB0C946C
:1002B0006ECB0C9462CF0C94B4CE0C9461A90C94C8
:1002C00005B30C943CCF0C94E1CE0C947B520C946F
:1002D000EEAC0C9471BA0C9481CE0C9401590C9430
:1002E00053CB0C94C7B90C944ACF0C9483BC0C9498
:1002F000E7A70C9477940C94A4CE0C94D3C70C94D9
:1003000018D00C94BECE0C94A7940C9497990C948E
:10031000A2940C9490CE0C94ABB90C9454CF4D385D
:100320003420582059205A20450043616E6E6F7466
:1003300020656E746572207375626469723A20007C
:100340004D3234004D3233202573006175746F25B2
:10035000692E67006572726F722077726974696EB8
:100360006720746F2066696C65004E6F742053447B
:10037000207072696E74696E6700534420707269F0
:100380006E74696E672062797465200044656C65DF
:1003900074696F6E206661696C65642C2046696CB7
:1003A000653A200046696C652064656C6574656417
:1003B0003A006F70656E206661696C65642C20463A
:1003C000696C653A200057726974696E6720746FB2
:1003D0002066696C653A20006F70656E2066616901
:1003E0006C65642C2046696C653A20006F70656E00
:1003F000206661696C65642C2046696C653A200052
:1004000046696C652073656C656374656400205390
:10041000697A653A200046696C65206F70656E6583
:10042000643A20006F70656E206661696C65642CAB
:100430002046696C653A20004E6F772066726573BE
:10044000682066696C653A20004E6F7720646F699A
:100450006E672066696C653A20002220706F730019
:100460002220706172656E743A2200535542524FD9
:100470005554494E452043414C4C20746172676588
:10048000743A2200747279696E6720746F20636118
:100490006C6C207375622D67636F64652066696C90
:1004A0006573207769746820746F6F206D616E7951
:1004B000206C6576656C732E204D4158206C6576F6
:1004C000656C2069733A0053442063617264206F45
:1004D0006B006F70656E526F6F74206661696C653A
:1004E0006400766F6C756D652E696E697420666147
:1004F000696C656400534420696E697420666169A3
:100500006C0046696C616D656E7420736574746906
:100510006E67733A2044697361626C6564002020E1
:100520004D32303020543120440020204D323030C4
:1005300020440046696C616D656E74207365747447
:10054000696E67733A002043002044002049002070
:10055000204D3330312050002043002044002049FA
:100560000020500020204D333031204500504944B8
:100570002073657474696E67733A002046002042E8
:100580000020204D313435204D31204800204600D8
:1005900020420020204D313435204D302048004D80
:1005A0006174657269616C20686561747570207032
:1005B0006172616D65746572733A00205A0020594A
:1005C0000020204D3432312058002059002058009E
:1005D00020204D3432302053004D65736820626511
:1005E00064206C6576656C696E673A00205A00205D
:1005F000590020204D323036205800486F6D65205C
:100600006F666673657420286D6D293A0020450079
:10061000205A0020580020420020540020204D3253
:100620003035205300416476616E636564207661E5
:10063000726961626C65733A20533D4D696E206644
:100640006565647261746520286D6D2F73292C2097
:10065000543D4D696E2074726176656C20666565E7
:10066000647261746520286D6D2F73292C20423DC2
:100670006D696E696D756D207365676D656E74204B
:1006800074696D6520286D73292C20583D6D617843
:10069000696D756D205859206A65726B20286D6DE3
:1006A0002F73292C20205A3D6D6178696D756D205E
:1006B0005A206A65726B20286D6D2F73292C2020BB
:1006C000453D6D6178696D756D2045206A65726B79
:1006D00020286D6D2F732900205400205200202007
:1006E0004D323034205000416363656C6572617433
:1006F000696F6E733A20503D7072696E74696E67EF
:100700002C20523D7265747261637420616E6420A6
:10071000543D74726176656C00204500205A0020BB
:10072000590020204D3230312058004D6178696DDC
:10073000756D20416363656C65726174696F6E20CD
:10074000286D6D2F7332293A00204500205A002071
:10075000590020204D3230332058004D6178696DAA
:10076000756D2066656564726174657320286D6DB2
:100770002F73293A00204500205A002059002020DC
:100780004D393220580053746570732070657220A3
:10079000756E69743A0048617264636F64656420C1
:1007A00044656661756C742053657474696E677313
:1007B000204C6F616465640053544F505045442E83
:1007C00020005072696E7465722073746F7070656A
:1007D000642064756520746F206572726F72732E69
:1007E0002046697820746865206572726F72206196
:1007F0006E6420757365204D39393920746F20720D
:100800006573746172742E202854656D7065726111
:10081000747572652069732072657365742E205338
:1008200065742069742061667465722072657374E2
:10083000617274696E6729004B494C4C45442E2007
:10084000005072696E7465722068616C7465642E04
:10085000206B696C6C28292063616C6C65642100D5
:1008600020746F6F206C6F6E67206578747275737B
:10087000696F6E2070726576656E746564002063C2
:100880006F6C6420657874727573696F6E20707216
:100890006576656E746564006F6B00526573656E96
:1008A000643A20004D3330302053363539205032F1
:1008B00030300A4D33303020533639382050323002
:1008C00030004F6666736574206170706C69656492
:1008D0002E004D3330302053343020503230300031
:1008E0004572723A20546F6F206661722100546F16
:1008F0006F206661722066726F6D20726566657228
:10090000656E636520706F696E74004D6573682055
:10091000585920696E646578206973206F7574205A
:100920006F6620626F756E6473004D3432312072D1
:10093000657175697265732058595A2070617261CA
:100940006D657465727300486F74656E64206F66C0
:1009500066736574733A0053657474696E672054E6
:10096000726176656C20416363656C657261746960
:100970006F6E3A200053657474696E672052657417
:100980007261637420416363656C65726174696F41
:100990006E3A200053657474696E67205072696EF8
:1009A0007420416363656C65726174696F6E3A208F
:1009B0000053657474696E67205072696E742061AB
:1009C0006E642054726176656C20416363656C656A
:1009D000726174696F6E3A20004D31343520533C9A
:1009E000696E6465783E206F7574206F6620726151
:1009F0006E67652028302D3129007A5F6D696E3A67
:100A00002000795F6D696E3A2000785F6D696E3AFB
:100A10002000205A3A0020593A0020436F756E7426
:100A200020583A200020453A00205A3A0020593AEE
:100A300000583A004649524D574152455F4E414D8C
:100A4000453A4D61726C696E2056313B205370728D
:100A5000696E7465722F6772626C206D6173687560
:100A60007020666F722067656E36204649524D577A
:100A70004152455F55524C3A68747470733A2F2F47
:100A80006769746875622E636F6D2F4D61726C6952
:100A90006E4669726D776172652F4D61726C696E19
:100AA0002050524F544F434F4C5F56455253494F7D
:100AB0004E3A312E30204D414348494E455F5459FE
:100AC00050453A3344205072696E7465722045581F
:100AD0005452554445525F434F554E543A32205577
:100AE0005549443A30303030303030302D303030AD
:100AF000302D303030302D303030302D30303030FF
:100B000030303030303030300A0033442050726999
:100B10006E746572204F66662E00334420507269F1
:100B20006E7465722072656164792E00426564207E
:100B3000646F6E652E0020423A0020453A00543A18
:100B4000004265642048656174696E672E004865DF
:100B50006174696E6720646F6E652E003F002057D8
:100B60003A0020453A00543A0048656174696E675E
:100B70002E2E2E002042403A0020403A00202F0026
:100B8000205400202F0020423A00202F0020543A09
:100B9000006F6B002569206D696E2C20256920731C
:100BA000656300456E642066696C65206C697374CA
:100BB00000426567696E2066696C65206C697374B4
:100BC000004E6F206D6F76652E00334420507269A1
:100BD0006E7465722072656164792E00526573755A
:100BE0006D696E67207072696E7400576169742058
:100BF000666F7220757365722E2E2E005A206E6FEE
:100C00007420656E74657265642E0A0059206E6FDB
:100C10007420656E74657265642E0A0059206F75C4
:100C200074206F662072616E67652028312D33292C
:100C30002E0A0058206E6F7420656E7465726564AC
:100C40002E0A0058206F7574206F662072616E67DF
:100C5000652028312D33292E0A00473238004D6592
:100C600073682070726F62696E6720646F6E652EA4
:100C7000005374617274206D6573682070726F62C6
:100C8000696E6720776974682022473239205331B2
:100C9000222066697273742E004732380A4732394F
:100CA000205332004D65736820626564206C657660
:100CB000656C696E67206E6F742061637469766518
:100CC0002E002020000A4D656173757265642070E6
:100CD0006F696E74733A000A5A20736561726368B3
:100CE000206865696768743A20004E756D20582C3D
:100CF000593A200053206F7574206F662072616E20
:100D000067652028302D33292E00486F6D652058E7
:100D10002F59206265666F7265205A00486F6D65B5
:100D200020582F59206265666F7265205A005A203C
:100D300070726F6265206F75742E20626564005A50
:100D40002070726F6265206F75742E20626564007A
:100D50005A206E6F7420656E74657265642E0A0089
:100D600059206E6F7420656E74657265642E0A007A
:100D700059206F7574206F662072616E6765202838
:100D8000312D33292E0A0058206E6F7420656E7441
:100D9000657265642E0A0058206F7574206F662096
:100DA00072616E67652028312D33292E0A00473184
:100DB000205A3130004D6573682070726F62696E21
:100DC0006720646F6E652E00473939205332005317
:100DD00074617274206D6573682070726F62696EE1
:100DE00067207769746820224732392053312220E6
:100DF00066697273742E004732380A4739392053B6
:100E000032004D65736820626564206C6576656CA0
:100E1000696E67206E6F74206163746976652E0059
:100E20002020000A4D6561737572656420706F69DA
:100E30006E74733A000A5A207365617263682068A1
:100E400065696768743A20004E756D20582C593AD0
:100E5000200053206F7574206F662072616E676585
:100E60002028302D33292E00536C6565702E2E2ED0
:100E7000002200556E6B6E6F776E20636F6D6D6133
:100E80006E643A2022007A20646573743A00256902
:100E900020686F757273202569206D696E757465A1
:100EA0007300446F6E65207072696E74696E67209E
:100EB00066696C650053544F505045442E200050D5
:100EC00072696E7465722073746F707065642064EB
:100ED000756520746F206572726F72732E2046697B
:100EE0007820746865206572726F7220616E64206C
:100EF000757365204D39393920746F2072657374AC
:100F00006172742E202854656D70657261747572FB
:100F1000652069732072657365742E205365742093
:100F2000697420616674657220726573746172748D
:100F3000696E6729004E6F204C696E65204E756D95
:100F4000626572207769746820636865636B737586
:100F50006D2C204C617374204C696E653A20004EF4
:100F60006F20436865636B73756D207769746820C3
:100F70006C696E65206E756D6265722C204C6173B4
:100F800074204C696E653A2000636865636B737505
:100F90006D206D69736D617463682C204C6173748E
:100FA000204C696E653A20004C696E65204E756D67
:100FB000626572206973206E6F74204C61737420B7
:100FC0004C696E65204E756D6265722B312C204C1C
:100FD000617374204C696E653A20004D31313000E8
:100FE0006F6B00446F6E6520736176696E67206673
:100FF000696C652E004D3239002020506C616E6E98
:10100000657242756666657242797465733A20004E
:101010002046726565204D656D6F72793A200053E8
:101020006570202032203230313500436F6D706999
:101030006C65643A2000466C6F00207C204175741A
:10104000686F723A200053657020203220323031B0
:10105000352031323A30353A353400204C617374E2
:1010600020557064617465643A200020312E302E62
:101070003320646576004D61726C696E0020536F99
:1010800066747761726520526573657400205761DC
:10109000746368646F6720526573657400204272E0
:1010A0006F776E206F7574205265736574002045EC
:1010B000787465726E616C20526573657400506F50
:1010C0007765725570007374617274002200656EEA
:1010D0007175657565696E67202200FFFFFF00006E
:1010E000A0400000A0400000004000003443000089
:1010F0007A430000484300000000000000000000A8
:1011000000000000344300007A4300004843000020
:10111000000000000000000000006563686F3A00F6
:101120004572726F723A0020746F6F206C6F6E6739
:1011300020657874727573696F6E2070726576655C
:101140006E7465640020636F6C64206578747275DA
:1011500073696F6E2070726576656E7465640000E9
:10116000002110422063308440A550C660E770081B
:101170008129914AA16BB18CC1ADD1CEE1EFF131A2
:1011800012100273325222B5529442F772D662396B
:101190009318837BB35AA3BDD39CC3FFF3DEE362F2
:1011A00024433420040114E664C774A44485546ABB
:1011B000A54BB528850995EEE5CFF5ACC58DD55382
:1011C00036722611163006D776F6669556B4465B0B
:1011D000B77AA719973887DFF7FEE79DD7BCC7C452
:1011E00048E5588668A7784008611802282338CC5B
:1011F000C9EDD98EE9AFF9488969990AA92BB9F5E2
:101200005AD44AB77A966A711A500A333A122AFDAA
:10121000DBDCCBBFFB9EEB799B588B3BBB1AABA6B1
:101220006C877CE44CC55C222C033C600C411CAEFA
:10123000ED8FFDECCDCDDD2AAD0BBD688D499D97C1
:101240007EB66ED55EF44E133E322E511E700E9F4A
:10125000FFBEEFDDDFFCCF1BBF3AAF599F788F8811
:1012600091A981CAB1EBA10CD12DC14EF16FE180E2
:1012700010A100C230E3200450254046706760B9D9
:10128000839893FBA3DAB33DC31CD37FE35EF3B132
:10129000029012F322D2323542145277625672EA29
:1012A000B5CBA5A89589856EF54FE52CD50DC5E282
:1012B00034C324A01481046674476424540544DBB9
:1012C000A7FAB79987B8975FE77EF71DC73CD7D3D2
:1012D00026F2369106B01657667676154634564C89
:1012E000D96DC90EF92FE9C899E9898AB9ABA94422
:1012F00058654806782768C018E1088238A3287D19
:10130000CB5CDB3FEB1EFBF98BD89BBBAB9ABB7571
:101310004A545A376A167AF10AD01AB32A923A2EE8
:10132000FD0FED6CDD4DCDAABD8BADE89DC98D26C1
:101330007C076C645C454CA23C832CE01CC10C1FF8
:10134000EF3EFF5DCF7CDF9BAFBABFD98FF89F1711
:101350006E367E554E745E932EB23ED10EF01E7CDC
:101360003C3E5E2B3D3F2F5B5D3B2C2A225C004DBB
:10137000383420582059205A204500656E64737413
:101380006F7073206869743A205A00205A3A0065D9
:101390006E6473746F7073206869743A205900200A
:1013A000593A00656E6473746F7073206869743A9B
:1013B00020580020583A00656E6473746F70732073
:1013C0006869743A200024F4D43050C38E20C2A23D
:1013D0004017828B7011127A910D816CD90AA86125
:1013E000E108C7586607615143061E4B5D05C145BC
:1013F000A7041A411104093D98037139310340369D
:10140000DB0265339102D4305402802E1D02632C1E
:10141000EE01752AC501B028A001102781018F2592
:1014200064012B244B01E0223401AC211F018D20EB
:101430000D01801FFC00841EED00971DDF00B81C0D
:10144000D200E61BC600201BBC00641AB200B21911
:10145000A8000A19A0006A189900D1179100401736
:101460008B00B516840031167E00B31579003A154D
:101470007300C7146F0058146A00EE1366008813D7
:10148000630025135E00C7125B006C125700151233
:101490005400C111510070114F0021114B00D610A2
:1014A00049008D1047004610440002104200C00F52
:1014B0004000800F3E00420F3C00060F3B00CB0E69
:1014C0003800930E37005C0E3500270E3400F30D04
:1014D0003200C10D3100900D3000600D2E00320D34
:1014E0002D00050D2C00D90C2B00AE0C2900850C0D
:1014F00029005C0C2700350C27000E0C2600E80B99
:101500002400C40B2400A00B23007D0B23005A0BE6
:101510002100390B2100180B2000F80A1F00D90AFE
:101520001E00BB0A1E009D0A1D00800A1D00630AE2
:101530001C00470A1B002C0A1B00110A1A00F7099D
:101540001A00DD091900C4091900AB091900920934
:1015500017007B091800630917004C0916003609AB
:101560001600200916000A091500F5081500E00804
:101570001400CC081400B8081400A4081400900843
:1015800013007D0812006B0813005808120046086B
:10159000120034081100230811001208110001087C
:1015A0001100F0071000E0071000D0071000C0077E
:1015B0001000B0070F00A107100091070E0083076D
:1015C0000F0074070F0065070E0057070E0049074C
:1015D0000E003B070D002E070E0020070D0013071D
:1015E0000D0006070D00F9060C00ED060D00E006E3
:1015F0000C00D4060C00C8060C00BC060C00B0069B
:101600000C00A4060B0099060C008D060B00820648
:101610000B0077060B006C060B0061060A005706EC
:101620000B004C060A0042060A0038060A002E0685
:101630000A0024060A001A060A0010060900070616
:101640000A00FD050900F4050900EB050900E205A3
:101650000900D9050900D0050900C7050900BE0524
:101660000900B5050800AD050800A50509009C05A1
:101670000800940508008C050800840508007C0516
:101680000800740508006C050700650508005D0585
:101690000700560508004E050700470507004005EE
:1016A000080038050700310507002A050700230553
:1016B00007001C050600160507000F0507000805B2
:1016C000060002050700FB040600F5040700EE040F
:1016D0000600E8040600E2040700DB040600D50467
:1016E0000600CF040600C9040600C3040600BD04BA
:1016F0000600B7040600B1040500AC040600A60409
:101700000600A00405009B04060095040500900453
:1017100006008A04050085040500800406007A049A
:10172000050075040500700405006B0405006604DF
:101730000500610405005C0405005704050052041F
:1017400005004D04050048040500430405003E045F
:1017500004003A04050035040500300404002C049C
:10176000050027040400230405001E0404001A04D5
:10177000040016040500110404000D04040009040B
:1017800005000404040000040400FC030400F80342
:101790000400F4030400F0030400EC030400E80375
:1017A0000400E4030400E0030400DC030400D803A5
:1017B0000400D4030400D0030400CC030400C803D5
:1017C0000300C503030024F404D9201BC40C5C0EE1
:1017D0009804C4095F0265077101F405F900FB0470
:1017E000B30048048700C103690058035500030390
:1017F0004500BE023A008402310053022A00290249
:10180000250004022000E4011C00C8011900AF01FA
:101810001700980114008401130071011000610188
:10182000100051010E0043010D0036010B002B0189
:101830000B0020010B00150109000C010900030138
:101840000800FB000800F3000800EB000700E400BC
:101850000600DE000600D8000600D2000600CC001C
:101860000500C7000500C2000500BD000400B90066
:101870000400B5000400B1000400AD000400A9009C
:101880000400A5000300A20003009F0004009B00C9
:1018900003009800030095000200930003009000ED
:1018A00003008D0002008B00030088000200860008
:1018B000020084000300810002007F0002007D001E
:1018C00002007B0002007900020077000100760030
:1018D00002007400020072000100710002006F003B
:1018E00002006D0001006C0002006A000100690046
:1018F000020067000100660001006500010064004D
:1019000002006200010061000100600001005F0050
:1019100002005D0001005C0001005B0001005A0054
:101920000100590001005800010057000100560055
:101930000100550001005400010053000000530055
:1019400001005200010051000100500001004F0051
:1019500001004E0000004E0001004D0001004C004F
:1019600001004B0000004B0001004A00010049004B
:101970000100480000004800010047000100460047
:101980000000460001004500000045000100440041
:10199000010043000000430001004200000042003B
:1019A00001004100000041000100400001003F0033
:1019B00000003F0001003E0000003E0001003D002D
:1019C00000003D0001003C0000003C0000003C0025
:1019D00001003B0000003B0001003A0000003A001B
:1019E0000100390000003900010038000000380013
:1019F0000000380001003700000037000100360009
:101A000000003600000036000100350000003500FF
:101A100000003500010034000000340000003400F4
:101A200001003300000033000000330001003200E9
:101A300000003200000032000100310000003100DF
:101A400000003100010030000000300000003000D4
:101A500001002F0000002F0000002F0000002F00C9
:101A600001002E0000002E0000002E0001002D00BD
:101A700000002D0000002D0000002D0001002C00B2
:101A800000002C0000002C0000002C0001002B00A6
:101A900000002B0000002B0000002B0001002A009A
:101AA00000002A0000002A0000002A00010029008E
:101AB0000000290000002900000029000000290082
:101AC0000100280000002800000028000000280075
:101AD0000000280001002700000027000000270068
:101AE000000027000000270001002600000026005B
:101AF000000026000000260000002600010025004E
:101B00000000250000002500000025000000250041
:101B10000000250001002400000024000000240033
:101B20000000240000002400010023000000230026
:101B30000000230000002300000023000000230019
:101B4000000023000100220000002200000022000B
:101B500000002200000022000000220001002100FD
:101B600000002100000021000000210000002100F1
:101B700000002100000021000100200000002000E2
:101B800000002000000020000000200000002000D5
:101B9000000020000000200001001F0000001F00C6
:101BA00000001F0000001F0000001F0000001F00B9
:101BB00000001F0001001E0000001E0000001E00AB
:101BC00000001E0000004865617465642062656461
:101BD000207377697463686564206F66662E204D94
:101BE000415854454D502074726967676572656449
:101BF000202121004572723A204D415854454D50E4
:101C000020424544003A204578747275646572201C
:101C10007377697463686564206F66662E204D492A
:101C20004E54454D50207472696767657265642033
:101C300021004572723A204D494E54454D50003AAC
:101C4000204578747275646572207377697463686F
:101C50006564206F66662E204D415854454D5020D6
:101C6000747269676765726564202121004572722C
:101C70003A204D415854454D50004B642000236498
:101C80006566696E65202044454641554C545F00A9
:101C90004B69200023646566696E652020444546D3
:101CA00041554C545F004B70200023646566696E9B
:101CB00065202044454641554C545F00504944201E
:101CC0004175746F74756E652066696E69736865B9
:101CD00064212050757420746865206C61737420D1
:101CE0004B702C204B6920616E64204B6420636F25
:101CF0006E7374616E74732066726F6D2062656CB2
:101D00006F7720696E746F20436F6E6669677572B6
:101D10006174696F6E2E6800504944204175746F7C
:101D200074756E65206661696C6564212074696DE7
:101D3000656F75740020403A006F6B20543A006F55
:101D40006B20423A00504944204175746F74756E9F
:101D500065206661696C6564212054656D706572EB
:101D6000617475726520746F6F2068696768002000
:101D70004B643A2000204B693A2000204B703A20F7
:101D80000020436C61737369632050494420002034
:101D900054753A2000204B753A2000206D61783A46
:101DA0002000206D696E3A200020643A20002062F5
:101DB0006961733A200010005E01C001FA00F00171
:101DC000F5003002F0007002EB00A002E600C00255
:101DD000E1001003DC005003D700E003D2007004E0
:101DE000CD00E004C800E005BE006006B900400771
:101DF000AA00F008A000700B9600F00D8C00E01017
:101E00008200E0137800F0176E00D0196900701B93
:101E10006400401E5F0010205A00F0255000802909
:101E20004600D0303C00A032370010353200203957
:101E30002D0020392800703A2300A03B1E00A03C52
:101E40001900203D1600003F0300F03F000047321C
:101E500038004D343238002D2D3A2D2D002D2D2DEA
:101E600000534400012000012000012000466C6F57
:101E700077203100466C6F77203100466C6F7720F9
:101E80003000466C6F77203000466C6F7700466CF0
:101E90006F770046616E2073706565640046616E01
:101EA0002073706565640042656400426564004E9D
:101EB0006F7A7A6C652032004E6F7A7A6C652032C8
:101EC000004E6F7A7A6C65004E6F7A7A6C650053BB
:101ED00070656564005370656564004D61696E00EE
:101EE000473238005A0058595A00473238005800D3
:101EF00059005A00457874727564657200457874AB
:101F00007275646572004D6F7665205A004D6F766C
:101F1000652059004D6F76652058004D6F7665201D
:101F200061786973004D6F766520302E316D6D00DC
:101F30004D6F766520316D6D004D6F7665203130C7
:101F40006D6D0050726570617265005072656865F4
:101F5000617420504C412042656400507265686590
:101F6000617420504C4120416C6C00507265686572
:101F7000617420504C412032005072656865617474
:101F800020504C41203100507265706172650050E4
:101F90007265686561742041425320426564005057
:101FA0007265686561742041425320416C6C005039
:101FB0007265686561742041425320320050726539
:101FC0006865617420414253203100507265706130
:101FD0007265004D38300053776974636820706F04
:101FE000776572206F6E004D3831005377697463E6
:101FF0006820706F776572206F666600436F6F6C44
:10200000646F776E00507265686561742041425359
:10201000005072656865617420504C41004D383441
:102020000044697361626C652073746570706572D9
:1020300073004D6F76652061786973004C65766535
:102040006C206265640053657420686F6D65206F55
:1020500066667365747300473238004175746F208B
:10206000686F6D65004D61696E0042656400426590
:1020700064004E6F7A7A6C65004E6F7A7A6C6500F8
:1020800046616E2073706565640046616E207370F2
:102090006565640054656D70657261747572650084
:1020A00042656400426564004E6F7A7A6C65004E4A
:1020B0006F7A7A6C650046616E20737065656400A6
:1020C00046616E2073706565640054656D7065725D
:1020D0006174757265005072656865617420414273
:1020E0005320636F6E66005072656865617420509E
:1020F0004C4120636F6E66005049442D43005049A7
:10210000442D43005049442D44005049442D44007F
:102110005049442D49005049442D49005049442D0F
:1021200050005049442D5000200220466163740045
:1021300020022046616374002002204D6178002057
:1021400002204D6178002002204D696E002002209F
:102150004D696E004175746F74656D70004F6666F1
:10216000004F6E200046616E207370656564004606
:10217000616E207370656564004265640042656449
:10218000004E6F7A7A6C652032004E6F7A7A6C65F9
:102190002032004E6F7A7A6C65004E6F7A7A6C65E9
:1021A00000436F6E74726F6C004573746570732FAB
:1021B0006D6D004573746570732F6D6D005A737487
:1021C0006570732F6D6D005A73746570732F6D6D2C
:1021D000005973746570732F6D6D00597374657059
:1021E000732F6D6D005873746570732F6D6D00588B
:1021F00073746570732F6D6D00412D747261766517
:102200006C00412D74726176656C00412D726574AD
:102210007261637400412D72657472616374004170
:102220006D6178206500416D6178206500416D61C8
:1022300078207A00416D6178207A00416D617820C4
:102240007900416D6178207900416D6178207800D6
:10225000416D61782078005654726176206D696E08
:10226000005654726176206D696E00566D696E007D
:10227000566D696E00566D6178206500566D617807
:10228000206500566D6178207A00566D6178207A5D
:1022900000566D6178207900566D6178207900567E
:1022A0006D6178207800566D617820780056652D34
:1022B0006A65726B0056652D6A65726B00567A2DE1
:1022C0006A65726B00567A2D6A65726B0056787972
:1022D0002D6A65726B005678792D6A65726B0041C4
:1022E0006363656C00416363656C00436F6E747279
:1022F0006F6C0046696C2E204469612E20320046C6
:10230000696C2E204469612E20320046696C2E20B3
:102310004469612E20310046696C2E204469612E8B
:102320002031004520696E206D6D33004F666600D8
:102330004F6E2000436F6E74726F6C005265737441
:102340006F7265206661696C736166650046696CD1
:10235000616D656E74004D6F74696F6E0054656DCC
:102360007065726174757265004D61696E004D3201
:1023700034004D323320257300052E2E00045265A3
:102380006672657368004D61696E004D32310049B7
:102390006E69742E2053442063617264004E6F2076
:1023A00053442063617264004D3231004368616EB2
:1023B00067652053442063617264005072696E74D3
:1023C0002066726F6D2053440053746F70207072DA
:1023D000696E7400526573756D65207072696E74F4
:1023E000005061757365207072696E7400436F6E82
:1023F00074726F6C00507265706172650054756E16
:102400006500496E666F2073637265656E0000003B
:102410000A0B02090C0D0E0807030401000000005E
:1024200000000000000000000000000000000000AC
:102430000000000000000000000012111000000069
:10244000000000000000000000000000000000008C
:102450000000000001021020200808102040102079
:102460004080020102010804020101020408102058
:102470004080804020100804020180040201804056
:1024800020100804020108040201010204081020BF
:10249000408001020408102040800505050507055D
:1024A00008080808020202020A0A080804040404D0
:1024B00001010101010101010303030303030303FC
:1024C000040707070C0C0C0C0C0C0C0C020202028B
:1024D00006060606060606060B0B0B0B0B0B0B0B74
:1024E000000020002300260029002C002F003200CD
:1024F000000100000301060109010000220025007F
:1025000028002B002E0031003400020100000501DC
:1025100008010B0100002100240027002A002D00E3
:102520003000330001010000040107010A01024EDE
:10253000414E494E495459494E46CDCCCC3D0AD71F
:10254000233C17B7D13877CC2B329595E6241FB1B1
:102550004F0A000020410000C84200401C4620BC39
:10256000BE4CCA1B0E5AAEC59D74D25801590CA25E
:10257000EACBD65811241FBECFEFD1E2DEBFCDBFCC
:1025800000E00CBF15E0A0E0B2E0E2EDFEEB01E000
:102590000BBF02C007900D92A635B107D9F724E111
:1025A000A6E5B5E001C01D92AC35B207E1F715E232
:1025B000C2E7D5E200E006C022970109FE010BBF89
:1025C0000E940FD9CA36D10780E00807A9F70E94F8
:1025D00009D00C9457DF0C940000FC011482178280
:1025E000138212828AEB94E09183808308952AEB10
:1025F00034E0FC01318320832781222319F00496E3
:102600000C94D3760895CF92DF92EF92FF920F93BE
:102610001F93CF93DF93EC018F960E94ED12CE01B2
:10262000805B9F4F0E94ED127E012FE6E20EF11CAF
:1026300087016E013BE5C31A3EEFD30AC8010E9431
:10264000ED12015E1F4F0C151D05C1F7FE01E95586
:10265000FE4F89E1818314823596178ACE01865315
:102660009E4F0E94ED12FE01E558FD4F108211822F
:1026700012821382389610821182128213821A8279
:102680001B8218821982F80111821082FE01E75123
:10269000FE4F108286E391E0F7019C0111922150D8
:1026A0003040E1F7FE01E957FD4F81E080831EA62F
:1026B0001DA60E9492CDC158DD4F68577C4E8F4FAA
:1026C0009F4F688379838A839B83DF91CF911F918A
:1026D0000F91FF90EF90DF90CF900895FC0120E0E4
:1026E0003EE2DB014C91403241F0283011F430835E
:1026F0003196DB014C91408331962F5F6F5F7F4FA6
:102700002B3079F7108208952F923F924F925F926B
:102710006F927F928F929F92AF92BF92CF92DF92F1
:10272000EF92FF920F931F93CF93DF93CDB7DEB756
:10273000C858D1090FB6F894DEBF0FBECDBF8C01CB
:102740006B017A014901CA57DF4F1882C658D04041
:1027500084E0E80EF11C1801E2E12E0E311C380174
:10276000F8E76F1AFDEF7F0A580186E7A81A8DEF88
:10277000B80A80E4482E512C4C0E5D1EE4E04E0E4B
:10278000511CA101BE016F5F7F4FC7010E943875C8
:1027900018160CF033C12C85322F3871303139F4D2
:1027A000F301808191810197029708F08BC08981A4
:1027B000882309F423C18E3221F3F80182898E32F5
:1027C00001F323FDDECF81E0303109F080E0F80134
:1027D0008483811106C08985873499F68A858E376E
:1027E00081F298012B5F3F4FBE016F5F7F4FC901A0
:1027F000C957DF4F2883C758D040C857DF4F3883A9
:10280000C858D0400E946E13F30180819181C9574E
:10281000DF4F2881C758D040C857DF4F3881C8588C
:10282000D0400097F1F4F6018191882339F090911E
:10283000C00095FFFCCF8093C600F6CFF9018191CF
:10284000882339F09091C00095FFFCCF8093C6009B
:10285000F6CF8091C00085FFFCCF8AE08093C60050
:1028600090CF8130910539F4F501808191810196F5
:102870009183808386CF029709F083CF81149104DE
:1028800039F0B901C4010E942EDC892B79F4B6C05D
:10289000CA57DF4FF881C658D0402F2F30E0F501DE
:1028A000808191812817390709F4A8C0CA57DF4FE2
:1028B000F881C658D040FF5FCA57DF4FF883C6582B
:1028C000D0405FCFBE016F5F7F4FCE0187589F4FD3
:1028D0000E946E13A0961FAEA097F6018081811111
:1028E00007C060E373E0CE01815A9F4F0E9441DC34
:1028F000B601CE01815A9F4F0E9441DCBE0167584C
:102900007F4FCE01815A9F4F0E9441DC60E373E00C
:10291000CE01815A9F4F0E9441DCCE01805C9F4FC7
:102920000E94ED1221E0AE0147585F4FB701C2018E
:102930000E94DC78811139C0F30180819181892B5B
:10294000A1F5EAE1F1E18491882341F09091C00082
:1029500095FFFCCF8093C6003196F5CFE2E3F3E01C
:102960008191882339F09091C00095FFFCCF80932E
:10297000C600F6CF8091C00085FFFCCF8AE080932F
:10298000C600FE01E758FF4F8191882339F09091EE
:10299000C00095FFFCCF8093C600F6CF8091C000A9
:1029A00085FFFCCF8AE08093C6008BE1FE01EC5BE3
:1029B000FF4FDE01959601900D928A95E1F72496DE
:1029C0008EAD9FAD24979CA38BA38AEB94E09AA332
:1029D00089A320E030E0AE014F5D5F4FBE01615A38
:1029E0007F4FC8010E948413CE0181960E94F71286
:1029F000CE01805C9F4F0E94F712C3CEC857DF4FB5
:102A00000FB6F894DEBF0FBECDBFDF91CF911F91FF
:102A10000F91FF90EF90DF90CF90BF90AF909F907D
:102A20008F907F906F905F904F903F902F90089580
:102A3000EF92FF920F931F93CF93DF93CDB7DEB743
:102A40006F970FB6F894DEBF0FBECDBF8C01FC01AF
:102A5000E857FD4F118210827C0183E3E80EF11CE0
:102A600040E050E0BA01C7010E94ED758BE1F7012B
:102A7000DE01159601900D928A95E1F7F80181A982
:102A800092A99C838B838AEB94E09A83898320E0CC
:102A900030E0AE014F5F5F4F61ED74E0C8010E940E
:102AA0008413CE0101960E94F7126F960FB6F89428
:102AB000DEBF0FBECDBFDF91CF911F910F91FF9071
:102AC000EF9008952BE1FB013496DC011496019000
:102AD0000D922A95E1F7FB0122813381FC013383BA
:102AE00022830895EF92FF920F931F93CF93DF936A
:102AF000EC011B828EA9882321F0CE01C3960E948F
:102B0000D3767E0189E5E81A8EEFF80A45E360E0A6
:102B1000C7010E940D7181111FC0EAE1F1E18491AA
:102B2000882341F09091C00095FFFCCF8093C600B0
:102B30003196F5CFE5EFF4E08491882341F0909150
:102B4000C00095FFFCCF8093C6003196F5CF8091F1
:102B5000C00085FFFCCF76C08E0104551E4F41E0BA
:102B6000B701C8010E94047F811126C040E0B7016F
:102B7000C8010E94047F81111FC0E0E2F1E184914D
:102B8000882341F09091C00095FFFCCF8093C60050
:102B90003196F5CFE2EEF4E08491882341F09091F4
:102BA000C00095FFFCCF8093C6003196F5CF809191
:102BB000C00085FFFCCF46C0B801CE01C3960E947D
:102BC000D87381111FC0E0E2F1E18491882341F0C4
:102BD0009091C00095FFFCCF8093C6003196F5CF51
:102BE000E2EDF4E08491882341F09091C00095FFDC
:102BF000FCCF8093C6003196F5CF8091C00085FF51
:102C0000FCCF20C081E08B83EAE1F1E1849188234D
:102C100041F09091C00095FFFCCF8093C6003196A3
:102C2000F5CFE7ECF4E08491882341F09091C00067
:102C300095FFFCCF8093C6003196F5CF8091C00000
:102C400085FFFCCF8AE08093C6008E01015D1F4F97
:102C5000B801CE01805B9F4F0E946215C25BDF4FBF
:102C600019830883DF91CF911F910F91FF90EF900F
:102C70000895FC01128213820895FC01238122230E
:102C800011F021E022830895FC012281211112829A
:102C90000895AF92BF92CF92DF92EF92FF920F937F
:102CA0001F93CF93DF931F92CDB7DEB78C018FE2D6
:102CB000FB0181935F01D12C41E07801FBE5EF1A24
:102CC000FEEFFF0A9FE1C92E2D2D30E0F701808134
:102CD000918128173907D8F4C29EC001C39E900D78
:102CE00011248D589F4FB501800F911F49830E9479
:102CF0007D73C50149815C010196F5012081222384
:102D000021F04D3810F44F5FF6CFD394DDCF47FD5F
:102D100011C0B501C80182539E4F0F90DF91CF9132
:102D20001F910F91FF90EF90DF90CF90BF90AF90E9
:102D30000C947D73F50110820F90DF91CF911F915C
:102D40000F91FF90EF90DF90CF90BF90AF900895DC
:102D50003F924F925F926F927F928F929F92AF922B
:102D6000BF92CF92DF92EF92FF920F931F93CF9378
:102D7000DF93CDB7DEB7AC970FB6F894DEBF0FBECA
:102D8000CDBF7C015B01FC018381882309F4EFC086
:102D9000C70182539E4F0E94D376F7011282CE0163
:102DA00001966C010E94ED1227019EE4490E511C10
:102DB000C7018F96F20191838083F50180818F3264
:102DC00009F077C06FE270E0C5010E944CDC8C0115
:102DD0000F5F1F4F2AE0322E0115110509F46FC055
:102DE0006FE270E0C8010E944CDC4C01009709F4CE
:102DF00067C00817190708F063C03C01601A710A20
:102E0000A301B801CE0180960E9475DCE0E2F0E0FB
:102E1000EC0FFD1FE60DF71D1082FE01B0968191AB
:102E2000882339F09091C00095FFFCCF8093C600B5
:102E3000F6CF8091C00085FFFCCF3092C600F20132
:102E4000608171816115710519F06C5F7F4F02C05F
:102E500060E070E021E0AE01405E5F4FCE0105967C
:102E60000E94DC7881111EC0E2EBF3E0849188239C
:102E700041F09091C00095FFFCCF8093C600319641
:102E8000F5CFFE01B0968191882339F09091C00072
:102E900095FFFCCF8093C600F6CF8091C00085FFE0
:102EA000FCCF5FC0F201D182C08284010F5F1F4F4F
:102EB00093CFC701805B9F4FF2019183808385018F
:102EC000F20180819181009711F0049602C080E0A8
:102ED00090E0B8010E94BC79811103C0ECE8F3E0F6
:102EE0002EC0E4EAF3E08491882341F09091C00081
:102EF00095FFFCCF8093C6003196F5CFF801819104
:102F0000882339F09091C00095FFFCCF8093C600D4
:102F1000F6CF8091C00085FFFCCF8AE08093C60089
:102F2000F701ED57FD4F10821182128213821CC0EF
:102F30009091C00095FFFCCF8093C600319684919C
:102F40008111F6CFF8018191882339F09091C0006A
:102F500095FFFCCF8093C600F6CF8091C00085FF1F
:102F6000FCCF8EE28093C600C6010E94F712AC9699
:102F70000FB6F894DEBF0FBECDBFDF91CF911F918A
:102F80000F91FF90EF90DF90CF90BF90AF909F9008
:102F90008F907F906F905F904F903F900895CF9368
:102FA000DF93EC018B81811103C0EAE6F3E039C0C5
:102FB000EAE7F3E08491882341F09091C00095FF07
:102FC000FCCF8093C6003196F5CFFE01ED57FD4F43
:102FD00040815181628173812AE030E086E595E08D
:102FE0000E94CF268091C00085FFFCCF8FE28093A6
:102FF000C600C558DD4F488159816A817B812AE02E
:1030000030E086E595E00E94CF268091C00085FFE4
:10301000FCCF0EC09091C00095FFFCCF8093C600FE
:10302000319684918111F6CF8091C00085FFFCCF4D
:103030008AE08093C600DF91CF910895AF92BF924E
:10304000CF92DF92EF92FF920F931F93CF93DF9374
:103050005C01EB01FB0101900020E9F78F010150B9
:103060001109061B170B6C01F2E3CF1AFEEFDF0A02
:10307000F60110826EE470E0CE010E944CDC7C010F
:10308000009729F4F8013197EC0FFD1F0DC060E2A5
:1030900070E00E944CDCEC0121966AE270E0C7010E
:1030A0000E944CDCFC0131978DE081838AE08283B1
:1030B0001382BE01C50186539E4F0E94A27BF6017A
:1030C0008081882309F1E0E2F1E18491882341F0D5
:1030D0009091C00095FFFCCF8093C6003196F5CF4C
:1030E000E4E5F3E08491882341F09091C00095FFDE
:1030F000FCCF8093C6003196F5CF8091C00085FF4C
:10310000FCCF8AE08093C600DF91CF911F910F9191
:10311000FF90EF90DF90CF90BF90AF9008952F92E7
:103120003F924F925F926F927F928F929F92AF9257
:10313000BF92CF92DF92EF92FF920F931F93CF93A4
:10314000DF93CDB7DEB7CC55D1090FB6F894DEBF0B
:103150000FBECDBF8C0189579D4F5C01611112C01C
:10316000FC018081882309F4B1C03897C080D180E8
:10317000E280F3800E9492CDC616D706E806F906D3
:1031800008F4A4C0F5011082F8018381811108C000
:10319000C8010E947215F8018381882309F496C042
:1031A000F80186A58F9385A58F938BE493E09F9379
:1031B0008F937E01FFE3EF0EF11CFF92EF920E94CE
:1031C00084DC0F900F900F900F900F900F90B12C08
:1031D000F70101900020E9F73197EE19FF09BE16BB
:1031E00084F46701CB0CD11CB7FCDA94F601808122
:1031F000992787FD90950E94CFDBF6018083B394D9
:10320000E7CF4801F3E38F0E911C40E050E0BA0194
:10321000C4010E94ED75512CCE0101966C0134E47D
:10322000632E33E0732E5E0191E2A90EB11C40E0E3
:1032300050E0B601C4010E9438751816DCF5412C27
:10324000F60101900020E9F73197EC19FD094E16BF
:1032500074F41601240C311C47FC3A94F10180816E
:1032600090E00E94CFDBF10180834394E9CF8A850F
:103270008E37E9F245E050E0B701C6010E9467DCF5
:10328000892BA9F6FF92EF927F926F92BF92AF9235
:103290000E9484DCC5010E94182880E493E00E940B
:1032A000E2280F900F900F900F900F900F905524E1
:1032B0005394BDCF511004C08FEF9FEFF80104C0AD
:1032C000F80185A596A5019696A785A7C45ADF4F54
:1032D0000FB6F894DEBF0FBECDBFDF91CF911F9127
:1032E0000F91FF90EF90DF90CF90BF90AF909F90A5
:1032F0008F907F906F905F904F903F902F900895A8
:103300000F931F93CF93DF93EC018C0102531E4F59
:10331000C8010E948776C8010E94D376198218825C
:10332000DF91CF911F910F910895CF92DF92EF928D
:10333000FF920F931F93CF93DF93CDB7DEB76F97B5
:103340000FB6F894DEBF0FBECDBF8C016A017C01C1
:103350008EE4E80EF11CC801805B9F4FF70191835A
:103360008083E65CFD4F22E030E03183208332969B
:103370007183608340E050E0BA0104960E94ED75CD
:10338000F701808191812BE1FC013496DE011596D5
:1033900001900D922A95E1F7FC01828193819C8333
:1033A0008B838AEB94E09A8389839601AE014F5F09
:1033B0005F4F61ED74E0C8010E948413CE01019655
:1033C0000E94F7126F960FB6F894DEBF0FBECDBF06
:1033D000DF91CF911F910F91FF90EF90DF90CF90F1
:1033E00008952F923F924F925F926F927F928F92A9
:1033F0009F92AF92BF92CF92DF92EF92FF920F9384
:103400001F93CF93DF93CDB7DEB7AC970FB6F89489
:10341000DEBF0FBECDBF8C016B01342EFC0183815A
:10342000882309F4BCC2EF52FE4F8081882309F43F
:10343000F9C0222319F0EAE1F1E1CCC07801F7E10B
:10344000EF1AFEEFFF0AF7018081811103C0EAE164
:10345000F1E133C0E0E2F1E18491882341F0909101
:10346000C00095FFFCCF8093C6003196F5CFE4E80D
:10347000F4E08491882341F09091C00095FFFCCF47
:103480008093C6003196F5CF4AE050E061E070E0ED
:1034900086E595E00E94A0268091C00085FFFCCFC4
:1034A0008AE08093C6000E94F44679C29091C000E1
:1034B00095FFFCCF8093C600319684918111F6CFA1
:1034C000EBE6F4E08491882341F09091C00095FFF1
:1034D000FCCF8093C6003196F5CFF6018191882309
:1034E00039F09091C00095FFFCCF8093C600F6CFD5
:1034F000E0E6F4E08491882341F09091C00095FFCC
:10350000FCCF8093C6003196F5CFF70180815DE84E
:10351000B52EB801B89E600D711D112462517E4F09
:10352000C8010E944916F7018081F801B89EE00D9C
:10353000F11D1124E251FE4F8191882339F09091C1
:10354000C00095FFFCCF8093C600F6CFEAE5F4E01B
:103550008491882341F09091C00095FFFCCF809327
:10356000C6003196F5CF5801FDE7AF1AFDEFBF0A4F
:10357000F50140815181628173812AE030E086E566
:1035800095E00E94CF268091C00085FFFCCF8AE0A5
:103590008093C600F7012081F80184E0289FE00DA8
:1035A000F11D1124AF0146515E4FF50180819181DB
:1035B000A281B381FA0180839183A283B3832F5FB9
:1035C000F701208329C09091C00095FFFCCF809324
:1035D000C600319684918111F6CFE9E4F4E084913C
:1035E000882341F09091C00095FFFCCF8093C600E6
:1035F0003196F5CFF6018191882339F09091C00082
:1036000095FFFCCF8093C600F6CF8091C00085FF68
:10361000FCCF8AE08093C600C80182539E4F0E946F
:10362000D37630C0F801E751FE4F1082EAE1F1E1B4
:103630008491882341F09091C00095FFFCCF809346
:10364000C6003196F5CFE8E3F4E08491882341F099
:103650009091C00095FFFCCF8093C6003196F5CFC6
:10366000F6018191882339F09091C00095FFFCCF3D
:103670008093C600F6CF8091C00085FFFCCF8AE022
:103680008093C600F8011282CE0101965C010E946F
:10369000ED1228019EE4490E511CC8018F96F201DB
:1036A00091838083F60180818F3209F074C07601A6
:1036B000FFEFEF1AFF0A4AE0242EE114F10409F4A7
:1036C00070C06FE270E0C7010E944CDC4C010097B3
:1036D00009F468C0E816F90608F064C03C016E18E9
:1036E0007F08A301B701CE0180960E9475DCE0E25D
:1036F000F0E0EC0FFD1FE60DF71D1082FE01B09605
:103700008191882339F09091C00095FFFCCF809380
:10371000C600F6CF8091C00085FFFCCF2092C60086
:10372000F201608171816115710519F06C5F7F4F45
:1037300002C060E070E021E0AE01405E5F4FCE016C
:1037400005960E94DC7881111EC0E4E2F4E08491C9
:10375000882341F09091C00095FFFCCF8093C60074
:103760003196F5CFFE01B0968191882339F0909182
:10377000C00095FFFCCF8093C600F6CF8091C000BB
:1037800085FFFCCFDFC0F201B182A0827401FFEFA0
:10379000EF1AFF0A92CFC801805B9F4FF20191831D
:1037A00080837601C80182539E4F4C01F2016081F3
:1037B0007181332009F49BC06115710519F06C5FAC
:1037C0007F4F02C060E070E021E0A701C4010E94C9
:1037D000DC78811103C0ECEEF3E076C09801255847
:1037E0003D4FF40181899289A389B489F9018083CD
:1037F0009183A283B383E6E1F4E08491882341F0CE
:103800009091C00095FFFCCF8093C6003196F5CF14
:10381000F7018191882339F09091C00095FFFCCF8A
:103820008093C600F6CFEEE0F4E08491882341F067
:103830009091C00095FFFCCF8093C6003196F5CFE4
:10384000F90140815181628173812AE030E086E58F
:1038500095E00E94CF268091C00085FFFCCF8AE0D2
:103860008093C600F801ED57FD4F1082118212823D
:103870001382E0E0F4E08491882341F09091C0004D
:1038800095FFFCCF8093C6003196F5CF8091C000A4
:1038900085FFFCCF8AE08093C600A70160E070E05E
:1038A000C8010E949519F8018289882319F0C8017E
:1038B000429601C0C70160E06DC09091C00095FFC5
:1038C000FCCF8093C600319684918111F6CFF70129
:1038D0008191882339F09091C00095FFFCCF8093AF
:1038E000C600F6CF8091C00085FFFCCF2BC06115CC
:1038F000710519F06C5F7F4F02C060E070E026E553
:10390000A701C4010E94DC78811120C0E8EDF3E03A
:103910008491882341F09091C00095FFFCCF809363
:10392000C6003196F5CFF7018191882339F0909147
:10393000C00095FFFCCF8093C600F6CF8091C000F9
:1039400085FFFCCF8EE28093C60026C081E0F8019F
:103950008083E6ECF3E08491882341F09091C000ED
:1039600095FFFCCF8093C6003196F5CFF60181918B
:10397000882339F09091C00095FFFCCF8093C6005A
:10398000F6CF8091C00085FFFCCF8AE08093C6000F
:1039900060E0C7010E94E699C5010E94F712AC964B
:1039A0000FB6F894DEBF0FBECDBFDF91CF911F9150
:1039B0000F91FF90EF90DF90CF90BF90AF909F90CE
:1039C0008F907F906F905F904F903F902F900895D1
:1039D00021E0FC01218340E00C94F119CF92DF92A9
:1039E000EF92FF920F931F93CF93DF93CDB7DEB784
:1039F0006F970FB6F894DEBF0FBECDBF8C016C0180
:103A00002EE4C20ED11C805B9F4FF6019183808310
:103A1000E65CFD4F21E030E0318320837801F6E75A
:103A2000EF1AFDEFFF0AF7011182108240E050E02B
:103A3000BA0104960E94ED75F601808191812BE117
:103A4000FC013496DE01159601900D922A95E1F75E
:103A5000FC01828193819C838B838AEB94E09A831F
:103A6000898320E030E0AE014F5F5F4F61ED74E08D
:103A7000C8010E948413CE0101960E94F712F7013B
:103A8000808191816F960FB6F894DEBF0FBECDBFD7
:103A9000DF91CF911F910F91FF90EF90DF90CF902A
:103AA0000895AF92BF92CF92DF92EF92FF920F9361
:103AB0001F93CF93DF93CDB7DEB76F970FB6F89410
:103AC000DEBF0FBECDBF8C017B01CE0101960E94EF
:103AD000ED12F801E95AFF4F80816801811104C09D
:103AE0002FE2C20ED11C03C080E5C80ED11C21E01C
:103AF000A701B6016C5F7F4FCE0105960E94DC786E
:103B000081112DC0EAE1F1E18491882341F0909187
:103B1000C00095FFFCCF8093C6003196F5CFEAE256
:103B2000F3E08491882341F09091C00095FFFCCF91
:103B30008093C6003196F5CFF7018191882339F043
:103B40009091C00095FFFCCF8093C600F6CF809186
:103B5000C00085FFFCCF8AE08093C60036C0F80124
:103B6000EB55FE4F808191818A30910530F59C01A3
:103B70002F5F3F4F318320832FE1289F7001299FC2
:103B8000F00C11242FE6E20EF11CE00EF11E5C0198
:103B9000B701C7014F960E94621581E0A81AB108CB
:103BA0002FE1E21AF1088FEFA816B80689F7B601DF
:103BB000C80181599F4F0E946215BE016F5F7F4F00
:103BC000C801805B9F4F0E946215CE0101960E9442
:103BD000F7126F960FB6F894DEBF0FBECDBFDF9120
:103BE000CF911F910F91FF90EF90DF90CF90BF90FA
:103BF000AF900895EF92FF920F931F93CF93DF93AF
:103C0000EC01CB55DE4F2881398121153105F9F0C2
:103C100021503109398328838C0101591F4FB80184
:103C2000805B9F4F0E946215C80100E010E07C019C
:103C30002FE1E20EF11C288139810217130738F4B5
:103C40000F5F1F4FB7010E946215C701F0CFDF91D0
:103C5000CF911F910F91FF90EF900895EF92FF92F7
:103C60000F931F93CF93DF93EC010E941F888E0167
:103C700007511E4FF80180819E0122533E4F79016A
:103C80008823A9F1C9010E94D376F801808181506F
:103C90008083BE01FDE88F9F600D711D112462516C
:103CA0007E4F21E041E0CE010E94F119F8018081B0
:103CB000FE0124E0829FE00DF11D1124E651FE4F2C
:103CC0004081518162817381FE01ED57FD4F408338
:103CD000518362837383C7010E94ED75CE01DF912A
:103CE000CF911F910F91FF90EF900C943D16C90159
:103CF0000E94D3761A828EE193E00E94E22880919E
:103D0000A80F8823F9F01092A80FC0911A06D0E0EE
:103D1000CC0FDD1FCF50DD4E68817981882777FD7C
:103D20008095982F0E947DD52091510230915202AA
:103D300040915302509154020E94DED6181614F49A
:103D400019821882DF91CF911F910F91FF90EF9010
:103D50000895AF92BF92CF92DF92EF92FF920F93AE
:103D60001F93CF93DF93CDB7DEB7E0970FB6F894EC
:103D7000DEBF0FBECDBF80E1EAEBF2E0DE0191963F
:103D800001900D928A95E1F780E1EAECF2E0DE0124
:103D9000519601900D928A95E1F780E1EAEDF2E00B
:103DA000DE01119601900D928A95E1F76E0181E294
:103DB000C80ED11C99EEE92E9FE0F92E8E010F5E00
:103DC0001F4F69EF7FE0AE014F5F5F4F29EDA22EDD
:103DD0002FE0B22E20E030E0F60181919191A19187
:103DE000B1916F01F70181939193A193B1937F01F9
:103DF000F80181919191A191B1918F01FB01819382
:103E00009193A193B193BF01FA0181919191A191F5
:103E1000B191AF01F50181939193A193B1935F01AA
:103E20002F5F3F4F24303105B9F60E94AB6F80E021
:103E300090E8ABE3B5E48093D10F9093D20FA093B9
:103E4000D30FB093D40F8093CD0F9093CE0FA09348
:103E5000CF0FB093D00F8093C90F9093CA0FA09348
:103E6000CB0FB093CC0F1092D50F1092D60F1092AB
:103E7000D70F1092D80F80E29EE4A0E0B0E08093CC
:103E8000091090930A10A0930B10B0930C1010928D
:103E9000B90F1092BA0F1092BB0F1092BC0F80E0B6
:103EA00090E0A0EAB1E48093C50F9093C60FA09371
:103EB000C70FB093C80F8DEC9CECACECBEE38093C5
:103EC000C10F9093C20FA093C30FB093C40F80E0B3
:103ED00090E0A0EAB0E48093BD0F9093BE0FA09352
:103EE000BF0FB093C00F10922F06109230061092A1
:103EF00031061092320610922B0610922C06109268
:103F00002D0610922E061092270610922806109267
:103F1000290610922A061092850A84EB90E090936D
:103F20005D1380935C1386E490E090935B13809321
:103F30005A138FEF90E0909359138093581320EF0A
:103F400030E0309357132093561324E630E030933B
:103F500055132093541390935313809352138AE96B
:103F600099E9A1EBB1E48093750290937602A09356
:103F70007702B093780261E77DE38AE89FE30E94CD
:103F80005F956093710270937202809373029093B5
:103F9000740260E070E084EE92E40E946D9560939C
:103FA0006D0270936E0280936F029093700280E0B6
:103FB00090E0A0E8BFE38093690290936A02A09327
:103FC0006B02B0936C020E94908A1092330680E0DC
:103FD00090E0A0E4B0E48093290290932A02A09399
:103FE0002B02B0932C0280932D0290932E02A0936B
:103FF0002F02B09330020E947B52EAE1F1E18491FA
:10400000882341F09091C00095FFFCCF8093C600BB
:104010003196F5CFE6E9F7E08491882341F090915D
:10402000C00095FFFCCF8093C6003196F5CF8091FC
:10403000C00085FFFCCF8AE08093C600E0960FB6F3
:10404000F894DEBF0FBECDBFDF91CF911F910F91CE
:10405000FF90EF90DF90CF90BF90AF9008956F9258
:104060007F928F929F92AF92BF92CF92DF92EF9208
:10407000FF920F931F93CF93DF93782E882389F1BC
:104080004091E90F5091EA0F6091EB0F7091EC0FA6
:104090008EE797E00E94F4274091ED0F5091EE0FCC
:1040A0006091EF0F7091F00F8BE797E00E94F4277B
:1040B0004091F10F5091F20F6091F30F7091F40F56
:1040C00088E797E00E94F4274091F50F5091F60F92
:1040D0006091F70F7091F80F85E797E00E94F42741
:1040E0002FC0EAE1F1E18491882341F09091C00072
:1040F00095FFFCCF8093C6003196F5CFE6E8F7E058
:104100008491882341F09091C00095FFFCCF80936B
:10411000C6003196F5CF8091C00085FFFCCF8AE0C4
:104120008093C600EAE1F1E18491882309F4A8CFE5
:104130009091C00095FFFCCF8093C6003196F4CFDC
:104140008091C00085FFFCCF8AE08093C600772075
:1041500089F14091F90F5091FA0F6091FB0F709126
:10416000FC0F82E597E00E94F4274091FD0F5091EB
:10417000FE0F6091FF0F709100108FE497E00E9496
:10418000F42740910110509102106091031070913A
:1041900004108CE497E00E94F427409105105091A0
:1041A0000610609107107091081089E497E00E9452
:1041B000F4272FC0EAE1F1E18491882341F0909146
:1041C000C00095FFFCCF8093C6003196F5CFEBE59C
:1041D000F7E08491882341F09091C00095FFFCCFD7
:1041E0008093C6003196F5CF8091C00085FFFCCF4B
:1041F0008AE08093C600EAE1F1E18491882309F422
:10420000A8CF9091C00095FFFCCF8093C600319657
:10421000F4CF8091C00085FFFCCF8AE08093C60078
:10422000772089F14091D90F5091DA0F6091DB0F1F
:104230007091DC0F82E297E00E9406284091DD0F2A
:104240005091DE0F6091DF0F7091E00F8FE197E0EA
:104250000E9406284091E10F5091E20F6091E30F18
:104260007091E40F8CE197E00E9406284091E50FE1
:104270005091E60F6091E70F7091E80F89E197E0A8
:104280000E9406282FC0EAE1F1E18491882341F0E1
:104290009091C00095FFFCCF8093C6003196F5CF7A
:1042A000EBE2F7E08491882341F09091C00095FF04
:1042B000FCCF8093C6003196F5CF8091C00085FF7A
:1042C000FCCF8AE08093C600EAE1F1E18491882383
:1042D00009F4A8CF9091C00095FFFCCF8093C60051
:1042E0003196F4CF8091C00085FFFCCF8AE08093A7
:1042F000C600772029F14091D10F5091D20F6091E3
:10430000D30F7091D40F8EED96E00E94F427409168
:10431000CD0F5091CE0F6091CF0F7091D00F8BEDDC
:1043200096E00E94F4274091C90F5091CA0F609106
:10433000CB0F7091CC0F88ED96E00E94F4272FC030
:10434000EAE1F1E18491882341F09091C00095FF6A
:10435000FCCF8093C6003196F5CFE7EEF6E084916E
:10436000882341F09091C00095FFFCCF8093C60058
:104370003196F5CF8091C00085FFFCCF8AE0809315
:10438000C600EAE1F1E18491882309F4B4CF909169
:10439000C00095FFFCCF8093C6003196F4CF80918A
:1043A000C00085FFFCCF8AE08093C600772009F427
:1043B00049C04091D50F5091D60F6091D70F7091A1
:1043C000D80F8CE196E00E94F4274091B90F5091EC
:1043D000BA0F6091BB0F7091BC0F89E196E00E940B
:1043E000F4274091091050910A1060910B107091C0
:1043F0000C1086E196E00E9406284091C50F50916E
:10440000C60F6091C70F7091C80F83E196E00E94BC
:10441000F4274091C10F5091C20F6091C30F70916A
:10442000C40F80E196E00E94F4274091BD0F5091A7
:10443000BE0F6091BF0F7091C00F8DE096E00E949B
:10444000F4272FC0EAE1F1E18491882341F09091B3
:10445000C00095FFFCCF8093C6003196F5CFE5E212
:10446000F6E08491882341F09091C00095FFFCCF45
:104470008093C6003196F5CF8091C00085FFFCCFB8
:104480008AE08093C600EAE1F1E18491882309F48F
:1044900090CF9091C00095FFFCCF8093C6003196DD
:1044A000F4CF8091C00085FFFCCF8AE08093C600E6
:1044B000772029F14091270650912806609129061E
:1044C00070912A0682EF95E00E94F42740912B0616
:1044D00050912C0660912D0670912E068FEE95E07E
:1044E0000E94F42740912F065091300660913106CA
:1044F000709132068CEE95E00E94F4272FC0EAE11D
:10450000F1E18491882341F09091C00095FFFCCFA8
:104510008093C6003196F5CFEBEFF5E084918823C8
:1045200041F09091C00095FFFCCF8093C60031967A
:10453000F5CF8091C00085FFFCCF8AE08093C60054
:10454000EAE1F1E18491882309F4B4CF9091C000AD
:1045500095FFFCCF8093C6003196F4CF8091C000C8
:1045600085FFFCCF8AE08093C6007720D1F0409190
:10457000850A50E060E070E080ED95E00E9406283A
:1045800043E050E060E070E08DEC95E00E9406288A
:1045900043E050E060E070E08AEC95E00E9406287D
:1045A00021C0E9EDF5E08491882341F09091C000AD
:1045B00095FFFCCF8093C6003196F5CF8091C00067
:1045C00085FFFCCF8AE08093C600EAE1F1E18491A7
:1045D000882369F29091C00095FFFCCF8093C600BC
:1045E0003196F5CF8091C00085FFFCCF8AE08093A3
:1045F000C60035E8832E3AE0932ECAE0D0E04AE0C8
:10460000642EA12CB12C0AE010E06E01EE24D7FC40
:10461000E094FE2C772019F1B801882777FD80956A
:10462000982F0E947DD5AB01BC0181EC95E00E94E2
:10463000F427C701B6010E947DD5AB01BC018EEB0A
:1046400095E00E94F427F401EA0DFB1D418152819F
:10465000638174818BEB95E00E94F4270DC0EAE141
:10466000F1E184918823C1F29091C00095FFFCCFC5
:104670008093C6003196F5CF8091C00085FFFCCFB6
:104680006092C600005B1F4F84E0A80EB11C0A3F79
:10469000110509F0BFCFCD58DF4F8CE0880E911C7B
:1046A000C33681E0D80709F0ACCF772029F14091DB
:1046B0005C1350915D13662757FD6095762F83E953
:1046C00095E00E94062840915A1350915B1366278B
:1046D00057FD6095762F80E995E00E94062840916D
:1046E000581350915913662757FD6095762F8DE822
:1046F00095E00E9406282FC0EAE1F1E18491882329
:1047000041F09091C00095FFFCCF8093C600319698
:10471000F5CFEFE9F5E08491882341F09091C00056
:1047200095FFFCCF8093C6003196F5CF8091C000F5
:1047300085FFFCCF8AE08093C600EAE1F1E1849135
:10474000882309F4B4CF9091C00095FFFCCF8093EB
:10475000C6003196F4CF8091C00085FFFCCF8AE07F
:104760008093C600772029F140915613509157133A
:10477000662757FD6095762F81E895E00E94062810
:104780004091541350915513662757FD6095762F2D
:104790008EE795E00E9406284091521350915313E2
:1047A000662757FD6095762F8BE795E00E940628D7
:1047B0000DC0EAE1F1E184918823B1F29091C0004B
:1047C00095FFFCCF8093C6003196F5CF8091C00055
:1047D00085FFFCCF8AE08093C600711024C0EAE117
:1047E000F1E18491882341F09091C00095FFFCCFC6
:1047F0008093C6003196F5CFEDE6F5E084918823ED
:1048000041F09091C00095FFFCCF8093C600319697
:10481000F5CF8091C00085FFFCCF8AE08093C60071
:10482000EAE1F1E15CC0C12CD12C7601CAE0B7010C
:10483000A60184E695E00E940628409175025091F9
:104840007602609177027091780281E695E00E948D
:10485000F4276091710270917202809173029091BD
:1048600074020E946695AB01BC018EE595E00E9442
:10487000F42760916D0270916E0280916F029091A9
:1048800070020E947495AB01BC018BE595E00E941B
:10489000F4274091690250916A0260916B02709115
:1048A0006C0288E595E00E94F4278091C00085FFA6
:1048B000FCCFC093C6008FEFC81AD80AE80AF80ADE
:1048C00082E0C816D104E104F10409F0B0CF49C078
:1048D0009091C00095FFFCCF8093C60031968491E3
:1048E0008111F6CF40917502509176026091770266
:1048F000709178028FE495E00E94F4276091710234
:104900007091720280917302909174020E94669578
:10491000AB01BC018CE495E00E94F42760916D022C
:1049200070916E0280916F02909170020E94749556
:10493000AB01BC0189E495E00E94F4274091690233
:1049400050916A0260916B0270916C0286E495E06E
:104950000E94F4278091C00085FFFCCF8AE08093FD
:10496000C60080913306882309F465C0772069F07A
:104970004091290250912A0260912B0270912C02E1
:104980008AE295E00E94F4272EC0EAE1F1E18491E9
:10499000882341F09091C00095FFFCCF8093C60022
:1049A0003196F5CFE3E3F5E08491882341F09091CF
:1049B000C00095FFFCCF8093C6003196F5CF809163
:1049C000C00085FFFCCF8AE08093C600EAE1F1E1F8
:1049D0008491882369F29091C00095FFFCCF809369
:1049E000C6003196F5CF8091C00085FFFCCF8AE0EC
:1049F0008093C600772069F040912D0250912E02DD
:104A000060912F02709130028EE195E00E94F427B0
:104A10000DC0EAE1F1E18491882371F39091C00027
:104A200095FFFCCF8093C6003196F5CF8091C000F2
:104A300085FFFCCF20C0711021C0EAE1F1E1849133
:104A4000882341F09091C00095FFFCCF8093C60071
:104A50003196F5CFE2E0F5E08491882341F0909122
:104A6000C00095FFFCCF8093C6003196F5CF8091B2
:104A7000C00085FFFCCF8AE08093C600DF91CF9114
:104A80001F910F91FF90EF90DF90CF90BF90AF906C
:104A90009F908F907F906F9008951F920F920FB606
:104AA0000F9211240BB60F922F933F934F935F9366
:104AB0006F938F939F93EF93FF936091C600209124
:104AC000D7053091D805C90101968F779927409174
:104AD000D9055091DA058417950741F0F901E95A93
:104AE000FA4F60839093D8058093D705FF91EF919B
:104AF0009F918F916F915F914F913F912F910F9067
:104B00000BBE0F900FBE0F901F9018959A01AB012E
:104B1000211581EE38074105510549F182E0809366
:104B2000C00060E079E08DE390E00E94D0D8215091
:104B3000310941095109CA01B90122E030E040E0E0
:104B400050E00E94D0D83093C5002093C4008091DB
:104B5000C10080618093C1008091C1008860809312
:104B6000C1008091C10080688093C10008951092B7
:104B7000C00020E130E0E7CF2091D9053091DA057F
:104B80008091D7059091D8058217930771F0F901AC
:104B9000E95AFA4F80812F5F3F4F2F7733273093A9
:104BA000DA052093D90590E008958FEF9FEF0895DF
:104BB0008091D9059091DA059093D8058093D70517
:104BC00008954F925F926F927F928F929F92AF92D1
:104BD000BF92CF92DF92EF92FF920F931F93CF93EA
:104BE000DF93CDB7DEB7A0970FB6F894DEBF0FBE48
:104BF000CDBF5C014115510561057105F1F420E05F
:104C000030E040E350E060E070E0A0960FB6F8942A
:104C1000DEBF0FBECDBFDF91CF911F910F91FF90EF
:104C2000EF90DF90CF90BF90AF909F908F907F904C
:104C30006F905F904F900C9479268E010F5F1F4FFD
:104C4000C12CD12C76014801422E512C612C712CA3
:104C50008FEFC81AD80AE80AF80ACB01BA01A301F3
:104C600092010E94AED8CA01F80161938F01A90197
:104C7000BC01411551056105710551F7F1E0CF1AED
:104C8000D108E108F108F401EC0DFD1D80818A30A6
:104C900010F440E301C047E3480F552747FD509506
:104CA000652F752F20E030E0C5010E94792681E054
:104CB000C81AD108E108F108EFEFCE16DE06EE06BD
:104CC000FE0609F7A0960FB6F894DEBF0FBECDBF63
:104CD000DF91CF911F910F91FF90EF90DF90CF90D8
:104CE000BF90AF909F908F907F906F905F904F900C
:104CF00008952115310539F48091C00085FFFCCF5E
:104D00004093C60008952A30310511F40C94A8266A
:104D10000C94E125CF93DF93EC0120E030E04DE0EF
:104D200050E060E070E00E94792620E030E04AE048
:104D300050E060E070E0CE01DF91CF910C947926D5
:104D40009A01AB01662757FD6095762F0C94792662
:104D5000CF92DF92EF92FF92CF93DF93EC016A0143
:104D60007B0177FF10C020E030E04DE250E060E0D2
:104D700070E00E947926F094E094D094C094C11C15
:104D8000D11CE11CF11C2AE0B701A601CE01DF9184
:104D9000CF91FF90EF90DF90CF900C94E1252115FB
:104DA000310539F48091C00085FFFCCF4093C600E7
:104DB00008950C94E1259A01462F50E060E070E0E0
:104DC0000C94CF26CF93DF93EC019A01AB0160E006
:104DD00070E00E94CF26CE01DF91CF910C948A26FD
:104DE0008F929F92AF92BF92CF92DF92EF92FF92FB
:104DF0001F93CF93DF93EC016A017B01122F20E018
:104E000030E0A901C701B6010E94DBD487FF0DC0C5
:104E100020E030E04DE250E060E070E0CE010E9422
:104E20007926F7FAF094F7F8F094B12C60E070E08E
:104E300080E09FE3B11641F020E030E040E251E431
:104E40000E94E2D4B394F6CF9B01AC01C701B60136
:104E50000E9402D46B017C010E944FD54B015C0182
:104E60000E947BD59B01AC01C701B6010E9401D411
:104E70006B017C012AE0B501A401CE010E94E1256D
:104E8000112349F020E030E04EE250E060E070E0B5
:104E9000CE010E947926112321F120E030E040E28A
:104EA00051E4C701B6010E94B0D76B017C010E949A
:104EB0004AD54B01AA2497FCA094BA2CB501A401B1
:104EC000CE010E94A826C501B4010E947DD59B0198
:104ED000AC01C701B6010E9401D46B017C011150E5
:104EE000DACFDF91CF911F91FF90EF90DF90CF90BD
:104EF000BF90AF909F908F9008950C94F026FC0186
:104F000065917591859194910895CF92DF92EF927A
:104F1000FF921F93CF93DF936B017C01C1E0D0E040
:104F200010E51C9FB0011D9F700D1124665F7F4F1F
:104F3000882777FD8095982F0E947DD59B01AC0135
:104F4000C701B6010E94DED6181624F4219761F03D
:104F5000C2E0D0E0CE010197DF91CF911F91FF9089
:104F6000EF90DF90CF900895C2E0D0E0DACFCF92FB
:104F7000DF92EF92FF921F93CF93DF936B017C013F
:104F8000C1E0D0E013E71C9FB0011D9F700D1124FC
:104F9000665F7F4F882777FD8095982F0E947DD58B
:104FA0009B01AC01C701B6010E94DED6181624F49D
:104FB000219761F0C2E0D0E0CE010197DF91CF915F
:104FC0001F91FF90EF90DF90CF900895C2E0D0E066
:104FD000DACF0E9492CD6093FE057093FF05809317
:104FE0000006909301060895FC012491222341F0CC
:104FF0003091C00035FFFCCF2093C6000196F4CF5E
:1050000022E030E086E595E00C947D27FC012491B8
:10501000222341F03091C00035FFFCCF2093C60021
:105020000196F4CF2AE030E086E595E00C94CF2697
:10503000CF93DF93FC0120812B3309F467C02091CB
:10504000BA073091BB07243031050CF05FC02091C6
:10505000BC073091BD0740E6429FE001439FD00D61
:105060001124C65CD94FBC01CE010E9460DCEAE18C
:10507000F1E18491882341F09091C00095FFFCCF2D
:105080008093C6003196F5CFEEECF0E18491882351
:1050900071F09091C00095FFFCCF8093C6003196CF
:1050A000F5CF9091C00095FFFCCF8093C600899109
:1050B0008111F7CFECECF0E18491882341F09091DD
:1050C000C00095FFFCCF8093C6003196F5CF80914C
:1050D000C00085FFFCCF8AE08093C6008091BC07AA
:1050E0009091BD07019664E070E00E949AD8909379
:1050F000BD078093BC078091BA079091BB070196CA
:105100009093BB078093BA0781E001C080E0DF91F4
:10511000CF910895DF92EF92FF920F931F93CF9359
:10512000DF93CDB7DEB76E970FB6F894DEBF0FBE34
:10513000CDBF609102067091030661157105A1F063
:105140004DE150E08E010F5F1F4FC8010E94EFDB61
:105150001E8EF8017F01E01AF10AD190DD2031F0B6
:105160008AE0D812F7CF02C080E01EC0F801EE0D31
:10517000FF1D1082C8010E9418288823A1F0DD209D
:1051800071F08FEFE81AF80A8091020690910306F9
:105190008E0D9F1D909303068093020604C010920B
:1051A00003061092020681E06E960FB6F894DEBFF9
:1051B0000FBECDBFDF91CF911F910F91FF90EF9068
:1051C000DF90089590930306809302060C948A283A
:1051D000269A2E9808950E94E82840E05BE460E05B
:1051E00070E086E595E00E948625E6ECF0E184918A
:1051F000882341F09091C00095FFFCCF8093C600BA
:105200003196F5CF8091C00085FFFCCF8AE0809376
:10521000C600EAE1F1E18491882341F09091C00059
:1052200095FFFCCF8093C6003196F5CF84B780FF01
:1052300014C0EEEBF0E19491992341F02091C0006D
:1052400025FFFCCF9093C6003196F5CF9091C0001A
:1052500095FFFCCF9AE09093C60081FF14C0EEEA60
:10526000F0E19491992341F02091C00025FFFCCFFB
:105270009093C6003196F5CF9091C00095FFFCCF7A
:105280009AE09093C60082FF14C0EDE9F0E194919A
:10529000992341F02091C00025FFFCCF9093C600D8
:1052A0003196F5CF9091C00095FFFCCF9AE0909396
:1052B000C60083FF14C0EDE8F0E19491992341F01A
:1052C0002091C00025FFFCCF9093C6003196F5CF0A
:1052D0009091C00095FFFCCF9AE09093C60085FFA7
:1052E00014C0EDE7F0E18491882341F09091C00073
:1052F00095FFFCCF8093C6003196F5CF8091C0001A
:1053000085FFFCCF8AE08093C60014BEE6E7F0E19B
:105310008491882341F09091C00095FFFCCF809349
:10532000C6003196F5CFEBE6F0E18491882341F099
:105330009091C00095FFFCCF8093C6003196F5CFC9
:105340008091C00085FFFCCF8AE08093C600EAE12F
:10535000F1E18491882341F09091C00095FFFCCF4A
:105360008093C6003196F5CFEBE5F0E18491882378
:1053700041F09091C00095FFFCCF8093C60031961C
:10538000F5CFE6E4F0E18491882341F09091C000EC
:1053900095FFFCCF8093C6003196F5CFEAE3F0E1AC
:1053A0008491882341F09091C00095FFFCCF8093B9
:1053B000C6003196F5CFE6E3F0E18491882341F011
:1053C0009091C00095FFFCCF8093C6003196F5CF39
:1053D0008091C00085FFFCCF8AE08093C600EBE29D
:1053E000F0E18491882341F09091C00095FFFCCFBB
:1053F0008093C6003196F5CFEFE1F0E184918823E8
:1054000041F09091C00095FFFCCF8093C60031968B
:10541000F5CF8091C00085FFFCCF8AE08093C60065
:10542000EAE1F1E18491882341F09091C00095FF79
:10543000FCCF8093C6003196F5CFE0E1F0E1849196
:10544000882341F09091C00095FFFCCF8093C60067
:105450003196F5CF0E94797B4AE050E0BC0186E5A9
:1054600095E00E94A026E9EFFFE08491882341F0B7
:105470009091C00095FFFCCF8093C6003196F5CF88
:105480004AE050E060ED74E086E595E00E94A026D9
:105490008091C00085FFFCCF8AE08093C600109207
:1054A000DC051092DD051092DE051092DF050E94EA
:1054B000A91E80E00E942F200E94888D0E94CF614B
:1054C0000E94B8870E94C69A2FEF83ED90E3215087
:1054D00080409040E1F700C000000895E09104068C
:1054E000F091050621812D3211F02B3221F4228119
:1054F00082E090E002C081E090E02E3219F4E80FE3
:10550000F91F2181205381E02A3008F080E00895BE
:105510000F931F93CF93DF9300910406109105061C
:1055200065E470E0C8010E944CDCEC01C801019602
:10553000209761F0188260E070E00E9422D925E493
:105540002883DF91CF911F910F91089560E070E063
:10555000DF91CF911F910F910C9422D98091040675
:10556000909105064AE050E060E070E001960C94EE
:1055700093DA80910406909105064AE050E060E0DD
:1055800070E001960E9493DACB010895682F772787
:1055900067FD70952091BE073091BF0740E6429F9E
:1055A000C001439F900D1124865C994F0E944CDCF2
:1055B000909305068093040621E0892B09F420E0EE
:1055C000822F08950F931F93CF93DF9300D000D0C5
:1055D000CDB7DEB726E0EAEEF2E0DE0111960190EB
:1055E0000D922A95E1F7FC01EE0FFF1F21E030E05C
:1055F0002C0F3D1FE20FF31F608171818C01000FA2
:10560000111F000F111F16161706D4F4095C1D4F49
:10561000882777FD8095982F0E947DD59B01AC014E
:10562000F80160817181828193810E94E2D460934C
:105630004702709348028093490290934A0228C01F
:10564000F801E95CFD4F20E030E040E251E4608188
:105650007181828193810E94E2D4609347027093AA
:1056600048028093490290934A02E5E4F3E0819175
:10567000882339F09091C00095FFFCCF8093C6003D
:10568000F6CF8091C00085FFFCCF8AE08093C600F2
:1056900026960FB6F894DEBF0FBECDBFDF91CF9137
:1056A0001F910F9108958F929F92AF92BF92CF92C8
:1056B000DF92EF92FF920F931F9320E030E040E7DC
:1056C00052E46091470270914802809149029091A2
:1056D0004A020E94E2D44B015C01E090E707F0909F
:1056E000E8070091E9071091EA072091E30730915C
:1056F000E4074091E5075091E6076091DF0770915C
:10570000E0078091E1079091E207EAE1F6E0FF937C
:10571000EF93EBEECE2EE7E0DE2E0E9430630F908B
:105720000F901F910F91FF90EF90DF90CF90BF905F
:10573000AF909F908F9008954F925F926F927F925B
:105740008F929F92AF92BF92CF92DF92EF92FF9291
:105750000F931F932B013C0120E030E040E752E41F
:1057600060914702709148028091490290914A02EB
:105770000E94E2D44B015C012091E3073091E407E1
:105780004091E5075091E6076091DF077091E007CF
:105790008091E1079091E207EAE1F6E0FF93EF9351
:1057A000FBEECF2EF7E0DF2E830172010E94306303
:1057B0000F900F901F910F91FF90EF90DF90CF907F
:1057C000BF90AF909F908F907F906F905F904F9021
:1057D00008958F929F92AF92BF92CF92DF92EF92F5
:1057E000FF920F931F9320E030E040E752E4609176
:1057F0004702709148028091490290914A020E94AA
:10580000E2D44B015C01E090D707F090D8070091FB
:10581000D9071091DA072091D3073091D40740912E
:10582000D5075091D6076091CF077091D00780912E
:10583000D1079091D207EAE1F6E0FF93EF93ABED49
:10584000CA2EA7E0DA2E0E9430630F900F901F91AE
:105850000F91FF90EF90DF90CF90BF90AF909F900F
:105860008F900895CF92DF92EF92FF920F931F9344
:10587000E090E707F090E8070091E9071091EA0748
:105880002091E3073091E4074091E5075091E60746
:105890006091DF077091E0078091E1079091E20746
:1058A000BBEECB2EB7E0DB2E0E947C6E1F910F91DA
:1058B000FF90EF90DF90CF9008954F925F926F929C
:1058C0007F928F929F92AF92BF92CF92DF92EF9290
:1058D000FF920F931F93CF93DF935C01FC01E5527E
:1058E000FF4EF490EC01CC0FDD1FCC0FDD1F8E01BD
:1058F0000152184FF80110821182128213820E9405
:10590000322CCE0186519F4E0E947F272B013C01F5
:105910006F2D772767FD7095872F972F0E947DD574
:105920006B017C019E012153384F490120E030E09A
:1059300040EC5FE3C301B2010E94B0D7A70196011A
:105940000E94B0D7F4016083718382839383FE0148
:10595000E95CFD4F80819181A281B38180934702F0
:1059600090934802A0934902B0934A020E94E92B07
:105970000E941F88F80110821182128213820E94F5
:10598000322C80E00E94E6809E0122523F4E390177
:10599000C9010E947F279058A70196010E94B0D7A5
:1059A000F40160837183828393830E94E92B0E94B8
:1059B0001F8881E00E94E680C5010E94E22AC3019F
:1059C0000E947F279B01AC010E9402D4A70196018F
:1059D0000E94B0D7F40160837183828393830E9415
:1059E000E92B0E941F88CE018A509F4E0E947F277C
:1059F0009E01295D394F7901F90120813181428170
:105A000053810E9402D4F80160837183828393835F
:105A1000CE01825F9E4E0E947F279E01255E394FF8
:105A20006901F70120813181428153810E9402D4B2
:105A3000F6016083718382839383CE018E5F9E4ED5
:105A40000E947F27CB5EDD4FF701208131814281AB
:105A500053810E9402D4688379838A839B830E9446
:105A6000322CF80180819181A281B381F40180837D
:105A70009183A283B383109247021092480210923E
:105A8000490210924A020E944080F501E453F84F07
:105A900081E08083DF91CF911F910F91FF90EF9074
:105AA000DF90CF90BF90AF909F908F907F906F903E
:105AB0005F904F90089580E1EFECF7E0AFEDB7E035
:105AC00001900D928A95E1F7089580E1EFEDF7E0FE
:105AD000AFECB7E001900D928A95E1F708954F92EF
