:100000000C94A7110C94D8110C94D8110C94D811FD
:100010000C94D8110C94D8110C94D8110C94D811BC
:100020000C94D8110C94D8110C94D8110C94D811AC
:100030000C94D8110C945CD00C94D8110C94D81159
:100040000C94D8110C945E7F0C94D8110C94D81198
:100050000C94D8110C94D8110C94C5910C9404CA2A
:100060000C94D8110C94B7230C94D8110C94D8117B
:100070000C94D8110C94D8110C94D8110C94D8115C
:100080000C94D8110C94D8110C94D8110C94D8114C
:100090000C94D8110C94D8110C94D8110C94D3C88A
:1000A0000C94D8110C94D8110C94D8110C94D8112C
:1000B0000C94D8110C94D8110C94D8110C94D8111C
:1000C0000C94D8110C94D8110C94D8110C94D8110C
:1000D0000C94D8110C94D8110C94D8110C94D811FC
:1000E0000C94D8112F923F925E926E9289928E92CA
:1000F0009192969299929E92A192A692B09238CBAA
:100100003DCB42CB4CCB56CBCFCB60CB68CB70CB6F
:100110007ACB84CB8ECB9DCBA7CBCFCBB1CBBBCB7C
:10012000C5CBF1CBF4CBE3CBE7CBEDCB2BCCF8CBF2
:10013000FCCB02CC06CC0ACC10CC14CC18CC2BCCEB
:100140001ECC22CC26CC084AD73B3BCE016E84BCC9
:10015000BFFDC12F3D6C74319ABD56833DDA3D0021
:10016000C77F11BED9E4BB4C3E916BAAAABE00006A
:1001700000803F05A84CCDB2D44EB93836A9020C48
:1001800050B9918688083CA6AAAA2ABE0000008021
:100190003F000C947CBB0C94C1AC0C9458A50C94FF
:1001A000A6920C94B0A20C9454A80C943AC80C9447
:1001B0008A570C9439C80C94FCCB0C9415A60C945B
:1001C0002BCC0C9436BA0C948E920C9467C80C9479
:1001D00005C30C9440B40C94F4CB0C9433B70C943A
:1001E00038CB0C94C5CB0C9414CC0C9497A70C94DE
:1001F000D2A60C941E990C946E920C94A1920C941D
:100200002EB50C94CDAE0C943DCB0C94CFCB0C946E
:100210002AC80C9410CC0C9496920C9484CB0C9419
:10022000E59F0C9499920C94F0B80C9489B60C94B8
:1002300089920C9442B30C94BFA00C943F920C94FE
:10024000DFBE0C94E4A90C945A970C94B0920C94D1
:10025000E7CB0C9470CB0C949DCB0C94B5570C94BD
:10026000DAA90C9486570C9456CB0C944CCB0C9476
:1002700027510C941A6E0C9468CB0C94CBA00C9460
:1002800009C80C94819F0C948FC40C940ACC0C94D4
:1002900011A90C9417C80C9491920C94A6C80C94B4
:1002A0006DB60C94BBCB0C94EDCB0C9442CB0C9460
:1002B00002CC0C94E3CB0C947BB60C9420A30C944E
:1002C0001ECC0C9413A90C94C5A00C9418CC0C94BF
:1002D0002F920C947ACB0C94D4CC0C944BB00C94FD
:1002E000A7CB0C948ECB0C9406CC0C94B1CB0C9475
:1002F00060CB0C940FC80C9422CC0C94F1CB0C94D2
:10030000F8CB0C94A7A40C94FF790C949E920C94B7
:1003100044B20C9472970C945E920C9426CC4D3897
:100320003420582059205A20450043616E6E6F7466
:1003300020656E746572207375626469723A20007C
:100340004D3234004D3233202573006175746F25B2
:10035000692E67006572726F722077726974696EB8
:100360006720746F2066696C65004E6F742053447B
:10037000207072696E74696E6700534420707269F0
:100380006E74696E672062797465200044656C65DF
:1003900074696F6E206661696C65642C2046696CB7
:1003A000653A200046696C652064656C6574656417
:1003B0003A006F70656E206661696C65642C20463A
:1003C000696C653A200057726974696E6720746FB2
:1003D0002066696C653A20006F70656E2066616901
:1003E0006C65642C2046696C653A20006F70656E00
:1003F000206661696C65642C2046696C653A200052
:1004000046696C652073656C656374656400205390
:10041000697A653A200046696C65206F70656E6583
:10042000643A20006F70656E206661696C65642CAB
:100430002046696C653A20004E6F772066726573BE
:10044000682066696C653A20004E6F7720646F699A
:100450006E672066696C653A20002220706F730019
:100460002220706172656E743A2200535542524FD9
:100470005554494E452043414C4C20746172676588
:10048000743A2200747279696E6720746F20636118
:100490006C6C207375622D67636F64652066696C90
:1004A0006573207769746820746F6F206D616E7951
:1004B000206C6576656C732E204D4158206C6576F6
:1004C000656C2069733A0053442063617264206F45
:1004D0006B006F70656E526F6F74206661696C653A
:1004E0006400766F6C756D652E696E697420666147
:1004F000696C656400534420696E697420666169A3
:100500006C0048617264636F646564204465666171
:10051000756C742053657474696E6773204C6F61D9
:100520006465640020627974657329002073746FB8
:100530007265642073657474696E67732072657484
:100540007269657665642028002062797465732974
:100550000053657474696E67732053746F726564B9
:100560002028004572726F722077726974696E6715
:1005700020746F20454550524F4D210053544F5029
:100580005045442E20005072696E74657220737459
:100590006F707065642064756520746F2065727279
:1005A0006F72732E204669782074686520657272B8
:1005B0006F7220616E6420757365204D3939392062
:1005C000746F20726573746172742E202854656D87
:1005D00070657261747572652069732072657365E8
:1005E000742E2053657420697420616674657220CE
:1005F00072657374617274696E6729004B494C4C63
:1006000045442E20005072696E7465722068616CDA
:100610007465642E206B696C6C28292063616C6C96
:100620006564210020746F6F206C6F6E67206578A1
:1006300074727573696F6E2070726576656E74651D
:10064000640020636F6C6420657874727573696FE1
:100650006E2070726576656E746564006F6B005213
:100660006573656E643A20004D3330302053363563
:100670003920503230300A4D33303020533639383B
:100680002050323030004F666673657420617070A0
:100690006C6965642E004D33303020533430205067
:1006A000323030004572723A20546F6F20666172AA
:1006B0002100546F6F206661722066726F6D207228
:1006C00065666572656E636520706F696E74004D56
:1006D00065736820585920696E64657820697320B5
:1006E0006F7574206F6620626F756E6473004D3491
:1006F00032312072657175697265732058595A20BC
:10070000706172616D657465727300486F74656EB7
:1007100064206F6666736574733A00536574746918
:100720006E672054726176656C20416363656C6509
:10073000726174696F6E3A200053657474696E67F4
:10074000205265747261637420416363656C6572E5
:100750006174696F6E3A200053657474696E672026
:100760005072696E7420416363656C65726174696F
:100770006F6E3A200053657474696E672050726919
:100780006E7420616E642054726176656C204163E2
:1007900063656C65726174696F6E3A20004D313427
:1007A0003520533C696E6465783E206F7574206F08
:1007B000662072616E67652028302D3129007A5FCE
:1007C0006D696E3A2000795F6D696E3A2000785F3E
:1007D0006D696E3A2000205A3A0020593A002043B1
:1007E0006F756E7420583A200020453A00205A3A1E
:1007F0000020593A00583A004649524D5741524557
:100800005F4E414D453A4D61726C696E2056313BE9
:1008100020537072696E7465722F6772626C206DFE
:10082000617368757020666F722067656E3620464A
:1008300049524D574152455F55524C3A6874747055
:10084000733A2F2F6769746875622E636F6D2F4D31
:1008500061726C696E4669726D776172652F4D6168
:10086000726C696E2050524F544F434F4C5F564547
:100870005253494F4E3A312E30204D414348494E54
:10088000455F545950453A3344205072696E74653F
:10089000722045585452554445525F434F554E546B
:1008A0003A3220555549443A3030303030303030CB
:1008B0002D303030302D303030302D303030302D44
:1008C0003030303030303030303030300A00334467
:1008D000205072696E746572204F66662E00334434
:1008E000205072696E7465722072656164792E00A1
:1008F00042656420646F6E652E0020423A002045F8
:100900003A00543A004265642048656174696E6734
:100910002E0048656174696E6720646F6E652E00F5
:100920003F0020573A0020453A00543A004865619C
:1009300074696E672E2E2E002042403A0020403A05
:1009400000202F00205400202F0020423A00202FAA
:100950000020543A006F6B002569206D696E2C20D1
:1009600025692073656300456E642066696C6520A7
:100970006C69737400426567696E2066696C6520F6
:100980006C697374004E6F206D6F76652E00334472
:10099000205072696E7465722072656164792E00F0
:1009A000526573756D696E67207072696E74005759
:1009B00061697420666F7220757365722E2E2E0029
:1009C0005A206E6F7420656E74657265642E0A001D
:1009D00059206E6F7420656E74657265642E0A000E
:1009E00059206F7574206F662072616E67652028CC
:1009F000312D33292E0A0058206E6F7420656E74D5
:100A0000657265642E0A0058206F7574206F662029
:100A100072616E67652028312D33292E0A00473216
:100A200038004D6573682070726F62696E6720646C
:100A30006F6E652E005374617274206D657368204B
:100A400070726F62696E672077697468202247321E
:100A500039205331222066697273742E0047323870
:100A60000A473239205332004D657368206265644D
:100A7000206C6576656C696E67206E6F74206163AB
:100A8000746976652E002020000A4D6561737572C9
:100A9000656420706F696E74733A000A5A2073653A
:100AA00061726368206865696768743A20004E75F2
:100AB0006D20582C593A200053206F7574206F66B2
:100AC0002072616E67652028302D33292E00486F13
:100AD0006D6520582F59206265666F7265205A0037
:100AE000486F6D6520582F59206265666F726520CA
:100AF0005A005A2070726F6265206F75742E2062E2
:100B00006564005A2070726F6265206F75742E20C4
:100B1000626564005A206E6F7420656E746572653C
:100B2000642E0A0059206E6F7420656E74657265BC
:100B3000642E0A0059206F7574206F662072616EF2
:100B400067652028312D33292E0A0058206E6F74D6
:100B500020656E74657265642E0A0058206F757486
:100B6000206F662072616E67652028312D33292E33
:100B70000A004D657368204C6576656C696E672068
:100B8000696E666F726D6174696F6E2064656C6505
:100B90007465642E004D35303000473939205330AC
:100BA0000A4D3530300A473238004D657368207081
:100BB000726F62696E6720646F6E652E0047393907
:100BC000205332005374617274206D657368207015
:100BD000726F62696E6720776974682022473239C4
:100BE000205331222066697273742E004732380A0E
:100BF000473939205332004D65736820626564209F
:100C00006C6576656C696E67206E6F7420616374C5
:100C10006976652E002020000A4D65617375726546
:100C20006420706F696E74733A000A5A20736561AC
:100C3000726368206865696768743A20004E756D54
:100C400020582C593A200053206F7574206F66206D
:100C500072616E67652028302D33292E00536C6534
:100C600065702E2E2E002200556E6B6E6F776E20F3
:100C7000636F6D6D616E643A2022007A2064657343
:100C8000743A00256920686F757273202569206D9C
:100C9000696E7574657300446F6E65207072696E5D
:100CA00074696E672066696C650053544F505045F7
:100CB000442E20005072696E7465722073746F70D8
:100CC0007065642064756520746F206572726F7240
:100CD000732E2046697820746865206572726F7281
:100CE00020616E6420757365204D39393920746F29
:100CF00020726573746172742E202854656D70655E
:100D00007261747572652069732072657365742EE3
:100D10002053657420697420616674657220726561
:100D20007374617274696E6729004E6F204C696E2E
:100D300065204E756D6265722077697468206368FE
:100D400065636B73756D2C204C617374204C696EF8
:100D5000653A20004E6F20436865636B73756D20A4
:100D600077697468206C696E65206E756D62657256
:100D70002C204C617374204C696E653A20006368C6
:100D800065636B73756D206D69736D617463682C39
:100D9000204C617374204C696E653A20004C696E7A
:100DA00065204E756D626572206973206E6F7420C8
:100DB0004C617374204C696E65204E756D6265726E
:100DC0002B312C204C617374204C696E653A2000E5
:100DD0004D313130006F6B00446F6E65207361766A
:100DE000696E672066696C652E004D3239002020DF
:100DF000506C616E6E65724275666665724279749A
:100E000065733A20002046726565204D656D6F72EE
:100E1000793A20004E6F762032332032303135005F
:100E2000436F6D70696C65643A2000466C6F0020FA
:100E30007C20417574686F723A20004E6F762032C4
:100E40003320323031352030383A33343A343800B8
:100E5000204C61737420557064617465643A20009D
:100E600020312E302E3320646576004D61726C691E
:100E70006E0020536F6674776172652052657365EA
:100E80007400205761746368646F672052657365EE
:100E900074002042726F776E206F757420526573F4
:100EA0006574002045787465726E616C20526573BC
:100EB000657400506F776572557000737461727459
:100EC000002200656E7175657565696E6720220088
:100ED000FFFFFF0000A0400000A040000000400015
:100EE00000204300008C4300005C43000000000031
:100EF000000000000000000000204300008C4300C0
:100F0000005C4300000000000000000000000065DD
:100F100063686F3A004572726F723A0020746F6FA7
:100F2000206C6F6E6720657874727573696F6E20C0
:100F300070726576656E7465640020636F6C642002
:100F4000657874727573696F6E2070726576656E00
:100F50007465640000002110422063308440A55075
:100F6000C660E770088129914AA16BB18CC1ADD1EF
:100F7000CEE1EFF13112100273325222B552944297
:100F8000F772D662399318837BB35AA3BDD39CC33F
:100F9000FFF3DEE36224433420040114E664C774E3
:100FA000A44485546AA54BB528850995EEE5CFF58F
:100FB000ACC58DD55336722611163006D776F66637
:100FC0009556B4465BB77AA719973887DFF7FEE7DF
:100FD0009DD7BCC7C448E5588668A7784008611803
:100FE00002282338CCC9EDD98EE9AFF9488969992F
:100FF0000AA92BB9F55AD44AB77A966A711A500AD7
:10100000333A122AFDDBDCCBBFFB9EEB799B588B7E
:101010003BBB1AABA66C877CE44CC55C222C033C22
:10102000600C411CAEED8FFDECCDCDDD2AAD0BBDCE
:10103000688D499D977EB66ED55EF44E133E322E76
:10104000511E700E9FFFBEEFDDDFFCCF1BBF3AAF1E
:10105000599F788F8891A981CAB1EBA10CD12DC17C
:101060004EF16FE18010A100C230E3200450254012
:1010700046706760B9839893FBA3DAB33DC31CD372
:101080007FE35EF3B1029012F322D2323542145262
:1010900077625672EAB5CBA5A89589856EF54FE5BE
:1010A0002CD50DC5E234C324A014810466744764B2
:1010B00024540544DBA7FAB79987B8975FE77EF712
:1010C0001DC73CD7D326F2369106B0165766767602
:1010D000154634564CD96DC90EF92FE9C899E989DE
:1010E0008AB9ABA94458654806782768C018E10852
:1010F0008238A3287DCB5CDB3FEB1EFBF98BD89BB2
:10110000BBAB9ABB754A545A376A167AF10AD01AA1
:10111000B32A923A2EFD0FED6CDD4DCDAABD8BADFD
:10112000E89DC98D267C076C645C454CA23C832CF1
:10113000E01CC10C1FEF3EFF5DCF7CDF9BAFBABF51
:10114000D98FF89F176E367E554E745E932EB23E41
:10115000D10EF01E7C3C3E5E2B3D3F2F5B5D3B2C59
:101160002A225C004D383420582059205A2045004E
:10117000656E6473746F7073206869743A205A00E6
:10118000205A3A00656E6473746F707320686974D6
:101190003A20590020593A00656E6473746F707379
:1011A000206869743A20580020583A00656E6473CC
:1011B000746F7073206869743A200024F4D430503E
:1011C000C38E20C2A24017828B7011127A910D81BA
:1011D0006CD90AA861E108C7586607615143061E29
:1011E0004B5D05C145A7041A411104093D980371DF
:1011F0003931034036DB0265339102D4305402802A
:101200002E1D02632CEE01752AC501B028A0011025
:101210002781018F2564012B244B01E0223401AC8E
:10122000211F018D200D01801FFC00841EED009701
:101230001DDF00B81CD200E61BC600201BBC0064EA
:101240001AB200B219A8000A19A0006A189900D1B0
:1012500017910040178B00B516840031167E00B33D
:101260001579003A157300C7146F0058146A00EE20
:101270001366008813630025135E00C7125B006CC1
:1012800012570015125400C111510070114F002166
:10129000114B00D61049008D104700461044000243
:1012A000104200C00F4000800F3E00420F3C00067D
:1012B0000F3B00CB0E3800930E37005C0E35002735
:1012C0000E3400F30D3200C10D3100900D3000607E
:1012D0000D2E00320D2D00050D2C00D90C2B00AE6B
:1012E0000C2900850C29005C0C2700350C27000E0A
:1012F0000C2600E80B2400C40B2400A00B23007D67
:101300000B23005A0B2100390B2100180B2000F889
:101310000A1F00D90A1E00BB0A1E009D0A1D00807C
:101320000A1D00630A1C00470A1B002C0A1B00113F
:101330000A1A00F7091A00DD091900C4091900ABDF
:10134000091900920917007B091800630917004C5E
:1013500009160036091600200916000A091500F5BD
:10136000081500E0081400CC081400B8081400A404
:10137000081400900813007D0812006B0813005831
:101380000812004608120034081100230811001248
:1013900008110001081100F0071000E0071000D04C
:1013A000071000C0071000B0070F00A10710009140
:1013B000070E0083070F0074070F0065070E005724
:1013C000070E0049070E003B070D002E070E0020F8
:1013D000070D0013070D0006070D00F9060C00EDC0
:1013E000060D00E0060C00D4060C00C8060C00BC7C
:1013F000060C00B0060C00A4060B0099060C008D2C
:10140000060B0082060B0077060B006C060B0061D2
:10141000060A0057060B004C060A0042060A00386E
:10142000060A002E060A0024060A001A060A001000
:1014300006090007060A00FD050900F4050900EB8E
:10144000050900E2050900D9050900D0050900C712
:10145000050900BE050900B5050800AD050800A591
:101460000509009C050800940508008C0508008407
:101470000508007C050800740508006C0507006578
:101480000508005D050700560508004E05070047E2
:101490000507004005080038050700310507002A48
:1014A000050700230507001C050600160507000FA9
:1014B0000507000805060002050700FB040600F505
:1014C000040700EE040600E8040600E2040700DB5F
:1014D000040600D5040600CF040600C9040600C3B4
:1014E000040600BD040600B7040600B1040500AC04
:1014F000040600A6040600A00405009B040600954F
:10150000040500900406008A040500850405008097
:101510000406007A04050075040500700405006BDC
:1015200004050066040500610405005C040500571D
:10153000040500520405004D04050048040500435D
:101540000405003E0404003A04050035040500309B
:101550000404002C04050027040400230405001ED5
:101560000404001A04040016040500110404000D0C
:10157000040400090405000404040000040400FC41
:10158000030400F8030400F4030400F0030400EC77
:10159000030400E8030400E4030400E0030400DCA7
:1015A000030400D8030400D4030400D0030400CCD7
:1015B000030400C8030300C503030024F404D92076
:1015C0001BC40C5C0E9804C4095F0265077101F42A
:1015D00005F900FB04B30048048700C10369005803
:1015E00003550003034500BE023A00840231005354
:1015F000022A002902250004022000E4011C00C880
:10160000011900AF01170098011400840113007143
:101610000110006101100051010E0043010D003660
:10162000010B002B010B0020010B00150109000C20
:1016300001090003010800FB000800F3000800EBAB
:10164000000700E4000600DE000600D8000600D215
:10165000000600CC000500C7000500C2000500BD63
:10166000000400B9000400B5000400B1000400AD9E
:10167000000400A9000400A5000300A20003009FCD
:101680000004009B000300980003009500020093F3
:10169000000300900003008D0002008B000300880F
:1016A0000002008600020084000300810002007F27
:1016B0000002007D0002007B00020079000200773A
:1016C0000001007600020074000200720001007147
:1016D0000002006F0002006D0001006C0002006A51
:1016E000000100690002006700010066000100655A
:1016F000000100640002006200010061000100605E
:101700000001005F0002005D0001005C0001005B61
:101710000001005A00010059000100580001005763
:101720000001005600010055000100540001005363
:101730000000005300010052000100510001005060
:101740000001004F0001004E0000004E0001004D5E
:101750000001004C0001004B0000004B0001004A5A
:101760000001004900010048000000480001004756
:101770000001004600000046000100450000004551
:10178000000100440001004300000043000100424A
:101790000000004200010041000000410001004043
:1017A0000001003F0000003F0001003E0000003E3D
:1017B0000001003D0000003D0001003C0000003C35
:1017C0000000003C0001003B0000003B0001003A2B
:1017D0000000003A00010039000000390001003823
:1017E000000000380000003800010037000000371A
:1017F0000001003600000036000000360001003510
:101800000000003500000035000100340000003405
:1018100000000034000100330000003300000033FA
:1018200000010032000000320000003200010031EF
:1018300000000031000000310001003000000030E5
:10184000000000300001002F0000002F0000002FDA
:101850000000002F0001002E0000002E0000002ECE
:101860000001002D0000002D0000002D0000002DC3
:101870000001002C0000002C0000002C0000002CB7
:101880000001002B0000002B0000002B0000002BAB
:101890000001002A0000002A0000002A0000002A9F
:1018A0000001002900000029000000290000002993
:1018B0000000002900010028000000280000002886
:1018C0000000002800000028000100270000002779
:1018D000000000270000002700000027000100266C
:1018E0000000002600000026000000260000002660
:1018F0000001002500000025000000250000002553
:101900000000002500000025000100240000002444
:101910000000002400000024000000240001002337
:10192000000000230000002300000023000000232B
:10193000000000230000002300010022000000221C
:10194000000000220000002200000022000000220F
:101950000001002100000021000000210000002102
:1019600000000021000000210000002100010020F3
:1019700000000020000000200000002000000020E7
:101980000000002000000020000000200001001FD7
:101990000000001F0000001F0000001F0000001FCB
:1019A0000000001F0000001F0001001E0000001EBC
:1019B0000000001E0000001E000000486561746504
:1019C0006420626564207377697463686564206F5E
:1019D00066662E204D415854454D502074726967FB
:1019E0006765726564202121004572723A204D417D
:1019F0005854454D5020424544003A204578747271
:101A000075646572207377697463686564206F66B6
:101A1000662E204D494E54454D50207472696767BB
:101A2000657265642021004572723A204D494E541A
:101A3000454D50003A204578747275646572207384
:101A400077697463686564206F66662E204D41581F
:101A500054454D5020747269676765726564202132
:101A600021004572723A204D415854454D50004B6B
:101A700064200023646566696E6520204445464104
:101A8000554C545F004B69200023646566696E65A0
:101A9000202044454641554C545F004B70200023A4
:101AA000646566696E65202044454641554C545F27
:101AB00000504944204175746F74756E65206669E5
:101AC0006E697368656421205075742074686520A0
:101AD0006C617374204B702C204B6920616E642004
:101AE0004B6420636F6E7374616E74732066726FE3
:101AF0006D2062656C6F7720696E746F20436F6E26
:101B000066696775726174696F6E2E68005049442A
:101B1000204175746F74756E65206661696C6564CB
:101B2000212074696D656F75740020403A006F6BF9
:101B300020543A006F6B20423A00504944204175CE
:101B4000746F74756E65206661696C6564212054DC
:101B5000656D706572617475726520746F6F206851
:101B600069676800204B643A2000204B693A2000E6
:101B7000204B703A200020436C61737369632050DE
:101B8000494420002054753A2000204B753A20002B
:101B9000206D61783A2000206D696E3A2000206443
:101BA0003A200020626961733A200010005E01C093
:101BB00001FA00F001F5003002F0007002EB00A025
:101BC00002E600C002E1001003DC005003D700E091
:101BD00003D2007004CD00E004C800E005BE006040
:101BE00006B9004007AA00F008A000700B9600F0AC
:101BF0000D8C00E0108200E0137800F0176E00D02A
:101C0000196900701B6400401E5F0010205A00F02C
:101C100025500080294600D0303C00A0323700100B
:101C200035320020392D0020392800703A2300A0D9
:101C30003B1E00A03C1900203D1600003F0300F0B1
:101C40003F0000473238004D343238002D2D3A2DF8
:101C50002D002D2D2D0053440001200001200001F6
:101C60002000466C6F77203000466C6F7720300084
:101C7000466C6F7700466C6F770046616E2073701C
:101C80006565640046616E20737065656400426539
:101C90006400426564004E6F7A7A6C65004E6F7A1C
:101CA0007A6C650053706565640053706565640007
:101CB0004D61696E00473238005A0058595A004742
:101CC000323800580059005A0045787472756465BE
:101CD00072004578747275646572004D6F76652088
:101CE0005A004D6F76652059004D6F76652058007B
:101CF0004D6F76652061786973004D6F7665203091
:101D00002E316D6D004D6F766520316D6D004D6F1C
:101D100076652031306D6D005072657061726500BE
:101D20005072656865617420504C412042656400C2
:101D30005072656865617420504C4120416C6C00A4
:101D40005072656865617420504C412031005072BA
:101D5000657061726500507265686561742041420A
:101D60005320426564005072656865617420414289
:101D70005320416C6C00507265686561742041426B
:101D80005320310050726570617265004D3830002B
:101D900053776974636820706F776572206F6E0087
:101DA0004D38310053776974636820706F776572BE
:101DB000206F666600436F6F6C646F776E005072C1
:101DC00065686561742041425300507265686561C1
:101DD0007420504C41004D38340044697361626C8A
:101DE00065207374657070657273004D6F76652041
:101DF00061786973004C6576656C20626564005398
:101E0000657420686F6D65206F6666736574730016
:101E1000473238004175746F20686F6D65004D6101
:101E2000696E0053746F7265206D656D6F72790015
:101E300042656400426564004E6F7A7A6C65004EBC
:101E40006F7A7A6C650046616E2073706565640018
:101E500046616E2073706565640054656D706572CF
:101E600061747572650053746F7265206D656D6F76
:101E700072790042656400426564004E6F7A7A6C44
:101E800065004E6F7A7A6C650046616E20737065EE
:101E900065640046616E2073706565640054656D0D
:101EA0007065726174757265005072656865617401
:101EB0002041425320636F6E660050726568656111
:101EC0007420504C4120636F6E66005049442D438E
:101ED000005049442D43005049442D44005049448A
:101EE0002D44005049442D49005049442D4900508B
:101EF00049442D50005049442D5000200220466195
:101F000063740020022046616374002002204D614A
:101F100078002002204D6178002002204D696E007B
:101F20002002204D696E004175746F74656D7000FC
:101F30004F6666004F6E200046616E2073706565C7
:101F4000640046616E2073706565640042656400DC
:101F5000426564004E6F7A7A6C65004E6F7A7A6CD7
:101F60006500436F6E74726F6C00457374657073B7
:101F70002F6D6D004573746570732F6D6D005A730E
:101F8000746570732F6D6D005A73746570732F6D67
:101F90006D005973746570732F6D6D00597374659E
:101FA00070732F6D6D005873746570732F6D6D00B5
:101FB0005873746570732F6D6D00412D7472617666
:101FC000656C00412D74726176656C00412D7265FF
:101FD000747261637400412D726574726163740080
:101FE000416D6178206500416D6178206500416D2B
:101FF0006178207A00416D6178207A00416D6178C6
:10200000207900416D6178207900416D61782078F8
:1020100000416D61782078005654726176206D69B8
:102020006E005654726176206D696E00566D696E51
:1020300000566D696E00566D6178206500566D61C1
:1020400078206500566D6178207A00566D617820A1
:102050007A00566D6178207900566D61782079009C
:10206000566D6178207800566D617820780056654D
:102070002D6A65726B0056652D6A65726B00567A23
:102080002D6A65726B00567A2D6A65726B00567800
:10209000792D6A65726B005678792D6A65726B00CE
:1020A000416363656C00416363656C00436F6E74EC
:1020B000726F6C0046696C2E204469612E203200DC
:1020C00046696C2E204469612E20320046696C2ED0
:1020D000204469612E20310046696C2E20446961DC
:1020E0002E2031004520696E206D6D33004F6666ED
:1020F000004F6E2000436F6E74726F6C00526573F8
:10210000746F7265206661696C73616665004C6FFF
:102110006164206D656D6F72790053746F72652014
:102120006D656D6F72790046696C616D656E7400E6
:102130004D6F74696F6E0054656D70657261747572
:102140007265004D61696E004D3234004D323320AE
:10215000257300052E2E00045265667265736800B3
:102160004D61696E004D323100496E69742E205305
:10217000442063617264004E6F2053442063617297
:1021800064004D3231004368616E6765205344201E
:1021900063617264005072696E742066726F6D20A4
:1021A00053440053746F70207072696E74005265EE
:1021B00073756D65207072696E740050617573651A
:1021C000207072696E7400436F6E74726F6C005091
:1021D0007265706172650054756E6500496E666F58
:1021E0002073637265656E0000000A0B02090C0D16
:1021F0000E080703040100000000000000000000BA
:1022000000000000000000000000000000000000CE
:10221000000000001211100000000000000000008B
:1022200000000000000000000000000000000102AB
:1022300010202008081020401020408002010201D8
:102240000804020101020408102040808040201090
:1022500008040201800402018040201008040201E9
:102260000804020101020408102040800102040851
:10227000102040800505050507050808080802022A
:1022800002020A0A08080404040401010101010110
:1022900001010303030303030303040707070C0CF3
:1022A0000C0C0C0C0C0C02020202060606060606BA
:1022B00006060B0B0B0B0B0B0B0B00002000230077
:1022C000260029002C002F0032000001000003012D
:1022D0000601090100002200250028002B002E0025
:1022E0003100340002010000050108010B0100006B
:1022F0002100240027002A002D00300033000101B6
:102300000000040107010A01024E414E494E4954A2
:1023100059494E46CDCCCC3D0AD7233C17B7D138CE
:1023200077CC2B329595E6241FB14F0A000020414F
:102330000000C84200401C4620BCBE4CCA1B0E5ABE
:10234000AEC59D748657B557819FA6C88A5711247C
:102350001FBECFEFD1E2DEBFCDBF00E00CBF15E066
:10236000A0E0B2E0E6E7F8EB01E00BBF02C00790A7
:102370000D92AA35B107D9F724E1AAE5B5E001C06D
:102380001D92AC35B207E1F713E2CCE4D3E200E0F2
:1023900006C022970109FE010BBF0E94CBD5C434B1
:1023A000D10780E00807A9F70E94C5CC0C9429DC6E
:1023B0000C940000FC0114821782138212828EEBAF
:1023C00094E09183808308952EEB34E0FC01318307
:1023D00020832781222319F004960C9442750895D6
:1023E000CF92DF92EF92FF920F931F93CF93DF93E1
:1023F000EC018F960E94DA11CE01805B9F4F0E9404
:10240000DA117E012FE6E20EF11C87016E013BE539
:10241000C31A3EEFD30AC8010E94DA11015E1F4FB2
:102420000C151D05C1F7FE01E955FE4F89E18183B9
:1024300014823596178ACE0186539E4F0E94DA1178
:10244000FE01E558FD4F10821182128213823896E8
:1024500010821182128213821A821B8218821982C0
:10246000F80111821082FE01E751FE4F108286E3CF
:1024700091E0F7019C01119221503040E1F7FE01FB
:10248000E957FD4F81E080831EA61DA60E944ECA1B
:10249000C158DD4F68577C4E8F4F9F4F68837983BB
:1024A0008A839B83DF91CF911F910F91FF90EF90D3
:1024B000DF90CF900895FC0120E03EE2DB014C91DB
:1024C000403241F0283011F430833196DB014C91D9
:1024D000408331962F5F6F5F7F4F2B3079F71082EB
:1024E00008952F923F924F925F926F927F928F92B8
:1024F0009F92AF92BF92CF92DF92EF92FF920F9393
:102500001F93CF93DF93CDB7DEB7C858D1090FB66D
:10251000F894DEBF0FBECDBF8C016B017A0149017B
:10252000CA57DF4F1882C658D04084E0E80EF11C2D
:102530001801E2E12E0E311C3801F8E76F1AFDEFA9
:102540007F0A580186E7A81A8DEFB80A80E4482E62
:10255000512C4C0E5D1EE4E04E0E511CA101BE013B
:102560006F5F7F4FC7010E94A77318160CF033C12D
:102570002C85322F3871303139F4F301808191810B
:102580000197029708F08BC08981882309F423C141
:102590008E3221F3F80182898E3201F323FDDECFE2
:1025A00081E0303109F080E0F8018483811106C0B8
:1025B0008985873499F68A858E3781F298012B5F59
:1025C0003F4FBE016F5F7F4FC901C957DF4F28835F
:1025D000C758D040C857DF4F3883C858D0400E94F2
:1025E0005B12F30180819181C957DF4F2881C75861
:1025F000D040C857DF4F3881C858D0400097F1F419
:10260000F6018191882339F09091C00095FFFCCFAD
:102610008093C600F6CFF9018191882339F090911B
:10262000C00095FFFCCF8093C600F6CF8091C0001C
:1026300085FFFCCF8AE08093C60090CF8130910562
:1026400039F4F5018081918101969183808386CF51
:10265000029709F083CF8114910439F0B901C401C4
:102660000E94EAD8892B79F4B6C0CA57DF4FF881A7
:10267000C658D0402F2F30E0F50180819181281776
:10268000390709F4A8C0CA57DF4FF881C658D040AF
:10269000FF5FCA57DF4FF883C658D0405FCFBE01F7
:1026A0006F5F7F4FCE0187589F4F0E945B12A096AD
:1026B0001FAEA097F6018081811107C064E373E02B
:1026C000CE01815A9F4F0E94FDD8B601CE01815A9A
:1026D0009F4F0E94FDD8BE0167587F4FCE01815A9F
:1026E0009F4F0E94FDD864E373E0CE01815A9F4F53
:1026F0000E94FDD8CE01805C9F4F0E94DA1121E03C
:10270000AE0147585F4FB701C2010E944B7781115C
:1027100039C0F30180819181892BA1F5EFE0FFE0C1
:102720008491882341F09091C00095FFFCCF809365
:10273000C6003196F5CFE6E3F3E08191882339F0C6
:102740009091C00095FFFCCF8093C600F6CF80919A
:10275000C00085FFFCCF8AE08093C600FE01E758E9
:10276000FF4F8191882339F09091C00095FFFCCFF5
:102770008093C600F6CF8091C00085FFFCCF8AE031
:102780008093C6008BE1FE01EC5BFF4FDE01959666
:1027900001900D928A95E1F724968EAD9FAD249716
:1027A0009CA38BA38EEB94E09AA389A320E030E056
:1027B000AE014F5D5F4FBE01615A7F4FC8010E945D
:1027C0007112CE0181960E94E411CE01805C9F4F70
:1027D0000E94E411C3CEC857DF4F0FB6F894DEBF96
:1027E0000FBECDBFDF91CF911F910F91FF90EF9062
:1027F000DF90CF90BF90AF909F908F907F906F9021
:102800005F904F903F902F900895EF92FF920F931B
:102810001F93CF93DF93CDB7DEB76F970FB6F894C2
:10282000DEBF0FBECDBF8C01FC01E857FD4F11820A
:1028300010827C0183E3E80EF11C40E050E0BA0115
:10284000C7010E945C748BE1F701DE0115960190CF
:102850000D928A95E1F7F80181A992A99C838B8357
:102860008EEB94E09A83898320E030E0AE014F5FE5
:102870005F4F65ED74E0C8010E947112CE010196B0
:102880000E94E4116F960FB6F894DEBF0FBECDBF65
:10289000DF91CF911F910F91FF90EF9008952BE161
:1028A000FB013496DC01149601900D922A95E1F714
:1028B000FB0122813381FC01338322830895EF924F
:1028C000FF920F931F93CF93DF93EC011B828EA98E
:1028D000882321F0CE01C3960E9442757E0189E5CE
:1028E000E81A8EEFF80A45E360E0C7010E947C6FAA
:1028F00081111FC0EFE0FFE08491882341F09091A7
:10290000C00095FFFCCF8093C6003196F5CFE5EF70
:10291000F4E08491882341F09091C00095FFFCCFB2
:102920008093C6003196F5CF8091C00085FFFCCF23
:1029300076C08E0104551E4F41E0B701C8010E94C8
:10294000737D811126C040E0B701C8010E94737DEC
:1029500081111FC0E5E1FFE08491882341F090914F
:10296000C00095FFFCCF8093C6003196F5CFE2EE14
:10297000F4E08491882341F09091C00095FFFCCF52
:102980008093C6003196F5CF8091C00085FFFCCFC3
:1029900046C0B801CE01C3960E94477281111FC084
:1029A000E5E1FFE08491882341F09091C00095FF1C
:1029B000FCCF8093C6003196F5CFE2EDF4E0849130
:1029C000882341F09091C00095FFFCCF8093C60012
:1029D0003196F5CF8091C00085FFFCCF20C081E00B
:1029E0008B83EFE0FFE08491882341F09091C00059
:1029F00095FFFCCF8093C6003196F5CFE7ECF4E06D
:102A00008491882341F09091C00095FFFCCF809382
:102A1000C6003196F5CF8091C00085FFFCCF8AE0DB
:102A20008093C6008E01015D1F4FB801CE01805B0F
:102A30009F4F0E944F14C25BDF4F19830883DF91C1
:102A4000CF911F910F91FF90EF900895FC0112829A
:102A500013820895FC012381222311F021E02283B7
:102A60000895FC012281211112820895AF92BF9234
:102A7000CF92DF92EF92FF920F931F93CF93DF934A
:102A80001F92CDB7DEB78C018FE2FB0181935F010E
:102A9000D12C41E07801FBE5EF1AFEEFFF0A9FE140
:102AA000C92E2D2D30E0F70180819181281739073B
:102AB000D8F4C29EC001C39E900D11248D589F4F23
:102AC000B501800F911F49830E94EC71C5014981B6
:102AD0005C010196F5012081222321F04D3810F48C
:102AE0004F5FF6CFD394DDCF47FD11C0B501C801CC
:102AF00082539E4F0F90DF91CF911F910F91FF90C6
:102B0000EF90DF90CF90BF90AF900C94EC71F501F7
:102B100010820F90DF91CF911F910F91FF90EF9056
:102B2000DF90CF90BF90AF9008953F924F925F9209
:102B30006F927F928F929F92AF92BF92CF92DF92CD
:102B4000EF92FF920F931F93CF93DF93CDB7DEB732
:102B5000AC970FB6F894DEBF0FBECDBF7C015B0112
:102B6000FC018381882309F4EFC0C70182539E4F83
:102B70000E944275F7011282CE0101966C010E94FB
:102B8000DA1127019EE4490E511CC7018F96F2010C
:102B900091838083F50180818F3209F077C06FE2E5
:102BA00070E0C5010E9408D98C010F5F1F4F2AE019
:102BB000322E0115110509F46FC06FE270E0C801F3
:102BC0000E9408D94C01009709F467C0081719073B
:102BD00008F063C03C01601A710AA301B801CE017C
:102BE00080960E9431D9E0E2F0E0EC0FFD1FE60D87
:102BF000F71D1082FE01B0968191882339F09091E3
:102C0000C00095FFFCCF8093C600F6CF8091C00036
:102C100085FFFCCF3092C600F201608171816115A1
:102C2000710519F06C5F7F4F02C060E070E021E039
:102C3000AE01405E5F4FCE0105960E944B77811139
:102C40001EC0E2EBF3E08491882341F09091C00034
:102C500095FFFCCF8093C6003196F5CFFE01B0966C
:102C60008191882339F09091C00095FFFCCF80932B
:102C7000C600F6CF8091C00085FFFCCF5FC0F20197
:102C8000D182C08284010F5F1F4F93CFC701805B49
:102C90009F4FF201918380838501F20180819181B0
:102CA000009711F0049602C080E090E0B8010E9405
:102CB0002B78811103C0ECE8F3E02EC0E4EAF3E0E6
:102CC0008491882341F09091C00095FFFCCF8093C0
:102CD000C6003196F5CFF8018191882339F09091A3
:102CE000C00095FFFCCF8093C600F6CF8091C00056
:102CF00085FFFCCF8AE08093C600F701ED57FD4FBA
:102D000010821182128213821CC09091C00095FF24
:102D1000FCCF8093C600319684918111F6CFF801E3
:102D20008191882339F09091C00095FFFCCF80936A
:102D3000C600F6CF8091C00085FFFCCF8EE2809365
:102D4000C600C6010E94E411AC960FB6F894DEBF2F
:102D50000FBECDBFDF91CF911F910F91FF90EF90EC
:102D6000DF90CF90BF90AF909F908F907F906F90AB
:102D70005F904F903F900895CF93DF93EC018B814C
:102D8000811103C0EAE6F3E039C0EAE7F3E0849199
:102D9000882341F09091C00095FFFCCF8093C6003E
:102DA0003196F5CFFE01ED57FD4F40815181628193
:102DB00073812AE030E08AE595E00E943925809110
:102DC000C00085FFFCCF8FE28093C600C558DD4F61
:102DD000488159816A817B812AE030E08AE595E06B
:102DE0000E9439258091C00085FFFCCF0EC09091D4
:102DF000C00095FFFCCF8093C6003196849181116D
:102E0000F6CF8091C00085FFFCCF8AE08093C6009A
:102E1000DF91CF910895AF92BF92CF92DF92EF9260
:102E2000FF920F931F93CF93DF935C01EB01FB01A4
:102E300001900020E9F78F0101501109061B170BC3
:102E40006C01F2E3CF1AFEEFDF0AF60110826EE4A6
:102E500070E0CE010E9408D97C01009729F4F801A6
:102E60003197EC0FFD1F0DC060E270E00E9408D9A1
:102E7000EC0121966AE270E0C7010E9408D9FC01CA
:102E800031978DE081838AE082831382BE01C50180
:102E900086539E4F0E94117AF6018081882309F1A2
:102EA000E5E1FFE08491882341F09091C00095FF17
:102EB000FCCF8093C6003196F5CFE4E5F3E0849132
:102EC000882341F09091C00095FFFCCF8093C6000D
:102ED0003196F5CF8091C00085FFFCCF8AE08093CA
:102EE000C600DF91CF911F910F91FF90EF90DF907F
:102EF000CF90BF90AF9008952F923F924F925F92E4
:102F00006F927F928F929F92AF92BF92CF92DF92F9
:102F1000EF92FF920F931F93CF93DF93CDB7DEB75E
:102F2000CC55D1090FB6F894DEBF0FBECDBF8C01D2
:102F300089579D4F5C01611112C0FC01808188237B
:102F400009F4B1C03897C080D180E280F3800E943C
:102F50004ECAC616D706E806F90608F4A4C0F5015D
:102F60001082F8018381811108C0C8010E945F149A
:102F7000F8018381882309F496C0F80186A58F9310
:102F800085A58F938BE493E09F938F937E01FFE35E
:102F9000EF0EF11CFF92EF920E9440D90F900F901C
:102FA0000F900F900F900F90B12CF701019000201F
:102FB000E9F73197EE19FF09BE1684F46701CB0CCF
:102FC000D11CB7FCDA94F6018081992787FD909592
:102FD0000E948BD8F6018083B394E7CF4801F3E3D6
:102FE0008F0E911C40E050E0BA01C4010E945C7455
:102FF000512CCE0101966C0134E4632E33E0732E24
:103000005E0191E2A90EB11C40E050E0B601C4019E
:103010000E94A7731816DCF5412CF60101900020E0
:10302000E9F73197EC19FD094E1674F41601240CDA
:10303000311C47FC3A94F101808190E00E948BD8CA
:10304000F10180834394E9CF8A858E37E9F245E028
:1030500050E0B701C6010E9423D9892BA9F6FF923F
:10306000EF927F926F92BF92AF920E9440D9C501BA
:103070000E94802680E493E00E944A270F900F90E0
:103080000F900F900F900F9055245394BDCF511077
:1030900004C08FEF9FEFF80104C0F80185A596A545
:1030A000019696A785A7C45ADF4F0FB6F894DEBFE6
:1030B0000FBECDBFDF91CF911F910F91FF90EF9089
:1030C000DF90CF90BF90AF909F908F907F906F9048
:1030D0005F904F903F902F9008950F931F93CF9341
:1030E000DF93EC018C0102531E4FC8010E94F6745D
:1030F000C8010E94427519821882DF91CF911F91F9
:103100000F910895CF92DF92EF92FF920F931F934A
:10311000CF93DF93CDB7DEB76F970FB6F894DEBFCE
:103120000FBECDBF8C016A017C018EE4E80EF11C5C
:10313000C801805B9F4FF70191838083E65CFD4F60
:1031400022E030E03183208332967183608340E057
:1031500050E0BA0104960E945C74F701808191816D
:103160002BE1FC013496DE01159601900D922A9513
:10317000E1F7FC01828193819C838B838EEB94E049
:103180009A8389839601AE014F5F5F4F65ED74E0CE
:10319000C8010E947112CE0101960E94E4116F963F
:1031A0000FB6F894DEBF0FBECDBFDF91CF911F9158
:1031B0000F91FF90EF90DF90CF9008952F923F9264
:1031C0004F925F926F927F928F929F92AF92BF9237
:1031D000CF92DF92EF92FF920F931F93CF93DF93E3
:1031E000CDB7DEB7AC970FB6F894DEBF0FBECDBF3C
:1031F0008C016B01342EFC018381882309F4BCC24D
:10320000EF52FE4F8081882309F4F9C0222319F080
:10321000EFE0FFE0CCC07801F7E1EF1AFEEFFF0A24
:10322000F7018081811103C0EFE0FFE033C0E5E1E9
:10323000FFE08491882341F09091C00095FFFCCF7E
:103240008093C6003196F5CFE4E8F4E084918823BA
:1032500041F09091C00095FFFCCF8093C60031965D
:10326000F5CF4AE050E061E070E08AE595E00E9429
:103270000A258091C00085FFFCCF8AE08093C600BC
:103280000E947B4579C29091C00095FFFCCF80934E
:10329000C600319684918111F6CFEBE6F4E084917B
:1032A000882341F09091C00095FFFCCF8093C60029
:1032B0003196F5CFF6018191882339F09091C000C5
:1032C00095FFFCCF8093C600F6CFE0E6F4E0849152
:1032D000882341F09091C00095FFFCCF8093C600F9
:1032E0003196F5CFF70180815DE8B52EB801B89E23
:1032F000600D711D112462517E4FC8010E94361568
:10330000F7018081F801B89EE00DF11D1124E25112
:10331000FE4F8191882339F09091C00095FFFCCF3A
:103320008093C600F6CFEAE5F4E08491882341F06B
:103330009091C00095FFFCCF8093C6003196F5CFE9
:103340005801FDE7AF1AFDEFBF0AF5014081518139
:10335000628173812AE030E08AE595E00E94392598
:103360008091C00085FFFCCF8AE08093C600F70102
:103370002081F80184E0289FE00DF11D1124AF01A8
:1033800046515E4FF50180819181A281B381FA019E
:1033900080839183A283B3832F5FF701208329C0A9
:1033A0009091C00095FFFCCF8093C6003196849128
:1033B0008111F6CFE9E4F4E08491882341F0909103
:1033C000C00095FFFCCF8093C6003196F5CFF60183
:1033D0008191882339F09091C00095FFFCCF8093B4
:1033E000C600F6CF8091C00085FFFCCF8AE08093B5
:1033F000C600C80182539E4F0E94427530C0F8013A
:10340000E751FE4F1082EFE0FFE08491882341F006
:103410009091C00095FFFCCF8093C6003196F5CF08
:10342000E8E3F4E08491882341F09091C00095FF97
:10343000FCCF8093C6003196F5CFF60181918823A9
:1034400039F09091C00095FFFCCF8093C600F6CF75
:103450008091C00085FFFCCF8AE08093C600F80110
:103460001282CE0101965C010E94DA1128019EE4CD
:10347000490E511CC8018F96F20191838083F60199
:1034800080818F3209F074C07601FFEFEF1AFF0AD6
:103490004AE0242EE114F10409F470C06FE270E0F8
:1034A000C7010E9408D94C01009709F468C0E816CA
:1034B000F90608F064C03C016E187F08A301B7014B
:1034C000CE0180960E9431D9E0E2F0E0EC0FFD1FC2
:1034D000E60DF71D1082FE01B0968191882339F028
:1034E0009091C00095FFFCCF8093C600F6CF8091ED
:1034F000C00085FFFCCF2092C600F201608171817F
:103500006115710519F06C5F7F4F02C060E070E0DB
:1035100021E0AE01405E5F4FCE0105960E944B77E1
:1035200081111EC0E4E2F4E08491882341F090917F
:10353000C00095FFFCCF8093C6003196F5CFFE0109
:10354000B0968191882339F09091C00095FFFCCF0F
:103550008093C600F6CF8091C00085FFFCCFDFC00E
:10356000F201B182A0827401FFEFEF1AFF0A92CF3D
:10357000C801805B9F4FF201918380837601C8016F
:1035800082539E4F4C01F20160817181332009F416
:103590009BC06115710519F06C5F7F4F02C060E040
:1035A00070E021E0A701C4010E944B77811103C0A4
:1035B000ECEEF3E076C0980125583D4FF401818987
:1035C0009289A389B489F90180839183A283B3830B
:1035D000E6E1F4E08491882341F09091C00095FFEA
:1035E000FCCF8093C6003196F5CFF70181918823F7
:1035F00039F09091C00095FFFCCF8093C600F6CFC4
:10360000EEE0F4E08491882341F09091C00095FFB2
:10361000FCCF8093C6003196F5CFF90140815181EE
:10362000628173812AE030E08AE595E00E943925C5
:103630008091C00085FFFCCF8AE08093C600F8012E
:10364000ED57FD4F1082118212821382E0E0F4E008
:103650008491882341F09091C00095FFFCCF809326
:10366000C6003196F5CF8091C00085FFFCCF8AE07F
:103670008093C600A70160E070E0C8010E94821834
:10368000F8018289882319F0C801429601C0C70158
:1036900060E06DC09091C00095FFFCCF8093C600A4
:1036A000319684918111F6CFF7018191882339F009
:1036B0009091C00095FFFCCF8093C600F6CF80911B
:1036C000C00085FFFCCF2BC06115710519F06C5F40
:1036D0007F4F02C060E070E026E5A701C4010E94B0
:1036E0004B77811120C0E8EDF3E08491882341F00D
:1036F0009091C00095FFFCCF8093C6003196F5CF26
:10370000F7018191882339F09091C00095FFFCCF9B
:103710008093C600F6CF8091C00085FFFCCF8EE27B
:103720008093C60026C081E0F8018083E6ECF3E0D8
:103730008491882341F09091C00095FFFCCF809345
:10374000C6003196F5CFF6018191882339F090912A
:10375000C00095FFFCCF8093C600F6CF8091C000DB
:1037600085FFFCCF8AE08093C60060E0C7010E941D
:10377000C197C5010E94E411AC960FB6F894DEBF64
:103780000FBECDBFDF91CF911F910F91FF90EF90B2
:10379000DF90CF90BF90AF909F908F907F906F9071
:1037A0005F904F903F902F90089521E0FC0121837E
:1037B00040E00C94DE18CF92DF92EF92FF920F93CD
:1037C0001F93CF93DF93CDB7DEB76F970FB6F89403
:1037D000DEBF0FBECDBF8C016C012EE4C20ED11C2A
:1037E000805B9F4FF60191838083E65CFD4F21E073
:1037F00030E0318320837801F6E7EF1AFDEFFF0A0E
:10380000F7011182108240E050E0BA0104960E9454
:103810005C74F601808191812BE1FC013496DE011C
:10382000159601900D922A95E1F7FC018281938112
:103830009C838B838EEB94E09A83898320E030E035
:10384000AE014F5F5F4F65ED74E0C8010E947112D9
:10385000CE0101960E94E411F701808191816F965B
:103860000FB6F894DEBF0FBECDBFDF91CF911F9191
:103870000F91FF90EF90DF90CF900895AF92BF929D
:10388000CF92DF92EF92FF920F931F93CF93DF932C
:10389000CDB7DEB76F970FB6F894DEBF0FBECDBFC2
:1038A0008C017B01CE0101960E94DA11F801E95AE0
:1038B000FF4F80816801811104C02FE2C20ED11C2C
:1038C00003C080E5C80ED11C21E0A701B6016C5FE2
:1038D0007F4FCE0105960E944B7781112DC0EFE0FE
:1038E000FFE08491882341F09091C00095FFFCCFC8
:1038F0008093C6003196F5CFEAE2F3E08491882305
:1039000041F09091C00095FFFCCF8093C6003196A6
:10391000F5CFF7018191882339F09091C00095FF90
:10392000FCCF8093C600F6CF8091C00085FFFCCF0E
:103930008AE08093C60036C0F801EB55FE4F8081C7
:1039400091818A30910530F59C012F5F3F4F318383
:1039500020832FE1289F7001299FF00C11242FE66E
:10396000E20EF11CE00EF11E5C01B701C7014F969B
:103970000E944F1481E0A81AB1082FE1E21AF10861
:103980008FEFA816B80689F7B601C80181599F4F75
:103990000E944F14BE016F5F7F4FC801805B9F4F35
:1039A0000E944F14CE0101960E94E4116F960FB64B
:1039B000F894DEBF0FBECDBFDF91CF911F910F9165
:1039C000FF90EF90DF90CF90BF90AF900895EF926F
:1039D000FF920F931F93CF93DF93EC01CB55DE4FF4
:1039E0002881398121153105F9F0215031093983B8
:1039F00028838C0101591F4FB801805B9F4F0E94A3
:103A00004F14C80100E010E07C012FE1E20EF11C30
:103A1000288139810217130738F40F5F1F4FB70150
:103A20000E944F14C701F0CFDF91CF911F910F91EA
:103A3000FF90EF900895EF92FF920F931F93CF9313
:103A4000DF93EC010E948E868E0107511E4FF80114
:103A500080819E0122533E4F79018823A9F1C9013B
:103A60000E944275F801808181508083BE01FDE88B
:103A70008F9F600D711D112462517E4F21E041E046
:103A8000CE010E94DE18F8018081FE0124E0829FB1
:103A9000E00DF11D1124E651FE4F408151816281FC
:103AA0007381FE01ED57FD4F408351836283738321
:103AB000C7010E945C74CE01DF91CF911F910F91DD
:103AC000FF90EF900C942A15C9010E9442751A824A
:103AD0008EE193E00E944A278091AC0F8823F9F091
:103AE0001092AC0FC0912206D0E0CC0FDD1FCF505A
:103AF000DD4E68817981882777FD8095982F0E9417
:103B000039D220915102309152024091530250918A
:103B100054020E949AD3181614F419821882DF9165
:103B2000CF911F910F91FF90EF900895AF92BF92A8
:103B3000DF92EF92FF920F931F93CF93DF931F9229
:103B4000CDB7DEB78C015B01460F8AE0D82E4A154F
:103B500009F43BC07501F50161915F01F8018081B5
:103B6000918149830E9472DBF801808191810E94DA
:103B70006ADBF70190814981891701F1EFE0FFE0ED
:103B80008491882341F09091C00095FFFCCF8093F1
:103B9000C6003196F5CFE3E6F5E08491882341F045
:103BA0009091C00095FFFCCF8093C6003196F5CF71
:103BB0008091C00085FFFCCFD092C600F8018081C3
:103BC0009181019691838083C2CF0F90DF91CF9135
:103BD0001F910F91FF90EF90DF90BF90AF900895ED
:103BE000EF92FF920F931F93CF93DF931F92CDB766
:103BF000DEB78C017B01460FF801808191814983FA
:103C00000E946ADBF70181937F01F8018081918135
:103C100001969183808349814E11EECF0F90DF9101
:103C2000CF911F910F91FF90EF900895AF92BF92A7
:103C3000CF92DF92EF92FF920F931F93CF93DF9378
:103C4000CDB7DEB7A4970FB6F894DEBF0FBECDBFD9
:103C5000198E1A8E1B8E1C8E80E390E3A0E3B0E0D9
:103C60008D8B9E8BAF8BB88F84E690E09AA389A34F
:103C700044E0BE016B5E7F4FCE0181960E94961D8F
:103C800040E16DEE7FE0CE0181960E94961D40E1FD
:103C90006DEF7FE0CE0181960E94961D40E16DEDB3
:103CA0007FE0CE0181960E94961D44E065ED7FE0A5
:103CB000CE0181960E94961D44E061ED7FE0CE0129
:103CC00081960E94961D44E06DEC7FE0CE018196C6
:103CD0000E94961D44E069ED7FE0CE0181960E942E
:103CE000961D44E06DEB7FE0CE0181960E94961D0B
:103CF00044E06DE070E1CE0181960E94961D44E0A3
:103D000069EC7FE0CE0181960E94961D44E065EC4F
:103D10007FE0CE0181960E94961D44E061EC7FE039
:103D2000CE0181960E94961D4CE06FE276E0CE01B6
:103D300081960E94961D83E08CA38BA341E06DE8E1
:103D40007AE0CE0181960E94961D41E0BE016C5D35
:103D50007F4FCE0181960E94961D41E0BE016D5DB0
:103D60007F4FCE0181960E94961D44E26EE87AE074
:103D7000CE0181960E94961D198A1A8A1B8A1C8A76
:103D800044E0BE016F5E7F4FCE0181960E94961D7A
:103D9000198E1A8E1B8E1C8E07E010E0015011093F
:103DA00049F044E0BE01675E7F4FCE0181960E94DC
:103DB000961DF4CF42E06CE573E1CE0181960E943E
:103DC000961D42E06AE573E1CE0181960E94961D40
:103DD00042E068E573E1CE0181960E94961D42E0C3
:103DE00066E573E1CE0181960E94961D42E064E58E
:103DF00073E1CE0181960E94961D42E062E573E177
:103E0000CE0181960E94961D00E010E0C12C30E8A2
:103E1000D32E3BE3E32E35E4F32E02301105ECF410
:103E200044E069E772E0CE0181960E94961D44E06D
:103E300065E772E0CE0181960E94961D44E061E73D
:103E400072E0CE0181960E94961D44E06DE672E01C
:103E5000CE0181960E94961D20C0C98EDA8EEB8E0F
:103E6000FC8E44E0BE01675E7F4FCE0181960E94CA
:103E7000961D198E1A8E1B8E1C8E24E0A22EB12C3C
:103E800081E0A81AB10849F044E0BE01675E7F4FA7
:103E9000CE0181960E94961DF3CF0F5F1F4F043015
:103EA000110509F0BACF80E090E8ABE3B5E48D8767
:103EB0009E87AF87B88B89879A87AB87BC878D83AE
:103EC0009E83AF83B88744E0BE01635F7F4FCE011E
:103ED00081960E94961D44E0BE01675F7F4FCE0130
:103EE00081960E94961D44E0BE016B5F7F4FCE011C
:103EF00081960E94961D80E290E098A38F8F42E009
:103F0000BE01615E7F4FCE0181960E94961D80E0CA
:103F100090E0A0E8BFE3898F9A8FAB8FBC8F44E01D
:103F2000BE01675E7F4FCE0181960E94961D41E0E3
:103F30006BE376E0CE0181960E94961D99E2E92E10
:103F400092E0F92E00E010E0023011054CF4F70188
:103F500080819181A281B381898F9A8FAB8FBC8F31
:103F600044E0BE01675E7F4FCE0181960E94961DA0
:103F70000F5F1F4FF4E0EF0EF11C0430110521F725
:103F800086E591E3A9E3B0E089839A83AB83BC83A0
:103F900084E690E09E8F8D8F44E0BE016F5F7F4F7F
:103FA000CE014D960E94961DEFE0FFE0849188239C
:103FB00041F09091C00095FFFCCF8093C6003196F0
:103FC000F5CF49A15AA1662757FD6095762F81E567
:103FD00095E00E946E26E9E4F5E08491882341F0A3
:103FE0009091C00095FFFCCF8093C6003196F5CF2D
:103FF0008091C00085FFFCCF8AE08093C600A49624
:104000000FB6F894DEBF0FBECDBFDF91CF911F91E9
:104010000F91FF90EF90DF90CF90BF90AF900895F9
:10402000AF92BF92CF92DF92EF92FF920F931F93C6
:10403000CF93DF93CDB7DEB7E0970FB6F894DEBF2E
:104040000FBECDBF80E1EEEBF2E0DE019196019074
:104050000D928A95E1F780E1EEECF2E0DE015196F7
:1040600001900D928A95E1F780E1EEEDF2E0DE013C
:10407000119601900D928A95E1F76E0181E2C80ECA
:10408000D11C4DEEE42E4FE0F42E8E010F5E1F4F3B
:104090006DEF7FE0AE014F5F5F4FEDEDAE2EEFE0D5
:1040A000BE2E20E030E0F60181919191A191B19175
:1040B0006F01F70181939193A193B1937F01F8016F
:1040C00081919191A191B1918F01FB018193919384
:1040D000A193B193BF01FA0181919191A191B19105
:1040E000AF01F50181939193A193B1935F012F5F8C
:1040F0003F4F24303105B9F60E941A6E80E090E0FF
:10410000AAEFB3E48093D50F9093D60FA093D70F67
:10411000B093D80F8093D10F9093D20FA093D30F69
:10412000B093D40F8093CD0F9093CE0FA093CF0F69
:10413000B093D00F1092D90F1092DA0F1092DB0FBC
:104140001092DC0F80E29EE4A0E0B0E080930D10BE
:1041500090930E10A0930F10B09310101092BD0FFB
:104160001092BE0F1092BF0F1092C00F80E090E02F
:10417000A0EAB1E48093C90F9093CA0FA093CB0F2C
:10418000B093CC0F8DEC9CECACECBEE38093C50FF0
:104190009093C60FA093C70FB093C80F80E090E034
:1041A000A0EAB0E48093C10F9093C20FA093C30F15
:1041B000B093C40F10923706109238061092390649
:1041C00010923A0610923306109234061092350679
:1041D0001092360610922F06109230061092310679
:1041E000109232068DEC90E090935D1380935C13F7
:1041F00082E390E090935B1380935A138FEF90E0EB
:10420000909359138093581320EF30E03093571355
:104210002093561324E630E0309355132093541323
:1042200090935313809352138AE999E9A1EBB1E477
:104230008093790290937A02A0937B02B0937C02E0
:1042400061E77DE38AE89FE30E943A9360937502F9
:1042500070937602809377029093780260E070E02A
:1042600084EE92E40E94489360937102709372020C
:10427000809373029093740280E090E0A0E8BFE323
:1042800080936D0290936E02A0936F02B0937002C0
:104290000E94FF8810923B0680E090E0A0E4B0E42A
:1042A0008093290290932A02A0932B02B0932C02B0
:1042B00080932D0290932E02A0932F02B093300290
:1042C0000E942751EFE0FFE08491882341F0909114
:1042D000C00095FFFCCF8093C6003196F5CFE2E099
:1042E000F5E08491882341F09091C00095FFFCCFC8
:1042F0008093C6003196F5CF8091C00085FFFCCF3A
:104300008AE08093C600E0960FB6F894DEBF0FBE39
:10431000CDBFDF91CF911F910F91FF90EF90DF9074
:10432000CF90BF90AF900895CF92DF92EF92FF921F
:104330000F931F93CF93DF93CDB7DEB76F970FB671
:10434000F894DEBF0FBECDBF84E690E09C8F8B8FCC
:1043500086E591E3A9E3B0E0898B9A8BAB8BBC8BAC
:1043600044E0BE016B5E7F4FCE014B960E94F01D74
:1043700043E050E0BE016B5E7F4FCE0141960E944C
:1043800023D9892B19F00E941020E1C11D861E86B9
:104390001F86188A40E16DEE7FE0CE014B960E94A9
:1043A000F01D40E16DEF7FE0CE014B960E94F01DC5
:1043B00040E16DED7FE0CE014B960E94F01D0E9422
:1043C0001A6E44E065ED7FE0CE014B960E94F01D31
:1043D00044E061ED7FE0CE014B960E94F01D44E089
:1043E0006DEC7FE0CE014B960E94F01D44E069ED3C
:1043F0007FE0CE014B960E94F01D44E06DEB7FE024
:10440000CE014B960E94F01D44E06DE070E1CE01BC
:104410004B960E94F01D44E069EC7FE0CE014B9684
:104420000E94F01D44E065EC7FE0CE014B960E94B7
:10443000F01D44E061EC7FE0CE014B960E94F01D40
:104440004CE06FE276E0CE014B960E94F01D1F8E8D
:104450001E8E1D8E41E0BE01615E7F4FCE014B96E8
:104460000E94F01D41E0BE01625E7F4FCE014B967F
:104470000E94F01D41E0BE01635E7F4FCE014B966E
:104480000E94F01D8F8D80938D0A8E8D833059F49C
:104490008D8D833041F444E26EE87AE0CE014B9694
:1044A0000E94F01D19C08DE89AE00E948E5700E02E
:1044B00010E09E8D8D8D989FC0011124081719075B
:1044C0005CF444E0BE01635F7F4FCE014B960E94D7
:1044D000F01D0F5F1F4FEDCF19861A861B861C86B5
:1044E00044E0BE01675F7F4FCE014B960E94F01DF6
:1044F0001D861E861F86188A07E010E001501109EC
:1045000049F044E0BE01635F7F4FCE014B960E94AD
:10451000F01DF4CF42E06CE573E1CE014B960E94B2
:10452000F01D42E06AE573E1CE014B960E94F01D5A
:1045300042E068E573E1CE014B960E94F01D42E037
:1045400066E573E1CE014B960E94F01D42E064E502
:1045500073E1CE014B960E94F01D42E062E573E1EB
:10456000CE014B960E94F01D00E010E044E0BE0139
:10457000635F7F4FCE014B960E94F01D0230110504
:1045800074F4CD84DE84EF84F88820E030E84BE3D7
:1045900055E4C701B6010E9497D1811104C0A4E07F
:1045A000EA2EF12C1EC0C0927902D0927A02E092DB
:1045B0007B02F0927C0244E065E772E0CE014B960C
:1045C0000E94F01D44E061E772E0CE014B960E942C
:1045D000F01D44E06DE672E0CE014B960E94F01DA6
:1045E0000DC081E0E81AF10849F044E0BE01635FC4
:1045F0007F4FCE014B960E94F01DF3CF0F5F1F4FF0
:104600000430110509F0B2CF44E0BE01635F7F4F73
:10461000CE014B960E94F01D20E030E84BE355E4BC
:104620006D857E858F8598890E9497D144E0BE0173
:1046300081110BC0635F7F4FCE014B960E94F01D2E
:1046400044E0BE01635F7F4F0AC06B5F7F4FCE01C6
:104650004B960E94F01D44E0BE016F5F7F4FCE017C
:104660004B960E94F01D42E0BE01675E7F4FCE0177
:104670004B960E94F01D44E0BE01635F7F4FCE0168
:104680004B960E94F01D41E06BE376E0CE014B9625
:104690000E94F01DF9E2EF2EF2E0FF2E00E010E0A4
:1046A00044E0BE01635F7F4FCE014B960E94F01D38
:1046B000023011054CF48D859E85AF85B889F701D0
:1046C00080839183A283B3830F5F1F4FF4E0EF0ECB
:1046D000F11C0430110521F70E9427510E94FF8828
:1046E000EFE0FFE08491882341F09091C00095FFB6
:1046F000FCCF8093C6003196F5CFFE017196819173
:10470000882339F09091C00095FFFCCF8093C600BC
:10471000F6CF4B8D5C8D662757FD6095762F8CE22A
:1047200095E00E946E26E4E2F5E08491882341F052
:104730009091C00095FFFCCF8093C6003196F5CFD5
:104740008091C00085FFFCCF8AE08093C6006F9601
:104750000FB6F894DEBF0FBECDBFDF91CF911F9192
:104760000F91FF90EF90DF90CF90089508951F92E2
:104770000F920FB60F9211240BB60F922F933F9307
:104780004F935F936F938F939F93EF93FF936091FA
:10479000C6002091DB053091DC05C90101968F77B9
:1047A00099274091DD055091DE058417950741F06A
:1047B000F901E55AFA4F60839093DC058093DB059D
:1047C000FF91EF919F918F916F915F914F913F91E9
:1047D0002F910F900BBE0F900FBE0F901F9018954A
:1047E0009A01AB01211581EE38074105510549F1C8
:1047F00082E08093C00060E079E08DE390E00E9469
:104800008CD52150310941095109CA01B90122E071
:1048100030E040E050E00E948CD53093C5002093FA
:10482000C4008091C10080618093C1008091C1006B
:1048300088608093C1008091C10080688093C1002E
:1048400008951092C00020E130E0E7CF2091DD050F
:104850003091DE058091DB059091DC05821793078E
:1048600071F0F901E55AFA4F80812F5F3F4F2F77A2
:1048700033273093DE052093DD0590E008958FEF18
:104880009FEF08958091DD059091DE059093DC0502
:104890008093DB0508954F925F926F927F928F9283
:1048A0009F92AF92BF92CF92DF92EF92FF920F93BF
:1048B0001F93CF93DF93CDB7DEB7A0970FB6F894D1
:1048C000DEBF0FBECDBF5C0141155105610571050D
:1048D000F1F420E030E040E350E060E070E0A096CA
:1048E0000FB6F894DEBF0FBECDBFDF91CF911F9101
:1048F0000F91FF90EF90DF90CF90BF90AF909F907F
:104900008F907F906F905F904F900C94E3248E0176
:104910000F5F1F4FC12CD12C76014801422E512C24
:10492000612C712C8FEFC81AD80AE80AF80ACB015B
:10493000BA01A30192010E946AD5CA01F8016193EC
:104940008F01A901BC01411551056105710551F7A0
:10495000F1E0CF1AD108E108F108F401EC0DFD1DDA
:1049600080818A3010F440E301C047E3480F5527A7
:1049700047FD5095652F752F20E030E0C5010E945E
:10498000E32481E0C81AD108E108F108EFEFCE1660
:10499000DE06EE06FE0609F7A0960FB6F894DEBF17
:1049A0000FBECDBFDF91CF911F910F91FF90EF9080
:1049B000DF90CF90BF90AF909F908F907F906F903F
:1049C0005F904F9008952115310539F48091C00012
:1049D00085FFFCCF4093C60008952A30310511F4BD
:1049E0000C9412250C944B24CF93DF93EC0120E020
:1049F00030E04DE050E060E070E00E94E32420E011
:104A000030E04AE050E060E070E0CE01DF91CF910D
:104A10000C94E3249A01AB01662757FD6095762F2D
:104A20000C94E324CF92DF92EF92FF92CF93DF9327
:104A3000EC016A017B0177FF10C020E030E04DE21D
:104A400050E060E070E00E94E324F094E094D094A1
:104A5000C094C11CD11CE11CF11C2AE0B701A601C5
:104A6000CE01DF91CF91FF90EF90DF90CF900C942B
:104A70004B242115310539F48091C00085FFFCCF0E
:104A80004093C60008950C944B249A01462F50E0A1
:104A900060E070E00C943925CF93DF93EC019A012C
:104AA000AB0160E070E00E943925CE01DF91CF912B
:104AB0000C94F4248F929F92AF92BF92CF92DF9288
:104AC000EF92FF921F93CF93DF93EC016A017B017A
:104AD000122F20E030E0A901C701B6010E9497D152
:104AE00087FF0DC020E030E04DE250E060E070E074
:104AF000CE010E94E324F7FAF094F7F8F094B12C79
:104B000060E070E080E09FE3B11641F020E030E02B
:104B100040E251E40E949ED1B394F6CF9B01AC01D8
:104B2000C701B6010E94BED06B017C010E940BD26E
:104B30004B015C010E9437D29B01AC01C701B60159
:104B40000E94BDD06B017C012AE0B501A401CE0119
:104B50000E944B24112349F020E030E04EE250E067
:104B600060E070E0CE010E94E324112321F120E0F7
:104B700030E040E251E4C701B6010E946CD46B0101
:104B80007C010E9406D24B01AA2497FCA094BA2C67
:104B9000B501A401CE010E941225C501B4010E94F5
:104BA00039D29B01AC01C701B6010E94BDD06B0197
:104BB0007C011150DACFDF91CF911F91FF90EF90E0
:104BC000DF90CF90BF90AF909F908F9008950C94FE
:104BD0005A25FC0165917591859194910895CF9224
:104BE000DF92EF92FF921F93CF93DF936B017C01D3
:104BF000C1E0D0E010E51C9FB0011D9F700D112495
:104C0000882777FD8095982F0E9439D29B01AC01AF
:104C1000C701B6010E949AD3181624F4219761F0B7
:104C2000C2E0D0E0CE010197DF91CF911F91FF90BC
:104C3000EF90DF90CF900895C2E0D0E0DCCFCF922C
:104C4000DF92EF92FF921F93CF93DF936B017C0172
:104C5000C1E0D0E012E81C9FB0011D9F700D11242F
:104C6000665F7F4F882777FD8095982F0E9439D205
:104C70009B01AC01C701B6010E949AD3181624F417
:104C8000219761F0C2E0D0E0CE010197DF91CF9192
:104C90001F91FF90EF90DF90CF900895C2E0D0E099
:104CA000DACF0E944ECA609306067093070680937F
:104CB0000806909309060895FC012491222341F0EF
:104CC0003091C00035FFFCCF2093C6000196F4CF91
:104CD00022E030E08AE595E00C94E725FC01249180
:104CE000222341F03091C00035FFFCCF2093C60055
:104CF0000196F4CF2AE030E08AE595E00C9439255E
:104D0000CF93DF93FC0120812B3309F467C02091FE
:104D1000C2073091C307243031050CF05FC02091E9
:104D2000C4073091C50740E6429FE001439FD00D84
:104D30001124CE5BD94FBC01CE010E941CD9EFE0FB
:104D4000FFE08491882341F09091C00095FFFCCF53
:104D50008093C6003196F5CFE3ECFEE08491882382
:104D600071F09091C00095FFFCCF8093C600319602
:104D7000F5CF9091C00095FFFCCF8093C60089913C
:104D80008111F7CFE1ECFEE08491882341F090910E
:104D9000C00095FFFCCF8093C6003196F5CF80917F
:104DA000C00085FFFCCF8AE08093C6008091C407D5
:104DB0009091C507019664E070E00E9456D59093EB
:104DC000C5078093C4078091C2079091C3070196DD
:104DD0009093C3078093C20781E001C080E0DF9118
:104DE000CF910895DF92EF92FF920F931F93CF938D
:104DF000DF93CDB7DEB76E970FB6F894DEBF0FBE68
:104E0000CDBF60910A0670910B0661157105A1F086
:104E10004DE150E08E010F5F1F4FC8010E94ABD8DB
:104E20001E8EF8017F01E01AF10AD190DD2031F0E9
:104E30008AE0D812F7CF02C080E01EC0F801EE0D64
:104E4000FF1D1082C8010E9480268823A1F0DD206A
:104E500071F08FEFE81AF80A80910A0690910B061C
:104E60008E0D9F1D90930B0680930A0604C010922E
:104E70000B0610920A0681E06E960FB6F894DEBF1C
:104E80000FBECDBFDF91CF911F910F91FF90EF909B
:104E9000DF90089590930B0680930A060C94F226F7
:104EA000269A2E9808950E94502740E052EC61E027
:104EB00070E08AE595E00E94F023EBEBFEE0849140
:104EC000882341F09091C00095FFFCCF8093C600ED
:104ED0003196F5CF8091C00085FFFCCF8AE08093AA
:104EE000C600EFE0FFE08491882341F09091C0007C
:104EF00095FFFCCF8093C6003196F5CF84B780FF35
:104F000014C0E3EBFEE09491992341F02091C0009E
:104F100025FFFCCF9093C6003196F5CF9091C0004D
:104F200095FFFCCF9AE09093C60081FF14C0E3EA9E
:104F3000FEE09491992341F02091C00025FFFCCF21
:104F40009093C6003196F5CF9091C00095FFFCCFAD
:104F50009AE09093C60082FF14C0E2E9FEE09491CB
:104F6000992341F02091C00025FFFCCF9093C6000B
:104F70003196F5CF9091C00095FFFCCF9AE09093C9
:104F8000C60083FF14C0E2E8FEE09491992341F04B
:104F90002091C00025FFFCCF9093C6003196F5CF3D
:104FA0009091C00095FFFCCF9AE09093C60085FFDA
:104FB00014C0E2E7FEE08491882341F09091C000A4
:104FC00095FFFCCF8093C6003196F5CF8091C0004D
:104FD00085FFFCCF8AE08093C60014BEEBE6FEE0BE
:104FE0008491882341F09091C00095FFFCCF80937D
:104FF000C6003196F5CFE0E6FEE08491882341F0CB
:105000009091C00095FFFCCF8093C6003196F5CFFC
:105010008091C00085FFFCCF8AE08093C600EFE05E
:10502000FFE08491882341F09091C00095FFFCCF70
:105030008093C6003196F5CFE0E5FEE084918823A9
:1050400041F09091C00095FFFCCF8093C60031964F
:10505000F5CFEBE3FEE08491882341F09091C0000E
:1050600095FFFCCF8093C6003196F5CFEFE2FEE0CE
:105070008491882341F09091C00095FFFCCF8093EC
:10508000C6003196F5CFEBE2FEE08491882341F033
:105090009091C00095FFFCCF8093C6003196F5CF6C
:1050A0008091C00085FFFCCF8AE08093C600E0E2DB
:1050B000FEE08491882341F09091C00095FFFCCFE1
:1050C0008093C6003196F5CFE4E1FEE08491882319
:1050D00041F09091C00095FFFCCF8093C6003196BF
:1050E000F5CF8091C00085FFFCCF8AE08093C60099
:1050F000EFE0FFE08491882341F09091C00095FF9C
:10510000FCCF8093C6003196F5CFE5E0FEE08491B8
:10511000882341F09091C00095FFFCCF8093C6009A
:105120003196F5CF0E94E8794AE050E0BC018AE56B
:1051300095E00E940A25EEEEFDE08491882341F07F
:105140009091C00095FFFCCF8093C6003196F5CFBB
:105150004AE050E060ED74E08AE595E00E940A259F
:105160008091C00085FFFCCF8AE08093C60010923A
:10517000E0051092E1051092E2051092E3050E940D
:1051800094210E94F78B0E947F600E9427860E94D4
:10519000A1982FEF83ED90E3215080409040E1F7FC
:1051A00000C000000895E0910C06F0910D062181E9
:1051B0002D3211F02B3221F4228182E090E002C0E6
:1051C00081E090E02E3219F4E80FF91F218120537D
:1051D00081E02A3008F080E008950F931F93CF9369
:1051E000DF9300910C0610910D0665E470E0C80194
:1051F0000E9408D9EC01C8010196209761F018823D
:1052000060E070E00E94DED525E42883DF91CF9135
:105210001F910F91089560E070E0DF91CF911F9191
:105220000F910C94DED580910C0690910D064AE00A
:1052300050E060E070E001960C944FD780910C062E
:1052400090910D064AE050E060E070E001960E9407
:105250004FD7CB010895682F772767FD7095209170
:10526000C6073091C70740E6429FC001439F900D9B
:1052700011248E5B994F0E9408D990930D0680935C
:105280000C0621E0892B09F420E0822F08950F936A
:105290001F93CF93DF9300D000D0CDB7DEB726E0C9
:1052A000EEEEF2E0DE01119601900D922A95E1F703
:1052B000FC01EE0FFF1F21E030E02C0F3D1FE20F3D
:1052C000F31F608171818C01000F111F000F111FEE
:1052D00016161706D4F4095C1D4F882777FD8095B4
:1052E000982F0E9439D29B01AC01F8016081718135
:1052F000828193810E949ED16093470270934802FD
:105300008093490290934A0228C0F801E95CFD4F5E
:1053100020E030E040E251E460817181828193813C
:105320000E949ED160934702709348028093490285
:1053300090934A02E9E4F3E08191882339F0909157
:10534000C00095FFFCCF8093C600F6CF8091C000CF
:1053500085FFFCCF8AE08093C60026960FB6F894AE
:10536000DEBF0FBECDBFDF91CF911F910F9108958A
:105370008F929F92AF92BF92CF92DF92EF92FF9265
:105380000F931F9320E030E040E752E46091470222
:10539000709148028091490290914A020E949ED1E8
:1053A0004B015C01E090EF07F090F0070091F107EE
:1053B0001091F2072091EB073091EC074091ED0737
:1053C0005091EE076091E7077091E8078091E90737
:1053D0009091EA07E2E2F6E0FF93EF93E3EFCE2E3F
:1053E000E7E0DE2E0E94E0610F900F901F910F9179
:1053F000FF90EF90DF90CF90BF90AF909F908F90F5
:1054000008954F925F926F927F928F929F92AF9288
:10541000BF92CF92DF92EF92FF920F931F932B01D7
:105420003C0120E030E040E752E460914702709197
:1054300048028091490290914A020E949ED14B01FC
:105440005C012091EB073091EC074091ED07509102
:10545000EE076091E7077091E8078091E907909166
:10546000EA07E2E2F6E0FF93EF93F3EFCF2EF7E0E7
:10547000DF2E830172010E94E0610F900F901F9157
:105480000F91FF90EF90DF90CF90BF90AF909F90E3
:105490008F907F906F905F904F9008958F929F9222
:1054A000AF92BF92CF92DF92EF92FF920F931F9332
:1054B00020E030E040E752E46091470270914802FA
:1054C0008091490290914A020E949ED14B015C0159
:1054D000E090DF07F090E0070091E1071091E2070C
:1054E0002091DB073091DC074091DD075091DE070A
:1054F0006091D7077091D8078091D9079091DA070A
:10550000E2E2F6E0FF93EF93A3EECA2EA7E0DA2ED5
:105510000E94E0610F900F901F910F91FF90EF900C
:10552000DF90CF90BF90AF909F908F900895CF92D3
:10553000DF92EF92FF920F931F93E090EF07F090AE
:10554000F0070091F1071091F2072091EB073091DD
:10555000EC074091ED075091EE076091E7077091DD
:10556000E8078091E9079091EA07B3EFCB2EB7E007
:10557000DB2E0E94EB6C1F910F91FF90EF90DF905C
:10558000CF9008952F923F924F925F926F927F92A9
:105590008F929F92AF92BF92CF92DF92EF92FF9243
:1055A0000F931F93CF93DF938C01FC01E053F14FD6
:1055B000F490EC01CC0FDD1FCC0FDD1F9E012951B3
:1055C000384F1901F90110821182128213820E9450
:1055D000972ACE018152914F0E94E9252B013C016F
:1055E0006F2D772767FD7095872F972F0E9439D2EF
:1055F0004B015C019E012952384F790120E030E0D7
:1056000040EC5FE3C301B2010E946CD4A501940198
:105610000E946CD4F7016083718382839383FE01BF
:10562000E95CFD4F80819181A281B3818093470223
:1056300090934802A0934902B0934A020E944E2AD6
:105640000E948E86F10110821182128213820E94C2
:10565000972A80E00E94557F9E012D52314F6901AB
:10566000C9010E94E9259058A50194010E946CD4BB
:10567000F70160837183828393830E944E2A0E9484
:105680008E8681E00E94557FC8010E944729C6018D
:105690000E94E9259B01AC010E94BED0A5019401A6
:1056A0000E946CD4F70160837183828393830E948C
:1056B0004E2A0E948E86CE018551914F0E94E92587
:1056C0009E01215D394F7901F901208131814281AB
:1056D00053810E94BED0F1016083718382839383E2
:1056E000CE018D5F904F0E94E9259E012D5D394FBF
:1056F0006901F70120813181428153810E94BED02E
:10570000F6016083718382839383CE018950914F28
:105710000E94E9259E012B5E3D4F6901F701208122
:105720003181428153810E94BED0F6016083718332
:105730008283938302301105D1F42091F4053091D6
:10574000F5054091F6055091F7056091EF077091CE
:10575000F0078091F1079091F2070E94BED060930C
:10576000EF077093F0078093F1079093F2070E9480
:10577000972AFE01E952F84FC951D84F8881998183
:10578000AA81BB8180839183A283B3831092470255
:10579000109248021092490210924A020E94AF7E73
:1057A000F801EC52F84F81E08083DF91CF911F9197
:1057B0000F91FF90EF90DF90CF90BF90AF909F90B0
:1057C0008F907F906F905F904F903F902F900895B3
:1057D00080E1E7EDF7E0A7EEB7E001900D928A9542
:1057E000E1F7089580E1E7EEF7E0A7EDB7E001907B
:1057F0000D928A95E1F708954F925F926F927F9292
:105800008F929F92AF92BF92CF92DF92EF92FF92D0
:105810000F931F93CF93C0918D0A10928D0A8091A0
:10582000470290914802A0914902B0914A028093A8
:10583000F7079093F807A093F907B093FA078091C0
:1058400035029091360290933D0680933C0684E6A3
:1058500090E090933602809335020E94512681E0B9
:105860000E94557F0E94F22B10924702109248022C
:105870001092490210924A0288E50E942B29982E24
:1058800089E50E942B29A82E8AE50E942B29B82E93
:10589000911005C0A11007C091E0982705C0AA206B
:1058A00011F0982F01C090E090930E02911102C068
:1058B000992021F080E090E00E94C22A80910E029F
:1058C000811102C0AA2021F081E090E00E94C22A4A
:1058D00080910E02882309F463C01092EF071092A2
:1058E000F0071092F1071092F2070E94972A80E0C9
:1058F00090E0A0E3B2E48093D7079093D807A093F9
:10590000D907B093DA0780E090E0A0E2B2E4809398
:10591000DB079093DC07A093DD07B093DE0780914F
:10592000EF079091F007A091F107B091F2078093F3
:10593000DF079093E007A093E107B093E20780E0D0
:1059400090E8ABEBB5E48093470290934802A093B4
:105950004902B0934A020E944E2A0E948E8680918C
:10596000D7079091D807A091D907B091DA07809313
:10597000E7079093E807A093E907B093EA078091BF
:10598000DB079091DC07A091DD07B091DE078093E3
:10599000EB079093EC07A093ED07B093EE078BC055
:1059A000BB2009F4D7C08091D407882309F4ACC088
:1059B0008091D507882309F4A7C08090E7079090CD
:1059C000E807A090E907B090EA074090EB075090F5
:1059D000EC076090ED077090EE0720E030E048E0C3
:1059E00052E4C501B4010E949AD387FD69C020E04A
:1059F00030E042E453E4C501B4010E9497D1181687
:105A00000CF45EC020E030E040EF51E4C301B2018D
:105A10000E949AD387FD54C020E030E04BE953E464
:105A2000C301B2010E9497D118160CF449C010921C
:105A3000EF071092F0071092F1071092F20793EF20
:105A4000C92E97E0D92EE12CF12C8701A3019201F8
:105A5000C501B4010E94EB6CE2EDFEE0649186EFBB
:105A60006802B0011124882777FD8095982F0E9445
:105A700039D26093DF077093E0078093E10790933A
:105A8000E20720E030E040E752E4609105107091B9
:105A9000061080910710909108100E946CD46093BA
:105AA0004702709348028093490290934A020E94F1
:105AB0004E2A0E948E8682E090E00E94C22A4AC04E
:105AC00060E083E09BE00E940D98EFE0FFE08491AE
:105AD000882341F09091C00095FFFCCF8093C600D1
