:100000000C943B130C946C130C946C130C946C13A5
:100010000C946C130C946C130C946C130C946C1364
:100020000C946C130C946C130C946C130C946C1354
:100030000C946C130C9434EF0C946C130C946C13A0
:100040000C946C130C940A990C946C130C946C1310
:100050000C946C130C946C130C94BEAB0C94DCE8F5
:100060000C946C130C9477250C946C130C946C13F7
:100070000C946C130C946C130C946C130C946C1304
:100080000C946C130C946C130C946C130C946C13F4
:100090000C946C130C946C130C946C130C94ABE7D1
:1000A0000C946C130C946C130C946C130C946C13D4
:1000B0000C946C130C946C130C946C130C946C13C4
:1000C0000C946C130C946C130C946C130C946C13B4
:1000D0000C946C130C946C130C946C130C946C13A4
:1000E0000C946C1328AC38AC57AC67AC82AC92ACB7
:1000F000ADACB2ACB5ACBAACBDACC2ACCCAC10EA39
:1001000015EA1AEA24EA2EEAA7EA38EA40EA48EAB7
:1001100052EA5CEA66EA75EA7FEAA7EA89EA93EAC4
:100120009DEAC9EACCEABBEABFEAC5EA03EBD0EA3A
:10013000D4EADAEADEEAE2EAE8EAECEAF0EA03EB39
:10014000F6EAFAEAFEEA084AD73B3BCE016E84BCE7
:10015000BFFDC12F3D6C74319ABD56833DDA3D0021
:10016000C77F11BED9E4BB4C3E916BAAAABE00006A
:1001700000803F05A84CCDB2D44EB93836A9020C48
:1001800050B9918688083CA6AAAA2ABE0000008021
:100190003F000C9458C10C94C4BF0C94E8EA0C9432
:1001A000E4D00C94B35F0C9409BC0C94AB930C9406
:1001B00066EA0C94C0DE0C94D4EA0C94B75F0C94FD
:1001C0007FEA0C94B1CC0C9403EB0C94B6590C94CC
:1001D00089EA0C94FEEA0C9402E70C94F6EA0C947B
:1001E0002EEA0C9402D50C94ADAC0C9468C10C941E
:1001F00048EA0C9483BD0C94CCEA0C9438EA0C9435
:10020000CCAC0C9436DD0C94F6D20C941AEA0C9417
:1002100038AC0C949DEA0C9411BA0C94C2AC0C94BA
:10022000B2B10C9430C80C94C2BF0C94FCD30C94A3
:10023000DEEA0C94EFE60C9475EA0C949AB10C94F7
:10024000F0EA0C945EC90C94BFEA0C9428AC0C94B0
:1002500011E70C941ED00C9493EA0C9475BA0C948C
:10026000F1CD0C94E7E60C9460C10C94C5EA0C94B3
:1002700057AC0C94D0EA0C9440EA0C94DAEA0C9453
:1002800047C30C947EE70C9492AC0C94E1E60C947A
:100290005CEA0C94B2AC0C94B5AC0C9424EA0C94CB
:1002A000BDAC0C9424C60C94ACEB0C9410EA0C94EA
:1002B00071CB0C94BBEA0C942CD00C9436760C9435
:1002C000A7EA0C94DFCE0C943AD00C94E2EA0C949A
:1002D00082AC0C943FE70C94BAAC0C94FAEA0C9400
:1002E00067AC0C9496D80C9415EA0C9412E70C9415
:1002F000C6BC0C9448BE0C948BC00C94C9EA0C94F8
:10030000ECEA0C9405BF0C9452EA0C9458BB4D389F
:100310003420582059205A20450043616E6E6F7476
:1003200020656E746572207375626469723A20008C
:100330004D3234004D3233202573006175746F25C2
:10034000692E67006572726F722077726974696EC8
:100350006720746F2066696C65004E6F742053448B
:10036000207072696E74696E670053442070726900
:100370006E74696E672062797465200044656C65EF
:1003800074696F6E206661696C65642C2046696CC7
:10039000653A200046696C652064656C6574656427
:1003A0003A006F70656E206661696C65642C20464A
:1003B000696C653A200057726974696E6720746FC2
:1003C0002066696C653A20006F70656E2066616911
:1003D0006C65642C2046696C653A20006F70656E10
:1003E000206661696C65642C2046696C653A200062
:1003F00046696C652073656C6563746564002053A1
:10040000697A653A200046696C65206F70656E6593
:10041000643A20006F70656E206661696C65642CBB
:100420002046696C653A20004E6F772066726573CE
:10043000682066696C653A20004E6F7720646F69AA
:100440006E672066696C653A20002220706F730029
:100450002220706172656E743A2200535542524FE9
:100460005554494E452043414C4C20746172676598
:10047000743A2200747279696E6720746F20636128
:100480006C6C207375622D67636F64652066696CA0
:100490006573207769746820746F6F206D616E7961
:1004A000206C6576656C732E204D4158206C657606
:1004B000656C2069733A0053442063617264206F55
:1004C0006B006F70656E526F6F74206661696C654A
:1004D0006400766F6C756D652E696E697420666157
:1004E000696C656400534420696E697420666169B3
:1004F0006C00205A0020204D005A2D50726F62650A
:10050000204F666673657420286D6D293A00466930
:100510006C616D656E742073657474696E67733A8F
:100520002044697361626C65640020204D32303074
:1005300020543120440020204D32303020440046E9
:10054000696C616D656E742073657474696E677330
:100550003A0020430020440020490020204D333041
:10056000312050002043002044002049002050004A
:1005700020204D33303120450050494420736574AC
:1005800074696E67733A0020460020420020204DB7
:10059000313435204D3120480020460020420020D3
:1005A000204D313435204D302048004D6174657246
:1005B00069616C2068656174757020706172616D2D
:1005C00065746572733A00205A0020590020204D4E
:1005D000323036205800486F6D65206F666673654F
:1005E0007420286D6D293A00204500205A002058BB
:1005F0000020420020540020204D3230352053008E
:10060000416476616E636564207661726961626CD3
:1006100065733A20533D4D696E206665656472616D
:10062000746520286D6D2F73292C20543D4D696E03
:100630002074726176656C206665656472617465AC
:1006400020286D6D2F73292C20423D6D696E696DD8
:10065000756D207365676D656E742074696D6520B6
:10066000286D73292C20583D6D6178696D756D205A
:100670005859206A65726B20286D6D2F73292C20C4
:10068000205A3D6D6178696D756D205A206A6572DA
:100690006B20286D6D2F73292C2020453D6D6178CE
:1006A000696D756D2045206A65726B20286D6D2F10
:1006B00073290020540020520020204D3230342075
:1006C0005000416363656C65726174696F6E733A63
:1006D00020503D7072696E74696E672C20523D72B5
:1006E00065747261637420616E6420543D7472613C
:1006F00076656C00204500205A0020590020204DCE
:100700003230312058004D6178696D756D2041633C
:1007100063656C65726174696F6E20286D6D2F73EF
:1007200032293A00204500205A0020590020204D4F
:100730003230332058004D6178696D756D206665E3
:100740006564726174657320286D6D2F73293A009A
:10075000204500205A0020590020204D39322058D1
:100760000053746570732070657220756E69743AF9
:100770000048617264636F646564204465666175F6
:100780006C742053657474696E6773204C6F616478
:1007900065640053544F505045442E2000507269F8
:1007A0006E7465722073746F707065642064756513
:1007B00020746F206572726F72732E2046697820E4
:1007C000746865206572726F7220616E6420757343
:1007D00065204D39393920746F20726573746172E8
:1007E000742E202854656D70657261747572652071
:1007F00069732072657365742E2053657420697463
:100800002061667465722072657374617274696EBA
:100810006729004B494C4C45442E20005072696EAC
:100820007465722068616C7465642E206B696C6CF1
:1008300028292063616C6C6564210020746F6F202F
:100840006C6F6E6720657874727573696F6E207057
:10085000726576656E7465640020636F6C642065F4
:100860007874727573696F6E2070726576656E74D8
:100870006564006F6B00526573656E643A20005AC0
:10088000204F6666736574203A20007A5F6D617848
:100890003A20007A5F6D696E3A20005A204F6666F2
:1008A000736574005A204F6666736574206F6B0021
:1008B0004D333030205336353920503230300A4DE8
:1008C00033303020533639382050323030004F66C4
:1008D00066736574206170706C6965642E004D33B9
:1008E0003030205334302050323030004572723A6C
:1008F00020546F6F206661722100546F6F20666113
:10090000722066726F6D207265666572656E6365D2
:1009100020706F696E7400486F74656E64206F6636
:1009200066736574733A0053657474696E67205416
:10093000726176656C20416363656C657261746990
:100940006F6E3A200053657474696E672052657447
:100950007261637420416363656C65726174696F71
:100960006E3A200053657474696E67205072696E28
:100970007420416363656C65726174696F6E3A20BF
:100980000053657474696E67205072696E742061DB
:100990006E642054726176656C20416363656C659A
:1009A000726174696F6E3A20004D31343520533CCA
:1009B000696E6465783E206F7574206F6620726181
:1009C0006E67652028302D3129007A5F6D696E3A97
:1009D0002000795F6D696E3A2000785F6D696E3A2C
:1009E0002000205A3A0020593A0020436F756E7457
:1009F00020583A200020453A00205A3A0020593A1F
:100A000000583A004649524D574152455F4E414DBC
:100A1000453A4D61726C696E2056313B20537072BD
:100A2000696E7465722F6772626C206D6173687590
:100A30007020666F722067656E36204649524D57AA
:100A40004152455F55524C3A68747470733A2F2F77
:100A50006769746875622E636F6D2F4D61726C6982
:100A60006E4669726D776172652F4D61726C696E49
:100A70002050524F544F434F4C5F56455253494FAD
:100A80004E3A312E30204D414348494E455F54592E
:100A900050453A3344205072696E7465722045584F
:100AA0005452554445525F434F554E543A322055A7
:100AB0005549443A30303030303030302D303030DD
:100AC000302D303030302D303030302D303030302F
:100AD00030303030303030300A00334420507269CA
:100AE0006E746572204F66662E0033442050726922
:100AF0006E7465722072656164792E0042656420AF
:100B0000646F6E652E0020423A0020453A00543A48
:100B1000004265642048656174696E672E0048650F
:100B20006174696E6720646F6E652E003F00205708
:100B30003A0020453A00543A0048656174696E678E
:100B40002E2E2E002042403A0020403A00202F0056
:100B5000205400202F0020423A00202F0020543A39
:100B6000006F6B005374616E64617264204465763B
:100B7000696174696F6E3A20004D65616E3A2000BC
:100B80002020207369676D613A2000206D65616ED9
:100B90003A20002020207A3A2000206F6620007939
:100BA0003A2000783A2000506F736974696F6E695B
:100BB0006E67207468652070726F62652E2E2E0A33
:100BC000003F4E756D626572206F66206C656773BD
:100BD00020696E206D6F76656D656E74206E6F7422
:100BE00020706C61757369626C652028302D313519
:100BF000292E0A003F5920706F736974696F6E2047
:100C00006F7574206F662072616E67652E0A003FF3
:100C10005820706F736974696F6E206F7574206FE0
:100C2000662072616E67652E0A003F53616D706CBD
:100C3000652073697A65206E6F7420706C617573BE
:100C400069626C652028342D3530292E0A004D3418
:100C500038205A2D50726F6265205265706561743C
:100C60006162696C69747920746573740A003F5617
:100C70006572626F7365204C6576656C206E6F746B
:100C800020706C61757369626C652028302D342981
:100C90002E0A002569206D696E2C20256920736558
:100CA0006300456E642066696C65206C697374002E
:100CB000426567696E2066696C65206C69737400B3
:100CC0004E6F206D6F76652E003344205072696E32
:100CD0007465722072656164792E00526573756D5A
:100CE000696E67207072696E74005761697420665E
:100CF0006F7220757365722E2E2E00205A3A2000D6
:100D000020593A200020583A200042656400205AB9
:100D10003A200020593A200020583A2000426564C9
:100D200000202B002B2D2D2D2D2D2D2D2D2D2D2D5E
:100D30002B0A007C2E2E2E46726F6E742E2E2E7C69
:100D40000A007C4C6566742E2E52696768747C0AB2
:100D5000007C2E2E2E4261636B2E2E2E2E7C0A00DE
:100D60002B2D2D2D2D2D2D2D2D2D2D2D2B0A002014
:100D70000A4265642048656967687420546F706F23
:100D80006772617068793A200A004D65616E206F64
:100D9000662073616D706C656420706F696E74732A
:100DA0003A200020643A200020623A200045716E0B
:100DB00020636F656666696369656E74733A206166
:100DC0003A20003F50726F62652028422961636BB0
:100DD00020706F736974696F6E206F7574206F6611
:100DE0002072616E67652E0A003F50726F62652047
:100DF000284629726F6E7420706F736974696F6E04
:100E0000206F7574206F662072616E67652E0A0010
:100E10003F50726F6265202852296967687420709C
:100E20006F736974696F6E206F7574206F662072BE
:100E3000616E67652E0A003F50726F626520284C14
:100E40002965667420706F736974696F6E206F75A1
:100E500074206F662072616E67652E0A003F4E75C2
:100E60006D626572206F662070726F626564202803
:100E700050296F696E747320697320696D706C619D
:100E8000757369626C65202832206D696E696D75B5
:100E90006D292E0A0052756E6E696E6720696E208C
:100EA0004452592D52554E206D6F646500473239BA
:100EB000204175746F20426564204C6576656C69CD
:100EC0006E670A003F2856296572626F7365204C71
:100ED0006576656C20697320696D706C61757369E6
:100EE000626C652028302D34292E00486F6D6520F6
:100EF000582F59206265666F7265205A00486F6DE1
:100F00006520582F59206265666F7265205A004827
:100F10006F6D6520582F59206265666F7265205A83
:100F200000486F6D6520582F59206265666F7265A5
:100F3000205A005A2070726F6265206F75742E20DF
:100F4000626564005A2070726F6265206F75742E3E
:100F50002062656400536C6565702E2E2E002200A1
:100F6000556E6B6E6F776E20636F6D6D616E643A58
:100F70002022007A20646573743A00256920686F26
:100F8000757273202569206D696E757465730044F0
:100F90006F6E65207072696E74696E672066696C29
:100FA000650053544F505045442E20005072696ED6
:100FB0007465722073746F70706564206475652049
:100FC000746F206572726F72732E20466978207478
:100FD0006865206572726F7220616E64207573653A
:100FE000204D39393920746F2072657374617274C1
:100FF0002E202854656D7065726174757265206964
:10100000732072657365742E205365742069742093
:1010100061667465722072657374617274696E675B
:1010200029004E6F204C696E65204E756D626572A9
:10103000207769746820636865636B73756D2C2015
:101040004C617374204C696E653A20004E6F2043EA
:101050006865636B73756D2077697468206C696E61
:1010600065206E756D6265722C204C617374204C26
:10107000696E653A2000636865636B73756D206DFA
:1010800069736D617463682C204C617374204C69C2
:101090006E653A20004C696E65204E756D62657212
:1010A000206973206E6F74204C617374204C696EDC
:1010B00065204E756D6265722B312C204C61737406
:1010C000204C696E653A20004D313130006F6B0065
:1010D000446F6E6520736176696E672066696C6522
:1010E0002E004D3239002020506C616E6E657242C8
:1010F000756666657242797465733A20002046729F
:101100006565204D656D6F72793A200041756720E5
:101110003239203230313500436F6D70696C65644F
:101120003A2000466C6F00207C20417574686F7215
:101130003A20004175672032392032303135203174
:10114000303A31393A353500204C6173742055708E
:1011500064617465643A200020312E302E3320649F
:101160006576004D61726C696E0020536F6674770E
:1011700061726520526573657400205761746368FD
:10118000646F67205265736574002042726F776EDA
:10119000206F7574205265736574002045787465FE
:1011A000726E616C20526573657400506F77657262
:1011B0005570007374617274002200656E717565FC
:1011C0007565696E67202200FFFFFF0000A04000E8
:1011D00000A040000000400000344300007A4300BB
:1011E0000048430000000000000000000000000074
:1011F00000344300007A4300004843000000000030
:10120000000000000000006563686F3A00457272DC
:101210006F723A0020746F6F206C6F6E6720657874
:1012200074727573696F6E2070726576656E746521
:10123000640020636F6C6420657874727573696FE5
:101240006E2070726576656E746564000000211012
:10125000422063308440A550C660E7700881299120
:101260004AA16BB18CC1ADD1CEE1EFF131121002C8
:1012700073325222B5529442F772D6623993188370
:101280007BB35AA3BDD39CC3FFF3DEE36224433494
:1012900020040114E664C774A44485546AA54BB5C0
:1012A00028850995EEE5CFF5ACC58DD55336722668
:1012B00011163006D776F6669556B4465BB77AA710
:1012C00019973887DFF7FEE79DD7BCC7C448E558B4
:1012D0008668A7784008611802282338CCC9EDD960
:1012E0008EE9AFF9488969990AA92BB9F55AD44A08
:1012F000B77A966A711A500A333A122AFDDBDCCBB0
:10130000BFFB9EEB799B588B3BBB1AABA66C877CD3
:10131000E44CC55C222C033C600C411CAEED8FFDFF
:10132000ECCDCDDD2AAD0BBD688D499D977EB66EA7
:10133000D55EF44E133E322E511E700E9FFFBEEF4F
:10134000DDDFFCCF1BBF3AAF599F788F8891A98111
:10135000CAB1EBA10CD12DC14EF16FE18010A100FB
:10136000C230E3200450254046706760B9839893EB
:10137000FBA3DAB33DC31CD37FE35EF3B10290124B
:10138000F322D2323542145277625672EAB5CBA5B7
:10139000A89589856EF54FE52CD50DC5E234C3249B
:1013A000A01481046674476424540544DBA7FAB78B
:1013B0009987B8975FE77EF71DC73CD7D326F236EB
:1013C0009106B01657667676154634564CD96DC9D7
:1013D0000EF92FE9C899E9898AB9ABA9445865483B
:1013E00006782768C018E1088238A3287DCB5CDB2B
:1013F0003FEB1EFBF98BD89BBBAB9ABB754A545A8B
:10140000376A167AF10AD01AB32A923A2EFD0FEDF6
:101410006CDD4DCDAABD8BADE89DC98D267C076CDA
:10142000645C454CA23C832CE01CC10C1FEF3EFFCA
:101430005DCF7CDF9BAFBABFD98FF89F176E367E2A
:10144000554E745E932EB23ED10EF01E7C3C3E5E35
:101450002B3D3F2F5B5D3B2C2A225C004D38342016
:10146000582059205A204500656E6473746F70735C
:10147000206869743A205A00205A3A00656E6473F5
:10148000746F7073206869743A20590020593A00CB
:10149000656E6473746F7073206869743A205800C5
:1014A00020583A00656E6473746F707320686974B5
:1014B0003A200024F4D43050C38E20C2A2401782B8
:1014C0008B7011127A910D816CD90AA861E108C75D
:1014D000586607615143061E4B5D05C145A7041AB6
:1014E000411104093D9803713931034036DB02652F
:1014F000339102D4305402802E1D02632CEE01750C
:101500002AC501B028A001102781018F2564012B75
:10151000244B01E0223401AC211F018D200D0180FC
:101520001FFC00841EED00971DDF00B81CD200E6F2
:101530001BC600201BBC00641AB200B219A8000A26
:1015400019A0006A189900D117910040178B00B5B7
:1015500016840031167E00B31579003A157300C762
:10156000146F0058146A00EE136600881363002598
:10157000135E00C7125B006C12570015125400C1B5
:1015800011510070114F0021114B00D61049008DF0
:101590001047004610440002104200C00F40008077
:1015A0000F3E00420F3C00060F3B00CB0E3800936D
:1015B0000E37005C0E3500270E3400F30D3200C1EB
:1015C0000D3100900D3000600D2E00320D2D000504
:1015D0000D2C00D90C2B00AE0C2900850C29005CC9
:1015E0000C2700350C27000E0C2600E80B2400C445
:1015F0000B2400A00B23007D0B23005A0B21003984
:101600000B2100180B2000F80A1F00D90A1E00BB8E
:101610000A1E009D0A1D00800A1D00630A1C004767
:101620000A1B002C0A1B00110A1A00F7091A00DD18
:10163000091900C4091900AB091900920917007BA8
:10164000091800630917004C091600360916002016
:101650000916000A091500F5081500E0081400CC69
:10166000081400B8081400A4081400900813007DA2
:101670000812006B081300580812004608120034C4
:10168000081100230811001208110001081100F0D0
:10169000071000E0071000D0071000C0071000B0CE
:1016A000070F00A107100091070E0083070F0074B9
:1016B000070F0065070E0057070E0049070E003B95
:1016C000070D002E070E0020070D0013070D000662
:1016D000070D00F9060C00ED060D00E0060C00D425
:1016E000060C00C8060C00BC060C00B0060C00A4DA
:1016F000060B0099060C008D060B0082060B007786
:10170000060B006C060B0061060A0057060B004C26
:10171000060A0042060A0038060A002E060A0024BD
:10172000060A001A060A001006090007060A00FD4C
:10173000050900F4050900EB050900E2050900D9D7
:10174000050900D0050900C7050900BE050900B557
:10175000050800AD050800A50509009C05080094D2
:101760000508008C050800840508007C0508007445
:101770000508006C050700650508005D05070056B3
:101780000508004E0507004705070040050800381A
:10179000050700310507002A050700230507001C7F
:1017A000050600160507000F0507000805060002DC
:1017B000050700FB040600F5040700EE040600E838
:1017C000040600E2040700DB040600D5040600CF8F
:1017D000040600C9040600C3040600BD040600B7E1
:1017E000040600B1040500AC040600A6040600A02F
:1017F0000405009B04060095040500900406008A79
:1018000004050085040500800406007A04050075BF
:10181000040500700405006B040500660405006102
:101820000405005C04050057040500520405004D42
:1018300004050048040500430405003E0404003A82
:1018400004050035040500300404002C04050027BD
:10185000040400230405001E0404001A04040016F6
:10186000040500110404000D04040009040500042B
:1018700004040000040400FC030400F8030400F462
:10188000030400F0030400EC030400E8030400E494
:10189000030400E0030400DC030400D8030400D4C4
:1018A000030400D0030400CC030400C8030300C5F4
:1018B00003030024F404D9201BC40C5C0E9804C458
:1018C000095F0265077101F405F900FB04B30048E4
:1018D000048700C10369005803550003034500BE97
:1018E000023A008402310053022A00290225000432
:1018F000022000E4011C00C8011900AF0117009884
:1019000001140084011300710110006101100051E5
:10191000010E0043010D0036010B002B010B0020CE
:10192000010B00150109000C01090003010800FB6F
:10193000000800F3000800EB000700E4000600DEEA
:10194000000600D8000600D2000600CC000500C743
:10195000000500C2000500BD000400B9000400B588
:10196000000400B1000400AD000400A9000400A5BB
:10197000000300A20003009F0004009B00030098E6
:101980000003009500020093000300900003008D07
:101990000002008B00030088000200860002008421
:1019A000000300810002007F0002007D0002007B36
:1019B0000002007900020077000100760002007446
:1019C00000020072000100710002006F0002006D51
:1019D0000001006C0002006A00010069000200675B
:1019E0000001006600010065000100640002006261
:1019F00000010061000100600001005F0002005D65
:101A00000001005C0001005B0001005A0001005968
:101A10000001005800010057000100560001005568
:101A20000001005400010053000000530001005267
:101A300000010051000100500001004F0001004E64
:101A40000000004E0001004D0001004C0001004B61
:101A50000000004B0001004A00010049000100485D
:101A60000000004800010047000100460000004659
:101A70000001004500000045000100440001004352
:101A8000000000430001004200000042000100414C
:101A900000000041000100400001003F0000003F45
:101AA0000001003E0000003E0001003D0000003D3E
:101AB0000001003C0000003C0000003C0001003B35
:101AC0000000003B0001003A0000003A000100392C
:101AD0000000003900010038000000380000003824
:101AE000000100370000003700010036000000361A
:101AF0000000003600010035000000350000003510
:101B00000001003400000034000000340001003304
:101B100000000033000000330001003200000032FA
:101B200000000032000100310000003100000031EF
:101B30000001003000000030000000300001002FE4
:101B40000000002F0000002F0000002F0001002ED9
:101B50000000002E0000002E0001002D0000002DCE
:101B60000000002D0000002D0001002C0000002CC2
:101B70000000002C0000002C0001002B0000002BB6
:101B80000000002B0000002B0001002A0000002AAA
:101B90000000002A0000002A00010029000000299E
:101BA0000000002900000029000000290001002891
:101BB0000000002800000028000000280000002885
:101BC0000001002700000027000000270000002778
:101BD000000000270001002600000026000000266B
:101BE000000000260000002600010025000000255E
:101BF0000000002500000025000000250000002551
:101C00000001002400000024000000240000002443
:101C10000000002400010023000000230000002336
:101C20000000002300000023000000230000002328
:101C3000000100220000002200000022000000221B
:101C4000000000220000002200010021000000210D
:101C50000000002100000021000000210000002100
:101C600000000021000100200000002000000020F2
:101C700000000020000000200000002000000020E4
:101C8000000000200001001F0000001F0000001FD6
:101C90000000001F0000001F0000001F0000001FC8
:101CA0000001001E0000001E0000001E0000001EBB
:101CB0000000004865617465642062656420737784
:101CC000697463686564206F66662E204D415854C0
:101CD000454D5020747269676765726564202121E3
:101CE000004572723A204D415854454D50204245AE
:101CF00044003A2045787472756465722073776980
:101D00007463686564206F66662E204D494E5445A5
:101D10004D502074726967676572656420210045C3
:101D200072723A204D494E54454D50003A20457844
:101D30007472756465722073776974636865642072
:101D40006F66662E204D415854454D50207472697F
:101D5000676765726564202121004572723A204DE3
:101D6000415854454D50004B64200023646566691A
:101D70006E65202044454641554C545F004B692018
:101D80000023646566696E65202044454641554CD4
:101D9000545F004B70200023646566696E652020E7
:101DA00044454641554C545F0050494420417574A8
:101DB0006F74756E652066696E697368656421204D
:101DC00050757420746865206C617374204B702C9E
:101DD000204B6920616E64204B6420636F6E7374C6
:101DE000616E74732066726F6D2062656C6F772010
:101DF000696E746F20436F6E66696775726174698E
:101E00006F6E2E6800504944204175746F74756E72
:101E100065206661696C6564212074696D656F7504
:101E2000740020403A006F6B20543A006F6B2042E0
:101E30003A00504944204175746F74756E65206690
:101E400061696C6564212054656D7065726174759B
:101E5000726520746F6F206869676800204B643A70
:101E60002000204B693A2000204B703A200020438C
:101E70006C61737369632050494420002054753AA3
:101E80002000204B753A2000206D61783A20002018
:101E90006D696E3A200020643A2000206269617307
:101EA0003A200010005E01C001FA00F001F5003098
:101EB00002F0007002EB00A002E600C002E1001098
:101EC00003DC005003D700E003D2007004CD00E033
:101ED00004C800E005BE006006B9004007AA00F093
:101EE00008A000700B9600F00D8C00E0108200E05E
:101EF000137800F0176E00D0196900701B64004061
:101F00001E5F0010205A00F025500080294600D0A6
:101F1000303C00A03237001035320020392D00202F
:101F2000392800703A2300A03B1E00A03C19002075
:101F30003D1600003F0300F03F0000473238004DDF
:101F4000343238002D2D3A2D2D002D2D2D005344E7
:101F500000012000012000012000466C6F77203135
:101F600000466C6F77203100466C6F77203000465A
:101F70006C6F77203000466C6F7700466C6F77008F
:101F800046616E2073706565640046616E207370F3
:101F90006565640042656400426564004E6F7A7A4C
:101FA0006C652032004E6F7A7A6C652032004E6F7D
:101FB0007A7A6C65004E6F7A7A6C6500537065654D
:101FC00064005370656564004D61696E0058005986
:101FD000005A0045787472756465720045787472B1
:101FE00075646572004D6F7665205A004D6F766599
:101FF0002059004D6F76652058004D6F7665206141
:10200000786973004D6F766520302E316D6D004D0F
:102010006F766520316D6D004D6F76652031306DC6
:102020006D0050726570617265005072656865611F
:102030007420504C412042656400507265686561AF
:102040007420504C4120416C6C0050726568656191
:102050007420504C412032005072656865617420D4
:10206000504C4120310050726570617265005072B1
:102070006568656174204142532042656400507276
:1020800065686561742041425320416C6C00507258
:102090006568656174204142532032005072656862
:1020A0006561742041425320310050726570617245
:1020B00065004D38300053776974636820706F771E
:1020C0006572206F6E004D38310053776974636814
:1020D00020706F776572206F666600436F6F6C6467
:1020E0006F776E00507265686561742041425300DD
:1020F0005072656865617420504C41004D38340061
:1021000044697361626C6520737465707065727385
:10211000004D6F7665206178697300473239004C55
:102120006576656C206265640053657420686F6D28
:1021300065206F66667365747300473238004175B9
:10214000746F20686F6D65004D61696E0042656453
:1021500000426564004E6F7A7A6C65004E6F7A7A41
:102160006C650046616E2073706565640046616E43
:102170002073706565640054656D70657261747577
:1021800072650042656400426564004E6F7A7A6C45
:1021900065004E6F7A7A6C650046616E20737065DB
:1021A00065640046616E2073706565640054656DFA
:1021B00070657261747572650050726568656174EE
:1021C0002041425320636F6E6600507265686561FE
:1021D0007420504C4120636F6E66005049442D437B
:1021E000005049442D43005049442D440050494477
:1021F0002D44005049442D49005049442D49005078
:1022000049442D50005049442D5000200220466181
:1022100063740020022046616374002002204D6137
:1022200078002002204D6178002002204D696E0068
:102230002002204D696E004175746F74656D7000E9
:102240004F6666004F6E200046616E2073706565B4
:10225000640046616E2073706565640042656400C9
:10226000426564004E6F7A7A6C652032004E6F7A58
:102270007A6C652032004E6F7A7A6C65004E6F7A08
:102280007A6C6500436F6E74726F6C004573746591
:1022900070732F6D6D004573746570732F6D6D00D5
:1022A0005A73746570732F6D6D005A737465707313
:1022B0002F6D6D005973746570732F6D6D005973B8
:1022C000746570732F6D6D005873746570732F6D26
:1022D0006D005873746570732F6D6D00412D7472AD
:1022E0006176656C00412D74726176656C00412DDC
:1022F0007265747261637400412D726574726163FA
:102300007400416D6178206500416D617820650041
:10231000416D6178207A00416D6178207A00416DCD
:102320006178207900416D6178207900416D617894
:10233000207800416D6178207800565472617620D3
:102340006D696E005654726176206D696E00566D2F
:10235000696E00566D696E00566D61782065005695
:102360006D6178206500566D6178207A00566D6148
:1023700078207A00566D6178207900566D6178205A
:102380007900566D6178207800566D61782078006C
:1023900056652D6A65726B0056652D6A65726B0015
:1023A000567A2D6A65726B00567A2D6A65726B00DB
:1023B0005678792D6A65726B005678792D6A657248
:1023C0006B00416363656C00416363656C005A2078
:1023D0004F6666736574005A204F666673657400B5
:1023E000436F6E74726F6C0046696C2E2044696195
:1023F0002E20320046696C2E204469612E20320066
:1024000046696C2E204469612E20310046696C2E8D
:10241000204469612E2031004520696E206D6D33A6
:10242000004F6666004F6E2000436F6E74726F6CD3
:1024300000526573746F7265206661696C736166C2
:10244000650046696C616D656E74004D6F74696FEF
:102450006E0054656D7065726174757265004D61D2
:10246000696E004D3234004D323320257300052E45
:102470002E000452656672657368004D61696E00D6
:102480004D323100496E69742E20534420636172CD
:1024900064004E6F2053442063617264004D3231FA
:1024A000004368616E676520534420636172640075
:1024B0005072696E742066726F6D205344005374BD
:1024C0006F70207072696E7400526573756D65204F
:1024D0007072696E74005061757365207072696EF8
:1024E0007400436F6E74726F6C005072657061722D
:1024F000650054756E6500496E666F207363726582
:10250000656E00207A3A200020793A200020783A3F
:10251000200000000A0B02090C0D0E08070304013D
:1025200000000000000000000000000000000000AB
:102530000000000000000000000000000000121178
:10254000100000000000000000000000000000007B
:102550000000000000000000010210202008081008
:102560002040102040800201020108040201010203
:1025700004081020408080402010080402018004DC
:102580000201804020100804020108040201010237
:102590000408102040800102040810204080050536
:1025A0000505070508080808020202020A0A0808C9
:1025B00004040404010101010101010103030303F7
:1025C00003030303040707070C0C0C0C0C0C0C0C86
:1025D0000202020206060606060606060B0B0B0B97
:1025E0000B0B0B0B000020002300260029002C0001
:1025F0002F00320000010000030106010901000064
:102600002200250028002B002E003100340002019A
:102610000000050108010B01000021002400270033
:102620002A002D00300033000101000004010701E1
:102630000A01024E414E494E495459494E46CDCCAD
:10264000CC3D0AD7233C17B7D13877CC2B329595A0
:10265000E6241FB14F0A000020410000C84200409C
:102660001C4620BCBE4CCA1B0E5AAEC59D74B35F3F
:1026700011BA7EE7B75F11241FBECFEFD1E2DEBFF4
:10268000CDBF00E00CBF15E0A0E0B2E0E8E4F8EF59
:1026900001E00BBF02C007900D92A03AB107D9F735
:1026A00024E1A0EAB5E001C01D92AE37B207E1F720
:1026B00016E2C4E7D6E200E006C022970109FE0157
:1026C0000BBF0E94A3F4CE36D10780E00807A9F71C
:1026D0000E949DEB0C9412FC0C940000FC011482EF
:1026E0001782138212828CE095E091838083089593
:1026F0002CE035E0FC01318320832781222319F06F
:1027000004960C94EE8E0895CF92DF92EF92FF9292
:102710000F931F93CF93DF93EC018F960E946E135C
:10272000CE01805B9F4F0E946E137E012FE6E20E6A
:10273000F11C87016E013BE5C31A3EEFD30AC801C5
:102740000E946E13015E1F4F0C151D05C1F7FE019F
:10275000E955FE4F89E1818314823596178ACE01AF
:1027600086539E4F0E946E13FE01E558FD4F108266
:102770001182128213823896108211821282138281
:102780001A821B8218821982F80111821082FE01BE
:10279000E751FE4F108286E391E0F7019C01119210
:1027A00021503040E1F7FE01E957FD4F81E0808381
:1027B0001EA61DA60E9426E9C158DD4F68577C4E13
:1027C0008F4F9F4F688379838A839B83DF91CF915B
:1027D0001F910F91FF90EF90DF90CF900895FC0133
:1027E00020E03EE2DB014C91403241F0283011F410
:1027F00030833196DB014C91408331962F5F6F5FC0
:102800007F4F2B3079F7108208952F923F924F928D
:102810005F926F927F928F929F92AF92BF92CF9270
:10282000DF92EF92FF920F931F93CF93DF93CDB779
:10283000DEB7C858D1090FB6F894DEBF0FBECDBFC2
:102840008C016B017A014901CA57DF4F1882C658C3
:10285000D04084E0E80EF11C1801E2E12E0E311C9C
:102860003801F8E76F1AFDEF7F0A580186E7A81ACA
:102870008DEFB80A80E4482E512C4C0E5D1EE4E02A
:102880004E0E511CA101BE016F5F7F4FC7010E9418
:10289000538D18160CF033C12C85322F387130311E
:1028A00039F4F301808191810197029708F08BC080
:1028B0008981882309F423C18E3221F3F8018289AA
:1028C0008E3201F323FDDECF81E0303109F080E06C
:1028D000F8018483811106C08985873499F68A8539
:1028E0008E3781F298012B5F3F4FBE016F5F7F4FA4
:1028F000C901C957DF4F2883C758D040C857DF4F99
:102900003883C858D0400E94EF13F3018081918131
:10291000C957DF4F2881C758D040C857DF4F38818B
:10292000C858D0400097F1F4F6018191882339F01E
:102930009091C00095FFFCCF8093C600F6CFF901BF
:102940008191882339F09091C00095FFFCCF80934E
:10295000C600F6CF8091C00085FFFCCF8AE080934F
:10296000C60090CF8130910539F4F50180819181C5
:1029700001969183808386CF029709F083CF8114DB
:10298000910439F0B901C4010E94E9F8892B79F466
:10299000B6C0CA57DF4FF881C658D0402F2F30E05D
:1029A000F501808191812817390709F4A8C0CA5719
:1029B000DF4FF881C658D040FF5FCA57DF4FF8831A
:1029C000C658D0405FCFBE016F5F7F4FCE018758A2
:1029D0009F4F0E94EF13A0961FAEA097F601808133
:1029E000811107C066E573E0CE01815A9F4F0E94B6
:1029F000FCF8B601CE01815A9F4F0E94FCF8BE013F
:102A000067587F4FCE01815A9F4F0E94FCF866E5C0
:102A100073E0CE01815A9F4F0E94FCF8CE01805C8A
:102A20009F4F0E946E1321E0AE0147585F4FB701E0
:102A3000C2010E94F790811139C0F3018081918118
:102A4000892BA1F5E7E0F2E18491882341F0909190
:102A5000C00095FFFCCF8093C6003196F5CFE8E526
:102A6000F3E08191882339F09091C00095FFFCCF6D
:102A70008093C600F6CF8091C00085FFFCCF8AE02E
:102A80008093C600FE01E758FF4F8191882339F0FB
:102A90009091C00095FFFCCF8093C600F6CF809147
:102AA000C00085FFFCCF8AE08093C6008BE1FE0169
:102AB000EC5BFF4FDE01959601900D928A95E1F750
:102AC00024968EAD9FAD24979CA38BA38CE095E0BC
:102AD0009AA389A320E030E0AE014F5D5F4FBE01B5
:102AE000615A7F4FC8010E940514CE0181960E9451
:102AF0007813CE01805C9F4F0E947813C3CEC857D5
:102B0000DF4F0FB6F894DEBF0FBECDBFDF91CF9180
:102B10001F910F91FF90EF90DF90CF90BF90AF90FB
:102B20009F908F907F906F905F904F903F902F90ED
:102B30000895EF92FF920F931F93CF93DF93CDB73A
:102B4000DEB76F970FB6F894DEBF0FBECDBF8C0116
:102B5000FC01E857FD4F118210827C0183E3E80EEF
:102B6000F11C40E050E0BA01C7010E94088E8BE1E1
:102B7000F701DE01159601900D928A95E1F7F801B3
:102B800081A992A99C838B838CE095E09A838983A9
:102B900020E030E0AE014F5F5F4F63E275E0C801B7
:102BA0000E940514CE0101960E9478136F960FB60D
:102BB000F894DEBF0FBECDBFDF91CF911F910F9173
:102BC000FF90EF9008952BE1FB013496DC01149601
:102BD00001900D922A95E1F7FB0122813381FC01DE
:102BE000338322830895EF92FF920F931F93CF9325
:102BF000DF93EC011B828EA9882321F0CE01C396BE
:102C00000E94EE8E7E0189E5E81A8EEFF80A45E310
:102C100060E0C7010E94288981111FC0E7E0F2E14E
:102C20008491882341F09091C00095FFFCCF809360
:102C3000C6003196F5CFE5EEF4E08491882341F0AB
:102C40009091C00095FFFCCF8093C6003196F5CFE0
:102C50008091C00085FFFCCF76C08E0104551E4FC9
:102C600041E0B701C8010E941F97811126C040E0D2
:102C7000B701C8010E941F9781111FC0EDE0F2E16A
:102C80008491882341F09091C00095FFFCCF809300
:102C9000C6003196F5CFE2EDF4E08491882341F04F
:102CA0009091C00095FFFCCF8093C6003196F5CF80
:102CB0008091C00085FFFCCF46C0B801CE01C3960D
:102CC0000E94F38B81111FC0EDE0F2E18491882313
:102CD00041F09091C00095FFFCCF8093C6003196E3
:102CE000F5CFE2ECF4E08491882341F09091C000AC
:102CF00095FFFCCF8093C6003196F5CF8091C00040
:102D000085FFFCCF20C081E08B83E7E0F2E1849176
:102D1000882341F09091C00095FFFCCF8093C600BE
:102D20003196F5CFE7EBF4E08491882341F0909160
:102D3000C00095FFFCCF8093C6003196F5CF8091FF
:102D4000C00085FFFCCF8AE08093C6008E01015D44
:102D50001F4FB801CE01805B9F4F0E94E315C25BFD
:102D6000DF4F19830883DF91CF911F910F91FF905F
:102D7000EF900895FC01128213820895FC012381D3
:102D8000222311F021E022830895FC0122812111E8
:102D900012820895AF92BF92CF92DF92EF92FF928C
:102DA0000F931F93CF93DF931F92CDB7DEB78C01A4
:102DB0008FE2FB0181935F01D12C41E07801FBE5BB
:102DC000EF1AFEEFFF0A9FE1C92E2D2D30E0F7012B
:102DD0008081918128173907D8F4C29EC001C39E13
:102DE000900D11248D589F4FB501800F911F49837D
:102DF0000E94988BC50149815C010196F5012081F3
:102E0000222321F04D3810F44F5FF6CFD394DDCF5D
:102E100047FD11C0B501C80182539E4F0F90DF914D
:102E2000CF911F910F91FF90EF90DF90CF90BF90C7
:102E3000AF900C94988BF50110820F90DF91CF9199
:102E40001F910F91FF90EF90DF90CF90BF90AF90C8
:102E500008953F924F925F926F927F928F929F92CE
:102E6000AF92BF92CF92DF92EF92FF920F931F9398
:102E7000CF93DF93CDB7DEB7AC970FB6F894DEBF34
:102E80000FBECDBF7C015B01FC018381882309F467
:102E9000EFC0C70182539E4F0E94EE8EF70112824F
:102EA000CE0101966C010E946E1327019EE4490E2B
:102EB000511CC7018F96F20191838083F5018081B7
:102EC0008F3209F077C06FE270E0C5010E9407F908
:102ED0008C010F5F1F4F2AE0322E0115110509F4F6
:102EE0006FC06FE270E0C8010E9407F94C010097C3
:102EF00009F467C00817190708F063C03C01601A9D
:102F0000710AA301B801CE0180960E9430F9E0E277
:102F1000F0E0EC0FFD1FE60DF71D1082FE01B096EC
:102F20008191882339F09091C00095FFFCCF809368
:102F3000C600F6CF8091C00085FFFCCF3092C6005E
:102F4000F201608171816115710519F06C5F7F4F2D
:102F500002C060E070E021E0AE01405E5F4FCE0154
:102F600005960E94F79081111EC0E2EAF3E0849179
:102F7000882341F09091C00095FFFCCF8093C6005C
:102F80003196F5CFFE01B0968191882339F090916A
:102F9000C00095FFFCCF8093C600F6CF8091C000A3
:102FA00085FFFCCF5FC0F201D182C08284010F5F38
:102FB0001F4F93CFC701805B9F4FF20191838083A6
:102FC0008501F20180819181009711F0049602C081
:102FD00080E090E0B8010E94D791811103C0ECE736
:102FE000F3E02EC0E4E9F3E08491882341F090916E
:102FF000C00095FFFCCF8093C6003196F5CFF80155
:103000008191882339F09091C00095FFFCCF809387
:10301000C600F6CF8091C00085FFFCCF8AE0809388
:10302000C600F701ED57FD4F108211821282138204
:103030001CC09091C00095FFFCCF8093C6003196D4
:1030400084918111F6CFF8018191882339F0909114
:10305000C00095FFFCCF8093C600F6CF8091C000E2
:1030600085FFFCCF8EE28093C600C6010E947813D4
:10307000AC960FB6F894DEBF0FBECDBFDF91CF91F7
:103080001F910F91FF90EF90DF90CF90BF90AF9086
:103090009F908F907F906F905F904F903F9008959A
:1030A000CF93DF93EC018B81811103C0EAE5F3E05C
:1030B00039C0EAE6F3E08491882341F09091C000A2
:1030C00095FFFCCF8093C6003196F5CFFE01ED57FA
:1030D000FD4F40815181628173812AE030E080EAB6
:1030E00095E00E94F9268091C00085FFFCCF8FE219
:1030F0008093C600C558DD4F488159816A817B8124
:103100002AE030E080EA95E00E94F9268091C00034
:1031100085FFFCCF0EC09091C00095FFFCCF80933F
:10312000C600319684918111F6CF8091C00085FF51
:10313000FCCF8AE08093C600DF91CF910895AF92D3
:10314000BF92CF92DF92EF92FF920F931F93CF9394
:10315000DF935C01EB01FB0101900020E9F78F0197
:1031600001501109061B170B6C01F2E3CF1AFEEF99
:10317000DF0AF60110826EE470E0CE010E9407F9CA
:103180007C01009729F4F8013197EC0FFD1F0DC069
:1031900060E270E00E9407F9EC0121966AE270E0BB
:1031A000C7010E9407F9FC0131978DE081838AE015
:1031B00082831382BE01C50186539E4F0E94BD9338
:1031C000F6018081882309F1EDE0F2E18491882302
:1031D00041F09091C00095FFFCCF8093C6003196DE
:1031E000F5CFE4E4F3E08491882341F09091C000AE
:1031F00095FFFCCF8093C6003196F5CF8091C0003B
:1032000085FFFCCF8AE08093C600DF91CF911F91AC
:103210000F91FF90EF90DF90CF90BF90AF90089507
:103220002F923F924F925F926F927F928F929F92D6
:10323000AF92BF92CF92DF92EF92FF920F931F93C4
:10324000CF93DF93CDB7DEB7CC55D1090FB6F89445
:10325000DEBF0FBECDBF8C0189579D4F5C01611150
:1032600012C0FC018081882309F4B1C03897C08066
:10327000D180E280F3800E9426E9C616D706E806D0
:10328000F90608F4A4C0F5011082F80183818111C8
:1032900008C0C8010E94F315F8018381882309F44E
:1032A00096C0F80186A58F9385A58F938BE393E055
:1032B0009F938F937E01FFE3EF0EF11CFF92EF923D
:1032C0000E943FF90F900F900F900F900F900F906A
:1032D000B12CF70101900020E9F73197EE19FF09B1
:1032E000BE1684F46701CB0CD11CB7FCDA94F6014E
:1032F0008081992787FD90950E948AF8F601808346
:10330000B394E7CF4801F3E38F0E911C40E050E007
:10331000BA01C4010E94088E512CCE0101966C01A5
:1033200034E3632E33E0732E5E0191E2A90EB11CEB
:1033300040E050E0B601C4010E94538D1816DCF540
:10334000412CF60101900020E9F73197EC19FD09B5
:103350004E1674F41601240C311C47FC3A94F1010A
:10336000808190E00E948AF8F10180834394E9CF44
:103370008A858E37E9F245E050E0B701C6010E9428
:1033800022F9892BA9F6FF92EF927F926F92BF925A
:10339000AF920E943FF9C5010E94302880E393E07C
:1033A0000E94FA280F900F900F900F900F900F909F
:1033B00055245394BDCF511004C08FEF9FEFF801F7
:1033C00004C0F80185A596A5019696A785A7C45ABD
:1033D000DF4F0FB6F894DEBF0FBECDBFDF91CF91A8
:1033E0001F910F91FF90EF90DF90CF90BF90AF9023
:1033F0009F908F907F906F905F904F903F902F9015
:1034000008950F931F93CF93DF93EC018C01025328
:103410001E4FC8010E94A28EC8010E94EE8E198222
:103420001882DF91CF911F910F910895CF92DF9273
:10343000EF92FF920F931F93CF93DF93CDB7DEB739
:103440006F970FB6F894DEBF0FBECDBF8C016A0137
:103450007C018EE4E80EF11CC801805B9F4FF701F0
:1034600091838083E65CFD4F22E030E0318320834E
:1034700032967183608340E050E0BA0104960E9466
:10348000088EF701808191812BE1FC013496DE01E9
:10349000159601900D922A95E1F7FC0182819381A6
:1034A0009C838B838CE095E09A8389839601AE019F
:1034B0004F5F5F4F63E275E0C8010E940514CE01C3
:1034C00001960E9478136F960FB6F894DEBF0FBE78
:1034D000CDBFDF91CF911F910F91FF90EF90DF90C3
:1034E000CF9008952F923F924F925F926F927F926A
:1034F0008F929F92AF92BF92CF92DF92EF92FF9204
:103500000F931F93CF93DF93CDB7DEB7AC970FB672
:10351000F894DEBF0FBECDBF8C016B01342EFC01D1
:103520008381882309F4BCC2EF52FE4F8081882337
:1035300009F4F9C0222319F0E7E0F2E1CCC07801E8
:10354000F7E1EF1AFEEFFF0AF7018081811103C056
:10355000E7E0F2E133C0EDE0F2E18491882341F04D
:103560009091C00095FFFCCF8093C6003196F5CFB7
:10357000E4E7F4E08491882341F09091C00095FF46
:10358000FCCF8093C6003196F5CF4AE050E061E071
:1035900070E080EA95E00E94CA268091C00085FF15
:1035A000FCCF8AE08093C6000E94104679C29091B9
:1035B000C00095FFFCCF8093C600319684918111A5
:1035C000F6CFEBE5F4E08491882341F09091C000C0
:1035D00095FFFCCF8093C6003196F5CFF60181911F
:1035E000882339F09091C00095FFFCCF8093C600EE
:1035F000F6CFE0E5F4E08491882341F09091C0009B
:1036000095FFFCCF8093C6003196F5CFF7018081FE
:103610005DE8B52EB801B89E600D711D1124625190
:103620007E4FC8010E94CA16F7018081F801B89E3A
:10363000E00DF11D1124E251FE4F8191882339F0F4
:103640009091C00095FFFCCF8093C600F6CFEAE4CE
:10365000F4E08491882341F09091C00095FFFCCF65
:103660008093C6003196F5CF5801FDE7AF1AFDEF04
:10367000BF0AF50140815181628173812AE030E007
:1036800080EA95E00E94F9268091C00085FFFCCF7A
:103690008AE08093C600F7012081F80184E0289F2A
:1036A000E00DF11D1124AF0146515E4FF5018081FF
:1036B0009181A281B381FA0180839183A283B38334
:1036C0002F5FF701208329C09091C00095FFFCCFA8
:1036D0008093C600319684918111F6CFE9E3F4E03E
:1036E0008491882341F09091C00095FFFCCF809396
:1036F000C6003196F5CFF6018191882339F090917B
:10370000C00095FFFCCF8093C600F6CF8091C0002B
:1037100085FFFCCF8AE08093C600C80182539E4F8C
:103720000E94EE8E30C0F801E751FE4F1082E7E0B4
:10373000F2E18491882341F09091C00095FFFCCF85
:103740008093C6003196F5CFE8E2F4E084918823B7
:1037500041F09091C00095FFFCCF8093C600319658
:10376000F5CFF6018191882339F09091C00095FF43
:10377000FCCF8093C600F6CF8091C00085FFFCCFC0
:103780008AE08093C600F8011282CE0101965C01A6
:103790000E946E1328019EE4490E511CC8018F96A9
:1037A000F20191838083F60180818F3209F074C029
:1037B0007601FFEFEF1AFF0A4AE0242EE114F1042C
:1037C00009F470C06FE270E0C7010E9407F94C0174
:1037D000009709F468C0E816F90608F064C03C01D7
:1037E0006E187F08A301B701CE0180960E9430F9C0
:1037F000E0E2F0E0EC0FFD1FE60DF71D1082FE0188
:10380000B0968191882339F09091C00095FFFCCF4C
:103810008093C600F6CF8091C00085FFFCCF209238
:10382000C600F201608171816115710519F06C5F4C
:103830007F4F02C060E070E021E0AE01405E5F4F6C
:10384000CE0105960E94F79081111EC0E4E1F4E0DC
:103850008491882341F09091C00095FFFCCF809324
:10386000C6003196F5CFFE01B0968191882339F0DC
:103870009091C00095FFFCCF8093C600F6CF809159
:10388000C00085FFFCCFDFC0F201B182A0827401CD
:10389000FFEFEF1AFF0A92CFC801805B9F4FF20142
:1038A000918380837601C80182539E4F4C01F201BF
:1038B00060817181332009F49BC06115710519F095
:1038C0006C5F7F4F02C060E070E021E0A701C4019F
:1038D0000E94F790811103C0ECEDF3E076C09801EF
:1038E00025583D4FF40181899289A389B489F90152
:1038F00080839183A283B383E6E0F4E084918823FC
:1039000041F09091C00095FFFCCF8093C6003196A6
:10391000F5CFF7018191882339F09091C00095FF90
:10392000FCCF8093C600F6CFEEEFF3E084918823BE
:1039300041F09091C00095FFFCCF8093C600319676
:10394000F5CFF90140815181628173812AE030E035
:1039500080EA95E00E94F9268091C00085FFFCCFA7
:103960008AE08093C600F801ED57FD4F1082118266
:1039700012821382E0EFF3E08491882341F090916A
:10398000C00095FFFCCF8093C6003196F5CF8091A3
:10399000C00085FFFCCF8AE08093C600A70160E0ED
:1039A00070E0C8010E94161AF8018289882319F074
:1039B000C801429601C0C70160E06DC09091C0008F
:1039C00095FFFCCF8093C600319684918111F6CF8C
:1039D000F7018191882339F09091C00095FFFCCFC9
:1039E0008093C600F6CF8091C00085FFFCCF2BC02E
:1039F0006115710519F06C5F7F4F02C060E070E0E7
:103A000026E5A701C4010E94F790811120C0E8ECCF
:103A1000F3E08491882341F09091C00095FFFCCFA2
:103A20008093C6003196F5CFF7018191882339F054
:103A30009091C00095FFFCCF8093C600F6CF809197
:103A4000C00085FFFCCF8EE28093C60026C081E0D7
:103A5000F8018083E6EBF3E08491882341F09091B4
:103A6000C00095FFFCCF8093C6003196F5CFF601DC
:103A70008191882339F09091C00095FFFCCF80930D
:103A8000C600F6CF8091C00085FFFCCF8AE080930E
:103A9000C60060E0C7010E9401B2C5010E94781310
:103AA000AC960FB6F894DEBF0FBECDBFDF91CF91BD
:103AB0001F910F91FF90EF90DF90CF90BF90AF904C
:103AC0009F908F907F906F905F904F903F902F903E
:103AD000089521E0FC01218340E00C94721ACF92FA
:103AE000DF92EF92FF920F931F93CF93DF93CDB7A7
:103AF000DEB76F970FB6F894DEBF0FBECDBF8C0157
:103B00006C012EE4C20ED11C805B9F4FF6019183A5
:103B10008083E65CFD4F21E030E031832083780133
:103B2000F6E7EF1AFDEFFF0AF7011182108240E07D
:103B300050E0BA0104960E94088EF60180819181BE
:103B40002BE1FC013496DE01159601900D922A9529
:103B5000E1F7FC01828193819C838B838CE095E06B
:103B60009A83898320E030E0AE014F5F5F4F63E2CC
:103B700075E0C8010E940514CE0101960E947813D9
:103B8000F701808191816F960FB6F894DEBF0FBE6A
:103B9000CDBFDF91CF911F910F91FF90EF90DF90FC
:103BA000CF900895AF92BF92CF92DF92EF92FF92A3
:103BB0000F931F93CF93DF93CDB7DEB76F970FB6F9
:103BC000F894DEBF0FBECDBF8C017B01CE01019604
:103BD0000E946E13F801E95AFF4F8081680181113C
:103BE00004C02FE2C20ED11C03C080E5C80ED11C58
:103BF00021E0A701B6016C5F7F4FCE0105960E94C0
:103C0000F79081112DC0E7E0F2E18491882341F023
:103C10009091C00095FFFCCF8093C6003196F5CF00
:103C2000EAE1F3E08491882341F09091C00095FF90
:103C3000FCCF8093C6003196F5CFF70181918823A0
:103C400039F09091C00095FFFCCF8093C600F6CF6D
:103C50008091C00085FFFCCF8AE08093C60036C00B
:103C6000F801EB55FE4F808191818A30910530F546
:103C70009C012F5F3F4F318320832FE1289F7001EC
:103C8000299FF00C11242FE6E20EF11CE00EF11E2C
:103C90005C01B701C7014F960E94E31581E0A81AA5
:103CA000B1082FE1E21AF1088FEFA816B80689F7DC
:103CB000B601C80181599F4F0E94E315BE016F5F95
:103CC0007F4FC801805B9F4F0E94E315CE01019694
:103CD0000E9478136F960FB6F894DEBF0FBECDBF6B
:103CE000DF91CF911F910F91FF90EF90DF90CF90D8
:103CF000BF90AF900895EF92FF920F931F93CF93D1
:103D0000DF93EC01CB55DE4F288139812115310538
:103D1000F9F021503109398328838C0101591F4F53
:103D2000B801805B9F4F0E94E315C80100E010E0DE
:103D30007C012FE1E20EF11C288139810217130763
:103D400038F40F5F1F4FB7010E94E315C701F0CF92
:103D5000DF91CF911F910F91FF90EF900895EF9217
:103D6000FF920F931F93CF93DF93EC010E943AA031
:103D70008E0107511E4FF80180819E0122533E4F54
:103D800079018823A9F1C9010E94EE8EF801808192
:103D900081508083BE01FDE88F9F600D711D11244D
:103DA00062517E4F21E041E0CE010E94721AF8017B
:103DB0008081FE0124E0829FE00DF11D1124E65177
:103DC000FE4F4081518162817381FE01ED57FD4FAD
:103DD0004083518362837383C7010E94088ECE01A2
:103DE000DF91CF911F910F91FF90EF900C94BE1631
:103DF000C9010E94EE8E1A828EE093E00E94FA289A
:103E00008091CD0F8823F9F01092CD0FC0916406F8
:103E1000D0E0CC0FDD1FCA5EDC4E68817981882737
:103E200077FD8095982F0E9411F1209153023091D7
:103E3000540240915502509156020E9472F2181697
:103E400014F419821882DF91CF911F910F91FF9086
:103E5000EF900895AF92BF92CF92DF92EF92FF92D0
:103E60000F931F93CF93DF93CDB7DEB7E0970FB6D5
:103E7000F894DEBF0FBECDBF80E1E0EEF2E0DE01E0
:103E8000919601900D928A95E1F780E1E0EFF2E0E2
:103E9000DE01519601900D928A95E1F780E1E0E014
:103EA000F3E0DE01119601900D928A95E1F76E0123
:103EB00081E2C80ED11C9EE0E92E90E1F92E8E0120
:103EC0000F5E1F4F6EE170E1AE014F5F5F4F2EEF4F
:103ED000A22E2FE0B22E20E030E0F60181919191E8
:103EE000A191B1916F01F70181939193A193B19346
:103EF0007F01F80181919191A191B1918F01FB0115
:103F000081939193A193B193BF01FA018191919112
:103F1000A191B191AF01F50181939193A193B193D7
:103F20005F012F5F3F4F24303105B9F60E9436768E
:103F300080E090E8ABE3B5E48093F60F9093F70F41
:103F4000A093F80FB093F90F8093F20F9093F30FB3
:103F5000A093F40FB093F50F8093EE0F9093EF0FB3
:103F6000A093F00FB093F10F1092FA0F1092FB0F85
:103F70001092FC0F1092FD0F80E29EE4A0E0B0E0F2
:103F800080932E1090932F10A0933010B093311087
:103F90001092DE0F1092DF0F1092E00F1092E10FDF
:103FA00080E090E0A0EAB1E48093EA0F9093EB0FF9
:103FB000A093EC0FB093ED0F8DEC9CECACECBEE35A
:103FC0008093E60F9093E70FA093E80FB093E90F6B
:103FD00080E090E0A0EAB0E48093E20F9093E30FDA
:103FE000A093E40FB093E50F1092790610927A0631
:103FF00010927B0610927C0610927506109276063F
:10400000109277061092780610927106109272063E
:1040100010927306109274068AE999E9A5E4B1E456
:1040200080930C0290930D02A0930E02B0930F02A6
:1040300084EB90E090937F1380937E1386E490E06E
:1040400090937D1380937C138FEF90E090937B137C
:1040500080937A1320EF30E0309379132093781314
:1040600024E630E030937713209376139093751302
:10407000809374138AE999E9A1EBB1E480939B02E0
:1040800090939C02A0939D02B0939E0261E77DE312
:104090008AE89FE30E947AAD60939702709398023A
:1040A0008093990290939A0260E070E084EE92E42B
:1040B0000E9488AD6093930270939402809395025E
:1040C0009093960280E090E0A0E8BFE380938F0297
:1040D00090939002A0939102B09392020E94ABA29F
:1040E00010927D0680E090E0A0E4B0E480932B0283
:1040F00090932C02A0932D02B0932E0280932F0256
:1041000090933002A0933102B09332020E94B659CC
:10411000E7E0F2E18491882341F09091C00095FF9F
:10412000FCCF8093C6003196F5CFE1E7F7E08491AC
:10413000882341F09091C00095FFFCCF8093C6008A
:104140003196F5CF8091C00085FFFCCF8AE0809347
:10415000C600E0960FB6F894DEBF0FBECDBFDF916C
:10416000CF911F910F91FF90EF90DF90CF90BF9074
:10417000AF900895CF92DF92EF92FF92CF93DF93AB
:10418000C82F882389F140910E1050910F10609133
:1041900010107091111089E597E00E94FA27409164
:1041A000121050911310609114107091151086E543
:1041B00097E00E94FA2740911610509117106091D5
:1041C00018107091191083E597E00E94FA2740912A
:1041D0001A1050911B1060911C1070911D1080E5F9
:1041E00097E00E94FA272FC0E7E0F2E1849188234C
:1041F00041F09091C00095FFFCCF8093C6003196AE
:10420000F5CFE1E6F7E08491882341F09091C0007A
:1042100095FFFCCF8093C6003196F5CF8091C0000A
:1042200085FFFCCF8AE08093C600E7E0F2E184914D
:10423000882309F4A8CF9091C00095FFFCCF80930C
:10424000C6003196F4CF8091C00085FFFCCF8AE094
:104250008093C600CC2389F140911E1050911F100D
:1042600060912010709121108DE297E00E94FA2752
:1042700040912210509123106091241070912510CC
:104280008AE297E00E94FA27409126105091271069
:10429000609128107091291087E297E00E94FA2718
:1042A00040912A1050912B1060912C1070912D107C
:1042B00084E297E00E94FA272FC0E7E0F2E18491C0
:1042C000882341F09091C00095FFFCCF8093C600F9
:1042D0003196F5CFE6E3F7E08491882341F09091A1
:1042E000C00095FFFCCF8093C6003196F5CF80913A
:1042F000C00085FFFCCF8AE08093C600E7E0F2E1D2
:104300008491882309F4A8CF9091C00095FFFCCF39
:104310008093C6003196F4CF8091C00085FFFCCF1A
:104320008AE08093C600CC2389F14091FE0F509122
:10433000FF0F60910010709101108DEF96E00E94C8
:104340001E2840910210509103106091041070914A
:1043500005108AEF96E00E941E28409106105091A9
:104360000710609108107091091087EF96E00E9485
:104370001E2840910A1050910B1060910C10709102
:104380000D1084EF96E00E941E282FC0E7E0F2E1B6
:104390008491882341F09091C00095FFFCCF8093D9
:1043A000C6003196F5CFE6E0F7E08491882341F02E
:1043B0009091C00095FFFCCF8093C6003196F5CF59
:1043C0008091C00085FFFCCF8AE08093C600E7E0C3
:1043D000F2E18491882309F4A8CF9091C00095FF61
:1043E000FCCF8093C6003196F4CF8091C00085FF4A
:1043F000FCCF8AE08093C600CC2329F14091F60FD0
:104400005091F70F6091F80F7091F90F89EB96E0DA
:104410000E94FA274091F20F5091F30F6091F40F30
:104420007091F50F86EB96E00E94FA274091EE0F0F
:104430005091EF0F6091F00F7091F10F83EB96E0C8
:104440000E94FA272FC0E7E0F2E18491882341F02F
:104450009091C00095FFFCCF8093C6003196F5CFB8
:10446000E2ECF6E08491882341F09091C00095FF42
:10447000FCCF8093C6003196F5CF8091C00085FFB8
:10448000FCCF8AE08093C600E7E0F2E184918823C4
:1044900009F4B4CF9091C00095FFFCCF8093C60083
:1044A0003196F4CF8091C00085FFFCCF8AE08093E5
:1044B000C600CC2309F449C04091FA0F5091FB0F7C
:1044C0006091FC0F7091FD0F87EF95E00E94FA2735
:1044D0004091DE0F5091DF0F6091E00F7091E10F7E
:1044E00084EF95E00E94FA2740912E1050912F10F2
:1044F000609130107091311081EF95E00E941E287C
:104500004091EA0F5091EB0F6091EC0F7091ED0F1D
:104510008EEE95E00E94FA274091E60F5091E70F4A
:104520006091E80F7091E90F8BEE95E00E94FA27F9
:104530004091E20F5091E30F6091E40F7091E50F0D
:1045400088EE95E00E94FA272FC0E7E0F2E184911F
:10455000882341F09091C00095FFFCCF8093C60066
:104560003196F5CFE0E0F6E08491882341F0909118
:10457000C00095FFFCCF8093C6003196F5CF8091A7
:10458000C00085FFFCCF8AE08093C600E7E0F2E13F
:104590008491882309F490CF9091C00095FFFCCFBF
:1045A0008093C6003196F4CF8091C00085FFFCCF88
:1045B0008AE08093C600CC2329F140917106509186
:1045C000720660917306709174068DEC95E00E94FE
:1045D000FA274091750650917606609177067091A2
:1045E00078068AEC95E00E94FA274091790650916E
:1045F0007A0660917B0670917C0687EC95E00E94BC
:10460000FA272FC0E7E0F2E18491882341F09091EE
:10461000C00095FFFCCF8093C6003196F5CFE6ED44
:10462000F5E08491882341F09091C00095FFFCCF84
:104630008093C6003196F5CF8091C00085FFFCCFF6
:104640008AE08093C600E7E0F2E18491882309F4D0
:10465000B4CF9091C00095FFFCCF8093C6003196F7
:10466000F4CF8091C00085FFFCCF8AE08093C60024
:10467000CC2329F140917E1350917F13662757FD7B
:104680006095762F8FE995E00E941E2840917C135B
:1046900050917D13662757FD6095762F8CE995E044
:1046A0000E941E2840917A1350917B13662757FD74
:1046B0006095762F89E995E00E941E282FC0E7E0DB
:1046C000F2E18491882341F09091C00095FFFCCFE6
:1046D0008093C6003196F5CFEBEAF5E0849188230C
:1046E00041F09091C00095FFFCCF8093C6003196B9
:1046F000F5CF8091C00085FFFCCF8AE08093C60093
:10470000E7E0F2E18491882309F4B4CF9091C000EE
:1047100095FFFCCF8093C6003196F4CF8091C00006
:1047200085FFFCCF8AE08093C600CC2329F140911D
:10473000781350917913662757FD6095762F8DE891
:1047400095E00E941E2840917613509177136627BA
:1047500057FD6095762F8AE895E00E941E284091CB
:10476000741350917513662757FD6095762F87E86F
:1047700095E00E941E280DC0E7E0F2E184918823B5
:10478000B1F29091C00095FFFCCF8093C6003196A6
:10479000F5CF8091C00085FFFCCF8AE08093C600F2
:1047A000C11124C0E7E0F2E18491882341F09091A7
:1047B000C00095FFFCCF8093C6003196F5CFE9E7A6
:1047C000F5E08491882341F09091C00095FFFCCFE3
:1047D0008093C6003196F5CF8091C00085FFFCCF55
:1047E0008AE08093C600E7E0F2E15CC0C12CD12CE6
:1047F0007601DAE0B701A60180E795E00E941E2865
:1048000040919B0250919C0260919D0270919E028A
:104810008DE695E00E94FA276091970270919802C8
:104820008091990290919A020E9481ADAB01BC01E6
:104830008AE695E00E94FA276091930270919402B3
:1048400080919502909196020E948FADAB01BC01C0
:1048500087E695E00E94FA2740918F0250919002DE
:10486000609191027091920284E695E00E94FA278D
:104870008091C00085FFFCCFD093C6008FEFC81A8F
:10488000D80AE80AF80A82E0C816D104E104F10463
:1048900009F0B0CF49C09091C00095FFFCCF809344
:1048A000C600319684918111F6CF40919B025091C0
:1048B0009C0260919D0270919E028BE595E00E94A2
:1048C000FA276091970270919802809199029091D5
:1048D0009A020E9481ADAB01BC0188E595E00E947F
:1048E000FA276091930270919402809195029091C1
:1048F00096020E948FADAB01BC0185E595E00E9458
:10490000FA2740918F02509190026091910270912C
:10491000920282E595E00E94FA278091C00085FF0F
:10492000FCCF8AE08093C60080917D06882309F43D
:104930006AC0CC2369F040912B0250912C02609107
:104940002D0270912E0286E395E00E94FA272EC078
:10495000E7E0F2E18491882341F09091C00095FF57
:10496000FCCF8093C6003196F5CFEFE3F5E084915C
:10497000882341F09091C00095FFFCCF8093C60042
:104980003196F5CF8091C00085FFFCCF8AE08093FF
:10499000C600E7E0F2E18491882369F29091C000BB
:1049A00095FFFCCF8093C6003196F5CF8091C00073
:1049B00085FFFCCF8AE08093C600CC2369F040914C
:1049C0002F025091300260913102709132028AE2DE
:1049D00095E00E94FA270DC0E7E0F2E18491882378
:1049E00071F39091C00095FFFCCF8093C600319683
:1049F000F5CF8091C00085FFFCCF8AE08093C60090
:104A0000CC2321F151C0C1114FC0E7E0F2E1849104
:104A1000882341F09091C00095FFFCCF8093C600A1
:104A20003196F5CFEEE0F5E08491882341F0909146
:104A3000C00095FFFCCF8093C6003196F5CF8091E2
:104A4000C00085FFFCCF8AE08093C600E7E0F2E17A
:104A50008491882341F09091C00095FFFCCF809312
:104A6000C6003196F5CFE9EFF4E08491882341F058
:104A70009091C00095FFFCCF8093C6003196F5CF92
:104A80008091C00085FFFCCF8AE08093C600E7E0FC
:104A9000F2E18491882341F09091C00095FFFCCF12
:104AA0008093C6003196F5CF43E553E060E070E0B7
:104AB00085EF94E00E941E2840910C0250910D0257
:104AC00060910E0270910F02705882EF94E00E9484
:104AD000FA278091C00085FFFCCF8AE08093C60052
:104AE000DF91CF91FF90EF90DF90CF9008951F92CC
:104AF0000F920FB60F9211240BB60F922F933F9384
:104B00004F935F936F938F939F93EF93FF93609176
:104B1000C6002091210630912206C90101968F77A7
:104B2000992740912306509124068417950741F058
:104B3000F901EF55FA4F6083909322068093210686
:104B4000FF91EF919F918F916F915F914F913F9165
:104B50002F910F900BBE0F900FBE0F901F901895C6
:104B60009A01AB01211581EE38074105510549F144
:104B700082E08093C00060E079E08DE390E00E94E5
:104B800064F42150310941095109CA01B90122E0F7
:104B900030E040E050E00E9464F43093C500209380
:104BA000C4008091C10080618093C1008091C100E8
:104BB00088608093C1008091C10080688093C100AB
:104BC00008951092C00020E130E0E7CF2091230645
:104BD0003091240680912106909122068217930736
:104BE00071F0F901EF55FA4F80812F5F3F4F2F771A
:104BF0003327309324062093230690E008958FEF07
:104C00009FEF0895809123069091240690932206A9
:104C10008093210608954F925F926F927F928F92B8
:104C20009F92AF92BF92CF92DF92EF92FF920F933B
:104C30001F93CF93DF93CDB7DEB7A0970FB6F8944D
:104C4000DEBF0FBECDBF5C01411551056105710589
:104C5000F1F420E030E040E350E060E070E0A09646
:104C60000FB6F894DEBF0FBECDBFDF91CF911F917D
:104C70000F91FF90EF90DF90CF90BF90AF909F90FB
:104C80008F907F906F905F904F900C94A3268E0131
:104C90000F5F1F4FC12CD12C76014801422E512CA1
:104CA000612C712C8FEFC81AD80AE80AF80ACB01D8
:104CB000BA01A30192010E9442F4CA01F801619372
:104CC0008F01A901BC01411551056105710551F71D
:104CD000F1E0CF1AD108E108F108F401EC0DFD1D57
:104CE00080818A3010F440E301C047E3480F552724
:104CF00047FD5095652F752F20E030E0C5010E94DB
:104D0000A32681E0C81AD108E108F108EFEFCE161A
:104D1000DE06EE06FE0609F7A0960FB6F894DEBF93
:104D20000FBECDBFDF91CF911F910F91FF90EF90FC
:104D3000DF90CF90BF90AF909F908F907F906F90BB
:104D40005F904F9008952115310539F48091C0008E
:104D500085FFFCCF4093C60008952A30310511F439
:104D60000C94D2260C940B26CF93DF93EC0120E019
:104D700030E04DE050E060E070E00E94A32620E0CB
:104D800030E04AE050E060E070E0CE01DF91CF918A
:104D90000C94A3269A01AB01662757FD6095762FE8
:104DA0000C94A326CF92DF92EF92FF92CF93DF93E2
:104DB000EC016A017B0177FF10C020E030E04DE29A
:104DC00050E060E070E00E94A326F094E094D0945C
:104DD000C094C11CD11CE11CF11C2AE0B701A60142
:104DE000CE01DF91CF91FF90EF90DF90CF900C94A8
:104DF0000B262115310539F48091C00085FFFCCFC9
:104E00004093C60008950C940B269A01462F50E05B
:104E100060E070E00C94F926CF93DF93EC019A01E7
:104E2000AB0160E070E00E94F926CE01DF91CF91E6
:104E30000C94B4268F929F92AF92BF92CF92DF9242
:104E4000EF92FF921F93CF93DF93EC016A017B01F6
:104E5000122F20E030E0A901C701B6010E946FF0D7
:104E600087FF0DC020E030E04DE250E060E070E0F0
:104E7000CE010E94A326F7FAF094F7F8F094B12C33
:104E800060E070E080E09FE3B11641F020E030E0A8
:104E900040E251E40E9476F0B394F6CF9B01AC015E
:104EA000C701B6010E9496EF6B017C010E94E3F0FE
:104EB0004B015C010E940FF19B01AC01C701B601DF
:104EC0000E9495EF6B017C012AE0B501A401CE019F
:104ED0000E940B26112349F020E030E04EE250E022
:104EE00060E070E0CE010E94A326112321F120E0B2
:104EF00030E040E251E4C701B6010E9444F36B0187
:104F00007C010E94DEF04B01AA2497FCA094BA2CED
:104F1000B501A401CE010E94D226C501B4010E94B0
:104F200011F19B01AC01C701B6010E9495EF6B0125
:104F30007C011150DACFDF91CF911F91FF90EF905C
:104F4000DF90CF90BF90AF909F908F9008950C947A
:104F50001A27FC01659175918591949108950E949D
:104F600026E9609348067093490680934A06909319
:104F70004B0608958091490290914A02A0914B02FC
:104F8000B0914C028093390890933A08A0933B0863
:104F9000B0933C08809137029091380290937F063D
:104FA00080937E0684E690E09093380280933702E7
:104FB0000E94AF2781E00C94019980E00E94019942
:104FC0008091390890913A08A0913B08B0913C0833
:104FD0008093490290934A02A0934B02B0934C02F3
:104FE00080917E0690917F069093380280933702DD
:104FF0000C94AF27FC012491222341F03091C00092
:1050000035FFFCCF2093C6000196F4CF22E030E0BC
:1050100080EA95E00C94A727FC012491222341F01B
:105020003091C00035FFFCCF2093C6000196F4CF2D
:1050300022E030E080EA95E00C94A727FC0124915F
:10504000222341F03091C00035FFFCCF2093C600F1
:105050000196F4CF2AE030E080EA95E00C94F9263E
:10506000CF93DF93FC0120812B3309F467C020919B
:10507000040830910508243031050CF05FC0209100
:1050800006083091070840E6429FE001439FD00D9B
:105090001124CC57D94FBC01CE010E941BF9E7E087
:1050A000F2E18491882341F09091C00095FFFCCFFC
:1050B0008093C6003196F5CFEBEBF1E18491882324
:1050C00071F09091C00095FFFCCF8093C60031969F
:1050D000F5CF9091C00095FFFCCF8093C6008991D9
:1050E0008111F7CFE9EBF1E18491882341F09091B0
:1050F000C00095FFFCCF8093C6003196F5CF80911C
:10510000C00085FFFCCF8AE08093C600809106082E
:1051100090910708019664E070E00E942EF490934D
:10512000070880930608809104089091050801966D
:10513000909305088093040881E001C080E0DF912E
:10514000CF910895DF92EF92FF920F931F93CF9329
:10515000DF93CDB7DEB76E970FB6F894DEBF0FBE04
:10516000CDBF60914C0670914D0661157105A1F09F
:105170004DE150E08E010F5F1F4FC8010E94AAF859
:105180001E8EF8017F01E01AF10AD190DD2031F086
:105190008AE0D812F7CF02C080E01EC0F801EE0D01
:1051A000FF1D1082C8010E9430288823A1F0DD2055
:1051B00071F08FEFE81AF80A80914C0690914D0635
:1051C0008E0D9F1D90934D0680934C0604C0109247
:1051D0004D0610924C0681E06E960FB6F894DEBF35
:1051E0000FBECDBFDF91CF911F910F91FF90EF9038
:1051F000DF90089590934D0680934C060C94A2285E
:10520000269A2E9808950E94002940E05BE460E011
:1052100070E080EA95E00E94B025E3EBF1E1849133
:10522000882341F09091C00095FFFCCF8093C60089
:105230003196F5CF8091C00085FFFCCF8AE0809346
:10524000C600E7E0F2E18491882341F09091C0002C
:1052500095FFFCCF8093C6003196F5CF84B780FFD1
:1052600014C0EBEAF1E19491992341F02091C00040
:1052700025FFFCCF9093C6003196F5CF9091C000EA
:1052800095FFFCCF9AE09093C60081FF14C0EBE934
:10529000F1E19491992341F02091C00025FFFCCFCA
:1052A0009093C6003196F5CF9091C00095FFFCCF4A
:1052B0009AE09093C60082FF14C0EAE8F1E194916D
:1052C000992341F02091C00025FFFCCF9093C600A8
:1052D0003196F5CF9091C00095FFFCCF9AE0909366
:1052E000C60083FF14C0EAE7F1E19491992341F0ED
:1052F0002091C00025FFFCCF9093C6003196F5CFDA
:105300009091C00095FFFCCF9AE09093C60085FF76
:1053100014C0EAE6F1E18491882341F09091C00045
:1053200095FFFCCF8093C6003196F5CF8091C000E9
:1053300085FFFCCF8AE08093C60014BEE3E6F1E16E
:105340008491882341F09091C00095FFFCCF809319
:10535000C6003196F5CFE8E5F1E18491882341F06C
:105360009091C00095FFFCCF8093C6003196F5CF99
:105370008091C00085FFFCCF8AE08093C600E7E003
:10538000F2E18491882341F09091C00095FFFCCF19
:105390008093C6003196F5CFE8E4F1E1849188234B
:1053A00041F09091C00095FFFCCF8093C6003196EC
:1053B000F5CFE3E3F1E18491882341F09091C000BF
:1053C00095FFFCCF8093C6003196F5CFE7E2F1E17F
:1053D0008491882341F09091C00095FFFCCF809389
:1053E000C6003196F5CFE3E2F1E18491882341F0E4
:1053F0009091C00095FFFCCF8093C6003196F5CF09
:105400008091C00085FFFCCF8AE08093C600E8E170
:10541000F1E18491882341F09091C00095FFFCCF89
:105420008093C6003196F5CFECE0F1E184918823BA
:1054300041F09091C00095FFFCCF8093C60031965B
:10544000F5CF8091C00085FFFCCF8AE08093C60035
:10545000E7E0F2E18491882341F09091C00095FF4C
:10546000FCCF8093C6003196F5CFEDEFF0E184914B
:10547000882341F09091C00095FFFCCF8093C60037
:105480003196F5CF0E9494934AE050E0BC0180EA47
:1054900095E00E94CA26E6EEF0E18491882341F06F
:1054A0009091C00095FFFCCF8093C6003196F5CF58
:1054B0004AE050E060ED74E080EA95E00E94CA2680
:1054C0008091C00085FFFCCF8AE08093C6001092D7
:1054D00026061092270610922806109229060E948E
:1054E0002A1F80E00E94BA200E94A3A50E94FB66AA
:1054F0000E94D39F0E94E1B22FEF83ED90E32150F1
:1055000080409040E1F700C0000008950F931F9382
:10551000CF93DF9300914E0610914F0665E470E043
:10552000C8010E9407F9EC01C8010196209761F0BB
:10553000188260E070E00E94DDF525E42883DF91A9
:10554000CF911F910F91089560E070E0DF91CF91AE
:105550001F910F910C94DDF580914E0690914F06AE
:105560004AE050E060E070E001960C944EF78091C4
:105570004E0690914F064AE050E060E070E00196E0
:105580000E944EF7CB010895682F772767FD70952D
:10559000209108083091090840E6429FC001439FCE
:1055A000900D11248C57994F0E9407F990934F0644
:1055B00080934E0621E0892B09F420E0822F089584
:1055C0000F931F93CF93DF9300D000D0CDB7DEB7FA
:1055D00026E0E0E1F3E0DE01119601900D922A95BC
:1055E000E1F7FC01EE0FFF1F21E030E02C0F3D1F23
:1055F000E20FF31F608171818C01000F111F000FFA
:10560000111F16161706D4F4075C1D4F882777FD67
:105610008095982F0E9411F19B01AC01F8016081E7
:105620007181828193810E9476F060934902709328
:105630004A0280934B0290934C0228C0F801E75C29
:10564000FD4F20E030E040E251E4608171818281D1
:1056500093810E9476F06093490270934A0280938E
:105660004B0290934C02EBE6F3E08191882339F0F2
:105670009091C00095FFFCCF8093C600F6CF80913B
:10568000C00085FFFCCF8AE08093C60026960FB647
:10569000F894DEBF0FBECDBFDF91CF911F910F9168
:1056A00008958F929F92AF92BF92CF92DF92EF9226
:1056B000FF920F931F9320E030E040E752E46091A7
:1056C000490270914A0280914B0290914C020E94D3
:1056D00076F04B015C01E0903108F09032080091C7
:1056E00033081091340820912D0830912E084091F4
:1056F0002F08509130086091290870912A088091F4
:105700002B0890912C08E4E6F6E0FF93EF93E5E395
:10571000CE2EE8E0DE2E0E945C680F900F901F9165
:105720000F91FF90EF90DF90CF90BF90AF909F9040
:105730008F9008954F925F926F927F928F929F9277
:10574000AF92BF92EF92FF920F931F93CF93DF938D
:10575000CDB7DEB728970FB6F894DEBF0FBECDBF2A
:105760004B015C018091490290914A02A0914B0249
:10577000B0914C0289839A83AB83BC8340904102F1
:10578000509042026090430270904402409249025D
:1057900050924A0260924B0270924C02E0923108A1
:1057A000F092320800933308109334082D833E831F
:1057B0004F8358870E94512B0E943AA0609110029B
:1057C00070911102882777FD8095982F0E9411F122
:1057D0006093490270934A0280934B0290934C026B
:1057E0008092290890922A08A0922B08B0922C0847
:1057F0002D813E814F81588520932D0830932E08AE
:1058000040932F08509330080E94512B0E943AA0D9
:1058100089819A81AB81BC818093490290934A022D
:10582000A0934B02B0934C0228960FB6F894DEBFBB
:105830000FBECDBFDF91CF911F910F91FF90EF90E1
:10584000BF90AF909F908F907F906F905F904F90A0
:1058500008954F925F926F927F928F929F92AF9234
:10586000BF92CF92DF92EF92FF920F931F932B0183
:105870003C0120E030E040E752E460914902709141
:105880004A0280914B0290914C020E9476F04B01AB
:105890005C0120912D0830912E0840912F085091E5
:1058A00030086091290870912A0880912B08909106
:1058B0002C08E4E6F6E0FF93EF93F5E3CF2EF8E053
:1058C000DF2E830172010E945C680F900F901F9180
:1058D0000F91FF90EF90DF90CF90BF90AF909F908F
:1058E0008F907F906F905F904F9008958F929F92CE
:1058F000AF92BF92CF92DF92EF92FF920F931F93DE
:1059000020E030E040E752E40E9476F04B015C0179
:10591000E0902108F09022080091230810912408BB
:1059200020911D0830911E0840911F0850912008B9
:105930006091190870911A0880911B0890911C08B9
:10594000E4E6F6E0FF93EF93A5E2CA2EA8E0DA2E94
:105950000E945C680F900F901F910F91FF90EF9045
:10596000DF90CF90BF90AF909F908F9008956091FF
:10597000490270914A0280914B0290914C020C9422
:10598000762CCF92DF92EF92FF920F931F93E090CD
:105990003108F090320800913308109134082091BA
:1059A0002D0830912E0840912F08509130086091B9
:1059B000290870912A0880912B0890912C08B5E352
:1059C000CB2EB8E0DB2E0E94F8741F910F91FF9050
:1059D000EF90DF90CF9008952F923F924F925F9279
:1059E0006F927F928F929F92AF92BF92CF92DF92EF
:1059F000EF92FF920F931F93CF93DF938C01FC01E3
:105A0000E853FE4EF490EC01CC0FDD1FCC0FDD1FF0
:105A10009E01275D374F1901F90110821182128210
:105A200013820E94C12CCE0189529E4E0E94A9274A
:105A30002B013C016F2D772767FD7095872F972FDE
:105A40000E9411F14B015C019E01275E374F7901E5
:105A500020E030E040EC5FE3C301B2010E9444F378
:105A6000A50194010E9444F3F7016083718382834E
:105A70009383FE01E75CFD4F80819181A281B38118
:105A80008093490290934A02A0934B02B0934C0238
:105A90000E94B72C0E943AA0F1011082118212825A
:105AA00013820E94C12C80E00E9401999E0125531F
:105AB0003E4E6901C9010E94A9279058A501940191
:105AC0000E9444F3F70160837183828393830E9471
:105AD000B72C0E943AA081E00E940199C8010E945F
