:100000000C9492120C94C3120C94C3120C94C3124D
:100010000C94C3120C94C3120C94C3120C94C3120C
:100020000C94C3120C94C3120C94C3120C94C312FC
:100030000C94C3120C948FD10C94C3120C94C31261
:100040000C94C3120C94DE7E0C94C3120C94C31255
:100050000C94C3120C94C3120C9492910C9437CB51
:100060000C94C3120C9425250C94C3120C94C31247
:100070000C94C3120C94C3120C94C3120C94C312AC
:100080000C94C3120C94C3120C94C3120C94C3129C
:100090000C94C3120C94C3120C94C3120C9406CA91
:1000A0000C94C3120C94C3120C94C3120C94C3127C
:1000B0000C94C3120C94C3120C94C3120C94C3126C
:1000C0000C94C3120C94C3120C94C3120C94C3125C
:1000D0000C94C3120C94C3120C94C3120C94C3124C
:1000E0000C94C312FC910C922B923B925692669206
:1000F0008192869289928E9291929692A0926BCCE6
:1001000070CC75CC7FCC89CC02CD93CC9BCCA3CCCE
:10011000ADCCB7CCC1CCD0CCDACC02CDE4CCEECCDB
:10012000F8CC24CD27CD16CD1ACD20CD5ECD2BCD4C
:100130002FCD35CD39CD3DCD43CD47CD4BCD5ECD4A
:1001400051CD55CD59CD084AD73B3BCE016E84BC2D
:10015000BFFDC12F3D6C74319ABD56833DDA3D0021
:10016000C77F11BED9E4BB4C3E916BAAAABE00006A
:1001700000803F05A84CCDB2D44EB93836A9020C48
:1001800050B9918688083CA6AAAA2ABE0000008021
:100190003F000C9456920C9481920C94D9C90C9403
:1001A0003CC90C9451CD0C9493A60C946CC90C943E
:1001B00047CD0C9497A30C94C2C50C94E4CC0C943A
:1001C000DDAA0C9460B80C94B6B70C942B920C94E6
:1001D000BAAD0C9450A70C9470CC0C9411A50C944F
:1001E00072BA0C9407CE0C9454A40C9442C90C948B
:1001F00096920C9439CD0C942BCD0C94A3CC0C94EA
:10020000BAA00C949AC90C94EEA80C945DC90C94F5
:10021000C5560C942AA10C94B7CC0C94DACC0C944F
:1002200052A70C947EBC0C949A6D0C94A0920C94E2
:1002300059CD0C9443CD0C94EDB20C9455CD0C9447
:100240005FA00C94D6A50C9420CD0C940C920C9429
:10025000F4B00C946DB50C94A8B70C94FB9F0C945F
:1002600000510C949BCC0C944BCD0C9486920C9426
:1002700091920C946E970C949AB70C943DCD0C947B
:1002800093CC0C9424CD0C946BCC0C94EECC0C94AD
:1002900078BB0C9416CD0C94FC910C94E6A80C94AD
:1002A000C1CC0C946DC90C944AC90C942DB40C9417
:1002B000D0CC0C9402CD0C94C1560C9489CC0C94E7
:1002C00038C40C94E6A20C9432990C9489920C9444
:1002D0003B920C9435CD0C947F790C945ECD0C94AC
:1002E00066920C945BB60C94F8CC0C942FCD0C94C5
:1002F000F0560C947FCC0C9427CD0C9419A80C9438
:10030000F6A80C9486970C941ACD0C94C6AF0C9456
:100310008E920C9412C00C9475CC0C94ADCC4D38CC
:100320003420582059205A20450043616E6E6F7466
:1003300020656E746572207375626469723A20007C
:100340004D3234004D3233202573006175746F25B2
:10035000692E67006572726F722077726974696EB8
:100360006720746F2066696C65004E6F742053447B
:10037000207072696E74696E6700534420707269F0
:100380006E74696E672062797465200044656C65DF
:1003900074696F6E206661696C65642C2046696CB7
:1003A000653A200046696C652064656C6574656417
:1003B0003A006F70656E206661696C65642C20463A
:1003C000696C653A200057726974696E6720746FB2
:1003D0002066696C653A20006F70656E2066616901
:1003E0006C65642C2046696C653A20006F70656E00
:1003F000206661696C65642C2046696C653A200052
:1004000046696C652073656C656374656400205390
:10041000697A653A200046696C65206F70656E6583
:10042000643A20006F70656E206661696C65642CAB
:100430002046696C653A20004E6F772066726573BE
:10044000682066696C653A20004E6F7720646F699A
:100450006E672066696C653A20002220706F730019
:100460002220706172656E743A2200535542524FD9
:100470005554494E452043414C4C20746172676588
:10048000743A2200747279696E6720746F20636118
:100490006C6C207375622D67636F64652066696C90
:1004A0006573207769746820746F6F206D616E7951
:1004B000206C6576656C732E204D4158206C6576F6
:1004C000656C2069733A0053442063617264206F45
:1004D0006B006F70656E526F6F74206661696C653A
:1004E0006400766F6C756D652E696E697420666147
:1004F000696C656400534420696E697420666169A3
:100500006C0046696C616D656E7420736574746906
:100510006E67733A2044697361626C6564002020E1
:100520004D32303020543120440020204D323030C4
:1005300020440046696C616D656E74207365747447
:10054000696E67733A002043002044002049002070
:10055000204D3330312050002043002044002049FA
:100560000020500020204D333031204500504944B8
:100570002073657474696E67733A002046002042E8
:100580000020204D313435204D31204800204600D8
:1005900020420020204D313435204D302048004D80
:1005A0006174657269616C20686561747570207032
:1005B0006172616D65746572733A00205A0020594A
:1005C0000020204D3432312058002059002058009E
:1005D00020204D3432302053004D65736820626511
:1005E00064206C6576656C696E673A00205A00205D
:1005F000590020204D323036205800486F6D65205C
:100600006F666673657420286D6D293A0020450079
:10061000205A0020580020420020540020204D3253
:100620003035205300416476616E636564207661E5
:10063000726961626C65733A20533D4D696E206644
:100640006565647261746520286D6D2F73292C2097
:10065000543D4D696E2074726176656C20666565E7
:10066000647261746520286D6D2F73292C20423DC2
:100670006D696E696D756D207365676D656E74204B
:1006800074696D6520286D73292C20583D6D617843
:10069000696D756D205859206A65726B20286D6DE3
:1006A0002F73292C20205A3D6D6178696D756D205E
:1006B0005A206A65726B20286D6D2F73292C2020BB
:1006C000453D6D6178696D756D2045206A65726B79
:1006D00020286D6D2F732900205400205200202007
:1006E0004D323034205000416363656C6572617433
:1006F000696F6E733A20503D7072696E74696E67EF
:100700002C20523D7265747261637420616E6420A6
:10071000543D74726176656C00204500205A0020BB
:10072000590020204D3230312058004D6178696DDC
:10073000756D20416363656C65726174696F6E20CD
:10074000286D6D2F7332293A00204500205A002071
:10075000590020204D3230332058004D6178696DAA
:10076000756D2066656564726174657320286D6DB2
:100770002F73293A00204500205A002059002020DC
:100780004D393220580053746570732070657220A3
:10079000756E69743A0048617264636F64656420C1
:1007A00044656661756C742053657474696E677313
:1007B000204C6F616465640053544F505045442E83
:1007C00020005072696E7465722073746F7070656A
:1007D000642064756520746F206572726F72732E69
:1007E0002046697820746865206572726F72206196
:1007F0006E6420757365204D39393920746F20720D
:100800006573746172742E202854656D7065726111
:10081000747572652069732072657365742E205338
:1008200065742069742061667465722072657374E2
:10083000617274696E6729004B494C4C45442E2007
:10084000005072696E7465722068616C7465642E04
:10085000206B696C6C28292063616C6C65642100D5
:1008600020746F6F206C6F6E67206578747275737B
:10087000696F6E2070726576656E746564002063C2
:100880006F6C6420657874727573696F6E20707216
:100890006576656E746564006F6B00526573656E96
:1008A000643A20004D3330302053363539205032F1
:1008B00030300A4D33303020533639382050323002
:1008C00030004F6666736574206170706C69656492
:1008D0002E004D3330302053343020503230300031
:1008E0004572723A20546F6F206661722100546F16
:1008F0006F206661722066726F6D20726566657228
:10090000656E636520706F696E74004D6573682055
:10091000585920696E646578206973206F7574205A
:100920006F6620626F756E6473004D3432312072D1
:10093000657175697265732058595A2070617261CA
:100940006D657465727300486F74656E64206F66C0
:1009500066736574733A0053657474696E672054E6
:10096000726176656C20416363656C657261746960
:100970006F6E3A200053657474696E672052657417
:100980007261637420416363656C65726174696F41
:100990006E3A200053657474696E67205072696EF8
:1009A0007420416363656C65726174696F6E3A208F
:1009B0000053657474696E67205072696E742061AB
:1009C0006E642054726176656C20416363656C656A
:1009D000726174696F6E3A20004D31343520533C9A
:1009E000696E6465783E206F7574206F6620726151
:1009F0006E67652028302D3129007A5F6D696E3A67
:100A00002000795F6D696E3A2000785F6D696E3AFB
:100A10002000205A3A0020593A0020436F756E7426
:100A200020583A200020453A00205A3A0020593AEE
:100A300000583A004649524D574152455F4E414D8C
:100A4000453A4D61726C696E2056313B205370728D
:100A5000696E7465722F6772626C206D6173687560
:100A60007020666F722067656E36204649524D577A
:100A70004152455F55524C3A68747470733A2F2F47
:100A80006769746875622E636F6D2F4D61726C6952
:100A90006E4669726D776172652F4D61726C696E19
:100AA0002050524F544F434F4C5F56455253494F7D
:100AB0004E3A312E30204D414348494E455F5459FE
:100AC00050453A3344205072696E7465722045581F
:100AD0005452554445525F434F554E543A32205577
:100AE0005549443A30303030303030302D303030AD
:100AF000302D303030302D303030302D30303030FF
:100B000030303030303030300A0033442050726999
:100B10006E746572204F66662E00334420507269F1
:100B20006E7465722072656164792E00426564207E
:100B3000646F6E652E0020423A0020453A00543A18
:100B4000004265642048656174696E672E004865DF
:100B50006174696E6720646F6E652E003F002057D8
:100B60003A0020453A00543A0048656174696E675E
:100B70002E2E2E002042403A0020403A00202F0026
:100B8000205400202F0020423A00202F0020543A09
:100B9000006F6B002569206D696E2C20256920731C
:100BA000656300456E642066696C65206C697374CA
:100BB00000426567696E2066696C65206C697374B4
:100BC000004E6F206D6F76652E00334420507269A1
:100BD0006E7465722072656164792E00526573755A
:100BE0006D696E67207072696E7400576169742058
:100BF000666F7220757365722E2E2E005A206E6FEE
:100C00007420656E74657265642E0A0059206E6FDB
:100C10007420656E74657265642E0A0059206F75C4
:100C200074206F662072616E67652028312D33292C
:100C30002E0A0058206E6F7420656E7465726564AC
:100C40002E0A0058206F7574206F662072616E67DF
:100C5000652028312D33292E0A00473238004D6592
:100C600073682070726F62696E6720646F6E652EA4
:100C7000005374617274206D6573682070726F62C6
:100C8000696E6720776974682022473239205331B2
:100C9000222066697273742E004732380A4732394F
:100CA000205332004D65736820626564206C657660
:100CB000656C696E67206E6F742061637469766518
:100CC0002E002020000A4D656173757265642070E6
:100CD0006F696E74733A000A5A20736561726368B3
:100CE000206865696768743A20004E756D20582C3D
:100CF000593A200053206F7574206F662072616E20
:100D000067652028302D33292E005A206E6F7420FD
:100D1000656E74657265642E0A0059206E6F7420CA
:100D2000656E74657265642E0A0059206F757420B3
:100D30006F662072616E67652028312D33292E0A77
:100D40000058206E6F7420656E74657265642E0A9B
:100D50000058206F7574206F662072616E67652081
:100D600028312D33292E0A00473238004D6573682B
:100D70002070726F62696E6720646F6E652E004727
:100D80003939205332005374617274206D65736871
:100D90002070726F62696E672077697468202247DD
:100DA0003239205331222066697273742E00473223
:100DB000380A473939205332004D6573682062651F
:100DC00064206C6576656C696E67206E6F74206157
:100DD00063746976652E002020000A4D6561737585
:100DE00072656420706F696E74733A000A5A2073DA
:100DF0006561726368206865696768743A20004EAF
:100E0000756D20582C593A200053206F7574206F4F
:100E1000662072616E67652028302D33292E0053BD
:100E20006C6565702E2E2E002200556E6B6E6F77EE
:100E30006E20636F6D6D616E643A2022002569201B
:100E4000686F757273202569206D696E757465739E
:100E500000446F6E65207072696E74696E672066FB
:100E6000696C650053544F505045442E2000507219
:100E7000696E7465722073746F7070656420647538
:100E80006520746F206572726F72732E20466978C8
:100E900020746865206572726F7220616E642075BF
:100EA0007365204D39393920746F20726573746110
:100EB00072742E202854656D706572617475726548
:100EC0002069732072657365742E205365742069E0
:100ED00074206166746572207265737461727469DE
:100EE0006E6729004E6F204C696E65204E756D62ED
:100EF0006572207769746820636865636B73756DCC
:100F00002C204C617374204C696E653A20004E6F42
:100F100020436865636B73756D2077697468206C16
:100F2000696E65206E756D6265722C204C617374FC
:100F3000204C696E653A2000636865636B73756D5C
:100F4000206D69736D617463682C204C617374202B
:100F50004C696E653A20004C696E65204E756D6275
:100F60006572206973206E6F74204C617374204C1D
:100F7000696E65204E756D6265722B312C204C6157
:100F80007374204C696E653A20004D313130006F2A
:100F90006B00446F6E6520736176696E67206669C9
:100FA0006C652E004D3239002020506C616E6E65EC
:100FB0007242756666657242797465733A200020E4
:100FC00046726565204D656D6F72793A20005365F4
:100FD00070202031203230313500436F6D70696CE4
:100FE00065643A2000466C6F00207C20417574686F
:100FF0006F723A2000536570202031203230313535
:101000002030383A35373A333200204C617374203F
:10101000557064617465643A200020312E302E339F
:1010200020646576004D61726C696E0020536F66B6
:10103000747761726520526573657400205761741E
:101040006368646F67205265736574002042726F35
:10105000776E206F75742052657365740020457833
:101060007465726E616C20526573657400506F77A1
:1010700065725570007374617274002200656E7140
:1010800075657565696E67202200FFFFFF0000A08F
:10109000400000A040000000400000344300007AFF
:1010A0004300004843000000000000000000000072
:1010B000000000344300007A430000484300000071
:1010C0000000000000000000006563686F3A004502
:1010D00072726F723A0020746F6F206C6F6E6720AF
:1010E000657874727573696F6E2070726576656E5F
:1010F0007465640020636F6C642065787472757326
:10110000696F6E2070726576656E746564000000AC
:101110002110422063308440A550C660E7700881EA
:1011200029914AA16BB18CC1ADD1CEE1EFF1311261
:10113000100273325222B5529442F772D66239933A
:1011400018837BB35AA3BDD39CC3FFF3DEE36224B1
:10115000433420040114E664C774A44485546AA58A
:101160004BB528850995EEE5CFF5ACC58DD5533641
:10117000722611163006D776F6669556B4465BB7DA
:101180007AA719973887DFF7FEE79DD7BCC7C44811
:10119000E5588668A7784008611802282338CCC92A
:1011A000EDD98EE9AFF9488969990AA92BB9F55AA1
:1011B000D44AB77A966A711A500A333A122AFDDB7A
:1011C000DCCBBFFB9EEB799B588B3BBB1AABA66C71
:1011D000877CE44CC55C222C033C600C411CAEEDCA
:1011E0008FFDECCDCDDD2AAD0BBD688D499D977E81
:1011F000B66ED55EF44E133E322E511E700E9FFF1A
:10120000BEEFDDDFFCCF1BBF3AAF599F788F8891CF
:10121000A981CAB1EBA10CD12DC14EF16FE18010B3
:10122000A100C230E3200450254046706760B983B6
:101230009893FBA3DAB33DC31CD37FE35EF3B10203
:101240009012F322D2323542145277625672EAB5C6
:10125000CBA5A89589856EF54FE52CD50DC5E23453
:10126000C324A01481046674476424540544DBA796
:10127000FAB79987B8975FE77EF71DC73CD7D326A3
:10128000F2369106B01657667676154634564CD926
:101290006DC90EF92FE9C899E9898AB9ABA94458F3
:1012A000654806782768C018E1088238A3287DCBF6
:1012B0005CDB3FEB1EFBF98BD89BBBAB9ABB754A43
:1012C000545A376A167AF10AD01AB32A923A2EFD86
:1012D0000FED6CDD4DCDAABD8BADE89DC98D267C93
:1012E000076C645C454CA23C832CE01CC10C1FEFD6
:1012F0003EFF5DCF7CDF9BAFBABFD98FF89F176EE3
:10130000367E554E745E932EB23ED10EF01E7C3C5E
:101310003E5E2B3D3F2F5B5D3B2C2A225C004D380F
:101320003420582059205A204500656E6473746F2C
:101330007073206869743A205A00205A3A00656E2A
:101340006473746F7073206869743A20590020596F
:101350003A00656E6473746F7073206869743A2024
:10136000580020583A00656E6473746F707320687B
:1013700069743A200024F4D43050C38E20C2A240B5
:1013800017828B7011127A910D816CD90AA861E1D4
:1013900008C7586607615143061E4B5D05C145A746
:1013A000041A411104093D9803713931034036DBB9
:1013B0000265339102D4305402802E1D02632CEE5C
:1013C00001752AC501B028A001102781018F25646D
:1013D000012B244B01E0223401AC211F018D200D93
:1013E00001801FFC00841EED00971DDF00B81CD299
:1013F00000E61BC600201BBC00641AB200B219A88C
:10140000000A19A0006A189900D117910040178BA3
:1014100000B516840031167E00B31579003A1573B5
:1014200000C7146F0058146A00EE13660088136337
:101430000025135E00C7125B006C12570015125492
:1014400000C111510070114F0021114B00D61049FD
:10145000008D1047004610440002104200C00F40AB
:1014600000800F3E00420F3C00060F3B00CB0E38C1
:1014700000930E37005C0E3500270E3400F30D325A
:1014800000C10D3100900D3000600D2E00320D2D89
:1014900000050D2C00D90C2B00AE0C2900850C2961
:1014A000005C0C2700350C27000E0C2600E80B24EE
:1014B00000C40B2400A00B23007D0B23005A0B213A
:1014C00000390B2100180B2000F80A1F00D90A1E52
:1014D00000BB0A1E009D0A1D00800A1D00630A1C35
:1014E00000470A1B002C0A1B00110A1A00F7091AF0
:1014F00000DD091900C4091900AB09190092091788
:10150000007B091800630917004C091600360916FC
:1015100000200916000A091500F5081500E0081456
:1015200000CC081400B8081400A408140090081394
:10153000007D0812006B08130058081200460812BC
:1015400000340811002308110012081100010811CD
:1015500000F0071000E0071000D0071000C00710CF
:1015600000B0070F00A107100091070E0083070FBE
:101570000074070F0065070E0057070E0049070E9D
:10158000003B070D002E070E0020070D0013070D6E
:101590000006070D00F9060C00ED060D00E0060C34
:1015A00000D4060C00C8060C00BC060C00B0060CEB
:1015B00000A4060B0099060C008D060B0082060B9A
:1015C0000077060B006C060B0061060A0057060B3D
:1015D000004C060A0042060A0038060A002E060AD7
:1015E0000024060A001A060A001006090007060A67
:1015F00000FD050900F4050900EB050900E20509F5
:1016000000D9050900D0050900C7050900BE050974
:1016100000B5050800AD050800A50509009C0508F2
:1016200000940508008C050800840508007C050866
:1016300000740508006C050700650508005D0507D6
:1016400000560508004E050700470507004005083D
:101650000038050700310507002A050700230507A4
:10166000001C050600160507000F05070008050603
:101670000002050700FB040600F5040700EE04065F
:1016800000E8040600E2040700DB040600D50406B7
:1016900000CF040600C9040600C3040600BD04060A
:1016A00000B7040600B1040500AC040600A6040659
:1016B00000A00405009B04060095040500900406A4
:1016C000008A04050085040500800406007A0405EC
:1016D0000075040500700405006B04050066040530
:1016E00000610405005C0405005704050052040570
:1016F000004D04050048040500430405003E0404B1
:10170000003A04050035040500300404002C0405EB
:101710000027040400230405001E0404001A040426
:101720000016040500110404000D0404000904055A
:10173000000404040000040400FC030400F8030493
:1017400000F4030400F0030400EC030400E80304C5
:1017500000E4030400E0030400DC030400D80304F5
:1017600000D4030400D0030400CC030400C8030326
:1017700000C503030024F404D9201BC40C5C0E989C
:1017800004C4095F0265077101F405F900FB04B3A5
:101790000048048700C1036900580355000303454E
:1017A00000BE023A008402310053022A00290225B9
:1017B0000004022000E4011C00C8011900AF011759
:1017C00000980114008401130071011000610110E0
:1017D0000051010E0043010D0036010B002B010BDF
:1017E0000020010B00150109000C0109000301088C
:1017F00000FB000800F3000800EB000700E400060F
:1018000000DE000600D8000600D2000600CC00056D
:1018100000C7000500C2000500BD000400B90004B7
:1018200000B5000400B1000400AD000400A90004EC
:1018300000A5000300A20003009F0004009B00031A
:10184000009800030095000200930003009000033D
:10185000008D0002008B0003008800020086000259
:101860000084000300810002007F0002007D00026E
:10187000007B000200790002007700010076000280
:10188000007400020072000100710002006F00028B
:10189000006D0001006C0002006A00010069000296
:1018A000006700010066000100650001006400029D
:1018B000006200010061000100600001005F0002A1
:1018C000005D0001005C0001005B0001005A0001A6
:1018D00000590001005800010057000100560001A6
:1018E00000550001005400010053000000530001A6
:1018F000005200010051000100500001004F0001A2
:10190000004E0000004E0001004D0001004C00019F
:10191000004B0000004B0001004A0001004900019B
:101920000048000000480001004700010046000098
:101930000046000100450000004500010044000190
:10194000004300000043000100420000004200018B
:10195000004100000041000100400001003F000084
:10196000003F0001003E0000003E0001003D00007D
:10197000003D0001003C0000003C0000003C000174
:10198000003B0000003B0001003A0000003A00016B
:101990000039000000390001003800000038000064
:1019A0000038000100370000003700010036000059
:1019B0000036000000360001003500000035000050
:1019C0000035000100340000003400000034000144
:1019D000003300000033000000330001003200003B
:1019E0000032000000320001003100000031000030
:1019F0000031000100300000003000000030000124
:101A0000002F0000002F0000002F0000002F000119
:101A1000002E0000002E0000002E0001002D00000E
:101A2000002D0000002D0000002D0001002C000002
:101A3000002C0000002C0000002C0001002B0000F6
:101A4000002B0000002B0000002B0001002A0000EA
:101A5000002A0000002A0000002A000100290000DE
:101A600000290000002900000029000000290001D1
:101A700000280000002800000028000000280000C6
:101A800000280001002700000027000000270000B8
:101A900000270000002700010026000000260000AB
:101AA000002600000026000000260001002500009E
:101AB0000025000000250000002500000025000092
:101AC0000025000100240000002400000024000084
:101AD0000024000000240001002300000023000077
:101AE000002300000023000000230000002300006A
:101AF000002300010022000000220000002200005C
:101B0000002200000022000000220001002100004D
:101B10000021000000210000002100000021000041
:101B20000021000000210001002000000020000032
:101B30000020000000200000002000000020000025
:101B40000020000000200001001F0000001F000016
:101B5000001F0000001F0000001F0000001F000009
:101B6000001F0001001E0000001E0000001E0000FB
:101B7000001E000000486561746564206265642091
:101B80007377697463686564206F66662E204D41C3
:101B90005854454D502074726967676572656420BA
:101BA0002121004572723A204D415854454D502034
:101BB000424544003A20457874727564657220731A
:101BC00077697463686564206F66662E204D494EA0
:101BD00054454D50207472696767657265642021B1
:101BE000004572723A204D494E54454D50003A20FE
:101BF000457874727564657220737769746368657B
:101C000064206F66662E204D415854454D50207417
:101C10007269676765726564202121004572723AB6
:101C2000204D415854454D50004B642000236465BD
:101C300066696E65202044454641554C545F004B13
:101C400069200023646566696E652020444546412D
:101C5000554C545F004B70200023646566696E65C7
:101C6000202044454641554C545F00504944204192
:101C700075746F74756E652066696E6973686564E6
:101C8000212050757420746865206C617374204B3A
:101C9000702C204B6920616E64204B6420636F6E52
:101CA0007374616E74732066726F6D2062656C6F01
:101CB0007720696E746F20436F6E66696775726115
:101CC00074696F6E2E6800504944204175746F74BA
:101CD000756E65206661696C6564212074696D6547
:101CE0006F75740020403A006F6B20543A006F6BA0
:101CF00020423A00504944204175746F74756E65F6
:101D0000206661696C6564212054656D706572613F
:101D10007475726520746F6F206869676800204B66
:101D2000643A2000204B693A2000204B703A200092
:101D300020436C6173736963205049442000205430
:101D4000753A2000204B753A2000206D61783A20CA
:101D500000206D696E3A200020643A2000206269FC
:101D600061733A200010005E01C001FA00F001F535
:101D7000003002F0007002EB00A002E600C002E1B9
:101D8000001003DC005003D700E003D2007004CD44
:101D900000E004C800E005BE006006B9004007AAE4
:101DA00000F008A000700B9600F00D8C00E010828F
:101DB00000E0137800F0176E00D0196900701B6402
:101DC00000401E5F0010205A00F025500080294678
:101DD00000D0303C00A03237001035320020392DC1
:101DE0000020392800703A2300A03B1E00A03C19B7
:101DF00000203D1600003F0300F03F00004732384E
:101E0000004D343238002D2D3A2D2D002D2D2D0072
:101E1000534400012000012000012000466C6F7730
:101E2000203100466C6F77203100466C6F77203090
:101E300000466C6F77203000466C6F7700466C6F01
:101E4000770046616E2073706565640046616E20A0
:101E500073706565640042656400426564004E6F9E
:101E60007A7A6C652032004E6F7A7A6C6520320087
:101E70004E6F7A7A6C65004E6F7A7A6C650053709B
:101E8000656564005370656564004D61696E004767
:101E90003238005A0058595A004732380058005911
:101EA000005A0045787472756465720045787472E2
:101EB00075646572004D6F7665205A004D6F7665CA
:101EC0002059004D6F76652058004D6F7665206172
:101ED000786973004D6F766520302E316D6D004D41
:101EE0006F766520316D6D004D6F76652031306DF8
:101EF0006D00507265706172650050726568656151
:101F00007420504C412042656400507265686561E0
:101F10007420504C4120416C6C00507265686561C2
:101F20007420504C41203200507265686561742005
:101F3000504C4120310050726570617265005072E2
:101F400065686561742041425320426564005072A7
:101F500065686561742041425320416C6C00507289
:101F60006568656174204142532032005072656893
:101F70006561742041425320310050726570617276
:101F800065004D38300053776974636820706F774F
:101F90006572206F6E004D38310053776974636845
:101FA00020706F776572206F666600436F6F6C6498
:101FB0006F776E005072656865617420414253000E
:101FC0005072656865617420504C41004D38340092
:101FD00044697361626C65207374657070657273B7
:101FE000004D6F76652061786973004C6576656C8D
:101FF000206265640053657420686F6D65206F66AC
:10200000667365747300473238004175746F2068D9
:102010006F6D65004D61696E0042656400426564E4
:10202000004E6F7A7A6C65004E6F7A7A6C65004666
:10203000616E2073706565640046616E2073706523
:1020400065640054656D70657261747572650042F7
:10205000656400426564004E6F7A7A6C65004E6F6D
:102060007A7A6C650046616E20737065656400461F
:10207000616E2073706565640054656D7065726192
:1020800074757265005072656865617420414253D1
:1020900020636F6E66005072656865617420504CF5
:1020A0004120636F6E66005049442D4300504944FF
:1020B0002D43005049442D44005049442D440050C4
:1020C00049442D49005049442D49005049442D5060
:1020D000005049442D5000200220466163740020C6
:1020E000022046616374002002204D6178002002C6
:1020F000204D6178002002204D696E002002204DA5
:10210000696E004175746F74656D70004F6666008E
:102110004F6E200046616E207370656564004661F5
:102120006E207370656564004265640042656400FA
:102130004E6F7A7A6C652032004E6F7A7A6C652029
:1021400032004E6F7A7A6C65004E6F7A7A6C650059
:10215000436F6E74726F6C004573746570732F6D8E
:102160006D004573746570732F6D6D005A737465DF
:1021700070732F6D6D005A73746570732F6D6D00E1
:102180005973746570732F6D6D0059737465707336
:102190002F6D6D005873746570732F6D6D005873DB
:1021A000746570732F6D6D00412D74726176656C6E
:1021B00000412D74726176656C00412D72657472F8
:1021C00061637400412D7265747261637400416DC6
:1021D0006178206500416D6178206500416D61780E
:1021E000207A00416D6178207A00416D6178207914
:1021F00000416D6178207900416D6178207800415F
:102200006D61782078005654726176206D696E0099
:102210005654726176206D696E00566D696E005677
:102220006D696E00566D6178206500566D6178208D
:102230006500566D6178207A00566D6178207A00CD
:10224000566D6178207900566D6178207900566D61
:102250006178207800566D617820780056652D6A87
:1022600065726B0056652D6A65726B00567A2D6A31
:1022700065726B00567A2D6A65726B005678792DFF
:102280006A65726B005678792D6A65726B004163DE
:1022900063656C00416363656C00436F6E74726FBD
:1022A0006C0046696C2E204469612E20320046691C
:1022B0006C2E204469612E20320046696C2E204429
:1022C00069612E20310046696C2E204469612E2000
:1022D00031004520696E206D6D33004F6666004FFA
:1022E0006E2000436F6E74726F6C00526573746F72
:1022F0007265206661696C736166650046696C6130
:102300006D656E74004D6F74696F6E0054656D700D
:1023100065726174757265004D61696E004D32348D
:10232000004D323320257300052E2E0004526566C1
:1023300072657368004D61696E004D323100496EFF
:1023400069742E2053442063617264004E6F2053E1
:10235000442063617264004D3231004368616E67EE
:10236000652053442063617264005072696E74206A
:1023700066726F6D2053440053746F7020707269E1
:102380006E7400526573756D65207072696E7400AD
:102390005061757365207072696E7400436F6E745E
:1023A000726F6C00507265706172650054756E6575
:1023B00000496E666F2073637265656E0000000AE7
:1023C0000B02090C0D0E08070304010000000000B9
:1023D00000000000000000000000000000000000FD
:1023E00000000000000000000012111000000000BA
:1023F00000000000000000000000000000000000DD
:102400000000000102102020080810204010204089
:1024100080020102010804020101020408102040A8
:1024200080804020100804020180040201804020C6
:1024300010080402010804020101020408102040EF
:1024400080010204081020408005050505070508E5
:10245000080808020202020A0A0808040404040127
:102460000101010101010103030303030303030449
:102470000707070C0C0C0C0C0C0C0C0202020206D9
:10248000060606060606060B0B0B0B0B0B0B0B00CA
:102490000020002300260029002C002F003200001D
:1024A00001000003010601090100002200250028A7
:1024B000002B002E0031003400020100000501084D
:1024C000010B0100002100240027002A002D00300C
:1024D00000330001010000040107010A01024E411E
:1024E0004E494E495459494E46CDCCCC3D0AD7238E
:1024F0003C17B7D13877CC2B329595E6241FB14FD6
:102500000A000020410000C84200401C4620BCBE1A
:102510004CCA1B0E5AAEC59D7400C156F056FB9FA7
:10252000D9C9C55611241FBECFEFD1E2DEBFCDBF42
:1025300000E00CBF15E0A0E0B2E0E0EBFAEB01E058
:102540000BBF02C007900D92A635B107D9F724E161
:10255000A6E5B5E001C01D92AC35B207E1F715E282
:10256000C2E2D5E200E006C022970109FE010BBFDE
:102570000E94FED6CA31D10780E00807A9F70E9461
:10258000F8CD0C9446DD0C940000FC0114821782F7
:10259000138212828AEB94E09183808308952AEB60
:1025A00034E0FC01318320832781222319F0049633
:1025B0000C94C2740895CF92DF92EF92FF920F9322
:1025C0001F93CF93DF93EC018F960E94C512CE012B
:1025D000805B9F4F0E94C5127E012FE6E20EF11C28
:1025E00087016E013BE5C31A3EEFD30AC8010E9482
:1025F000C512015E1F4F0C151D05C1F7FE01E955FF
:10260000FE4F89E1818314823596178ACE01865365
:102610009E4F0E94C512FE01E558FD4F10821182A7
:1026200012821382389610821182128213821A82C9
:102630001B8218821982F80111821082FE01E75173
:10264000FE4F108286E391E0F7019C011192215028
:102650003040E1F7FE01E957FD4F81E080831EA67F
:102660001DA60E9481CBC158DD4F68577C4E8F4F0D
:102670009F4F688379838A839B83DF91CF911F91DA
:102680000F91FF90EF90DF90CF900895FC0120E034
:102690003EE2DB014C91403241F0283011F43083AE
:1026A0003196DB014C91408331962F5F6F5F7F4FF6
:1026B0002B3079F7108208952F923F924F925F92BC
:1026C0006F927F928F929F92AF92BF92CF92DF9242
:1026D000EF92FF920F931F93CF93DF93CDB7DEB7A7
:1026E000C858D1090FB6F894DEBF0FBECDBF8C011C
:1026F0006B017A014901CA57DF4F1882C658D04092
:1027000084E0E80EF11C1801E2E12E0E311C3801C4
:10271000F8E76F1AFDEF7F0A580186E7A81A8DEFD8
:10272000B80A80E4482E512C4C0E5D1EE4E04E0E9B
:10273000511CA101BE016F5F7F4FC7010E9427732B
:1027400018160CF033C12C85322F3871303139F422
:10275000F301808191810197029708F08BC08981F4
:10276000882309F423C18E3221F3F80182898E3245
:1027700001F323FDDECF81E0303109F080E0F80184
:102780008483811106C08985873499F68A858E37BE
:1027900081F298012B5F3F4FBE016F5F7F4FC901F0
:1027A000C957DF4F2883C758D040C857DF4F3883F9
:1027B000C858D0400E944613F30180819181C957C7
:1027C000DF4F2881C758D040C857DF4F3881C858DD
:1027D000D0400097F1F4F6018191882339F090916F
:1027E000C00095FFFCCF8093C600F6CFF901819120
:1027F000882339F09091C00095FFFCCF8093C600EC
:10280000F6CF8091C00085FFFCCF8AE08093C600A0
:1028100090CF8130910539F4F50180819181019645
:102820009183808386CF029709F083CF811491042E
:1028300039F0B901C4010E941DDA892B79F4B6C0C0
:10284000CA57DF4FF881C658D0402F2F30E0F5012E
:10285000808191812817390709F4A8C0CA57DF4F32
:10286000F881C658D040FF5FCA57DF4FF883C6587B
:10287000D0405FCFBE016F5F7F4FCE0187589F4F23
:102880000E944613A0961FAEA097F6018081811189
:1028900007C060E373E0CE01815A9F4F0E9430DA97
:1028A000B601CE01815A9F4F0E9430DABE016758AF
:1028B0007F4FCE01815A9F4F0E9430DA60E373E070
:1028C000CE01815A9F4F0E9430DACE01805C9F4F2B
:1028D0000E94C51221E0AE0147585F4FB701C20107
:1028E0000E94CB76811139C0F30180819181892BBF
:1028F000A1F5E9ECF0E18491882341F09091C000CA
:1029000095FFFCCF8093C6003196F5CFE2E3F3E06C
:102910008191882339F09091C00095FFFCCF80937E
:10292000C600F6CF8091C00085FFFCCF8AE080937F
:10293000C600FE01E758FF4F8191882339F090913E
:10294000C00095FFFCCF8093C600F6CF8091C000F9
:1029500085FFFCCF8AE08093C6008BE1FE01EC5B33
:10296000FF4FDE01959601900D928A95E1F724962E
:102970008EAD9FAD24979CA38BA38AEB94E09AA382
:1029800089A320E030E0AE014F5D5F4FBE01615A88
:102990007F4FC8010E945C13CE0181960E94CF1226
:1029A000CE01805C9F4F0E94CF12C3CEC857DF4F2D
:1029B0000FB6F894DEBF0FBECDBFDF91CF911F9150
:1029C0000F91FF90EF90DF90CF90BF90AF909F90CE
:1029D0008F907F906F905F904F903F902F900895D1
:1029E000EF92FF920F931F93CF93DF93CDB7DEB794
:1029F0006F970FB6F894DEBF0FBECDBF8C01FC0100
:102A0000E857FD4F118210827C0183E3E80EF11C30
:102A100040E050E0BA01C7010E94DC738BE1F7018E
:102A2000DE01159601900D928A95E1F7F80181A9D2
:102A300092A99C838B838AEB94E09A83898320E01C
:102A400030E0AE014F5F5F4F61ED74E0C8010E945E
:102A50005C13CE0101960E94CF126F960FB6F894C8
:102A6000DEBF0FBECDBFDF91CF911F910F91FF90C1
:102A7000EF9008952BE1FB013496DC011496019050
:102A80000D922A95E1F7FB0122813381FC0133830A
:102A900022830895EF92FF920F931F93CF93DF93BA
:102AA000EC011B828EA9882321F0CE01C3960E94DF
:102AB000C2747E0189E5E81A8EEFF80A45E360E00A
:102AC000C7010E94FC6E81111FC0E9ECF0E1849106
:102AD000882341F09091C00095FFFCCF8093C60001
:102AE0003196F5CFE5EFF4E08491882341F09091A1
:102AF000C00095FFFCCF8093C6003196F5CF809142
:102B0000C00085FFFCCF76C08E0104551E4F41E00A
:102B1000B701C8010E94F37C811126C040E0B701D3
:102B2000C8010E94F37C81111FC0EFECF0E1849199
:102B3000882341F09091C00095FFFCCF8093C600A0
:102B40003196F5CFE2EEF4E08491882341F0909144
:102B5000C00095FFFCCF8093C6003196F5CF8091E1
:102B6000C00085FFFCCF46C0B801CE01C3960E94CD
:102B7000C77181111FC0EFECF0E18491882341F00F
:102B80009091C00095FFFCCF8093C6003196F5CFA1
:102B9000E2EDF4E08491882341F09091C00095FF2C
:102BA000FCCF8093C6003196F5CF8091C00085FFA1
:102BB000FCCF20C081E08B83E9ECF0E18491882395
:102BC00041F09091C00095FFFCCF8093C6003196F4
:102BD000F5CFE7ECF4E08491882341F09091C000B8
:102BE00095FFFCCF8093C6003196F5CF8091C00051
:102BF00085FFFCCF8AE08093C6008E01015D1F4FE8
:102C0000B801CE01805B9F4F0E943A15C25BDF4F37
:102C100019830883DF91CF911F910F91FF90EF905F
:102C20000895FC01128213820895FC01238122235E
:102C300011F021E022830895FC01228121111282EA
:102C40000895AF92BF92CF92DF92EF92FF920F93CF
:102C50001F93CF93DF931F92CDB7DEB78C018FE226
:102C6000FB0181935F01D12C41E07801FBE5EF1A74
:102C7000FEEFFF0A9FE1C92E2D2D30E0F701808184
:102C8000918128173907D8F4C29EC001C39E900DC8
:102C900011248D589F4FB501800F911F49830E94C9
:102CA0006C71C50149815C010196F50120812223E7
:102CB00021F04D3810F44F5FF6CFD394DDCF47FDB0
:102CC00011C0B501C80182539E4F0F90DF91CF9183
:102CD0001F910F91FF90EF90DF90CF90BF90AF903A
:102CE0000C946C71F50110820F90DF91CF911F91C0
:102CF0000F91FF90EF90DF90CF90BF90AF9008952D
:102D00003F924F925F926F927F928F929F92AF927B
:102D1000BF92CF92DF92EF92FF920F931F93CF93C8
:102D2000DF93CDB7DEB7AC970FB6F894DEBF0FBE1A
:102D3000CDBF7C015B01FC018381882309F4EFC0D6
:102D4000C70182539E4F0E94C274F7011282CE01C6
:102D500001966C010E94C51227019EE4490E511C88
:102D6000C7018F96F20191838083F50180818F32B4
:102D700009F077C06FE270E0C5010E943BDA8C0178
:102D80000F5F1F4F2AE0322E0115110509F46FC0A5
:102D90006FE270E0C8010E943BDA4C01009709F431
:102DA00067C00817190708F063C03C01601A710A70
:102DB000A301B801CE0180960E9464DAE0E2F0E05F
:102DC000EC0FFD1FE60DF71D1082FE01B0968191FC
:102DD000882339F09091C00095FFFCCF8093C60006
:102DE000F6CF8091C00085FFFCCF3092C600F20183
:102DF000608171816115710519F06C5F7F4F02C0B0
:102E000060E070E021E0AE01405E5F4FCE010596CC
:102E10000E94CB7681111EC0E2EBF3E084918823FF
:102E200041F09091C00095FFFCCF8093C600319691
:102E3000F5CFFE01B0968191882339F09091C000C2
:102E400095FFFCCF8093C600F6CF8091C00085FF30
:102E5000FCCF5FC0F201D182C08284010F5F1F4F9F
:102E600093CFC701805B9F4FF201918380838501DF
:102E7000F20180819181009711F0049602C080E0F8
:102E800090E0B8010E94AB77811103C0ECE8F3E059
:102E90002EC0E4EAF3E08491882341F09091C000D1
:102EA00095FFFCCF8093C6003196F5CFF801819154
:102EB000882339F09091C00095FFFCCF8093C60025
:102EC000F6CF8091C00085FFFCCF8AE08093C600DA
:102ED000F701ED57FD4F10821182128213821CC040
:102EE0009091C00095FFFCCF8093C60031968491ED
:102EF0008111F6CFF8018191882339F09091C000BB
:102F000095FFFCCF8093C600F6CF8091C00085FF6F
:102F1000FCCF8EE28093C600C6010E94CF12AC9611
:102F20000FB6F894DEBF0FBECDBFDF91CF911F91DA
:102F30000F91FF90EF90DF90CF90BF90AF909F9058
:102F40008F907F906F905F904F903F900895CF93B8
:102F5000DF93EC018B81811103C0EAE6F3E039C015
:102F6000EAE7F3E08491882341F09091C00095FF57
:102F7000FCCF8093C6003196F5CFFE01ED57FD4F93
:102F800040815181628173812AE030E086E595E0DD
:102F90000E94A7268091C00085FFFCCF8FE280931E
:102FA000C600C558DD4F488159816A817B812AE07E
:102FB00030E086E595E00E94A7268091C00085FF5D
:102FC000FCCF0EC09091C00095FFFCCF8093C6004F
:102FD000319684918111F6CF8091C00085FFFCCF9E
:102FE0008AE08093C600DF91CF910895AF92BF929F
:102FF000CF92DF92EF92FF920F931F93CF93DF93C5
:103000005C01EB01FB0101900020E9F78F01015009
:103010001109061B170B6C01F2E3CF1AFEEFDF0A52
:10302000F60110826EE470E0CE010E943BDA7C0172
:10303000009729F4F8013197EC0FFD1F0DC060E2F5
:1030400070E00E943BDAEC0121966AE270E0C70171
:103050000E943BDAFC0131978DE081838AE0828314
:103060001382BE01C50186539E4F0E949179F601DD
:103070008081882309F1EFECF0E18491882341F00D
:103080009091C00095FFFCCF8093C6003196F5CF9C
:10309000E4E5F3E08491882341F09091C00095FF2E
:1030A000FCCF8093C6003196F5CF8091C00085FF9C
:1030B000FCCF8AE08093C600DF91CF911F910F91E2
:1030C000FF90EF90DF90CF90BF90AF9008952F9238
:1030D0003F924F925F926F927F928F929F92AF92A8
:1030E000BF92CF92DF92EF92FF920F931F93CF93F5
:1030F000DF93CDB7DEB7CC55D1090FB6F894DEBF5C
:103100000FBECDBF8C0189579D4F5C01611112C06C
:10311000FC018081882309F4B1C03897C080D18038
:10312000E280F3800E9481CBC616D706E806F90636
:1031300008F4A4C0F5011082F8018381811108C050
:10314000C8010E944A15F8018381882309F496C0BA
:10315000F80186A58F9385A58F938BE493E09F93C9
:103160008F937E01FFE3EF0EF11CFF92EF920E941E
:1031700073DA0F900F900F900F900F900F90B12C6B
:10318000F70101900020E9F73197EE19FF09BE160B
:1031900084F46701CB0CD11CB7FCDA94F601808172
:1031A000992787FD90950E94BED9F6018083B3943C
:1031B000E7CF4801F3E38F0E911C40E050E0BA01E5
:1031C000C4010E94DC73512CCE0101966C0134E4E1
:1031D000632E33E0732E5E0191E2A90EB11C40E034
:1031E00050E0B601C4010E9427731816DCF5412C8B
:1031F000F60101900020E9F73197EC19FD094E1610
:1032000074F41601240C311C47FC3A94F1018081BE
:1032100090E00E94BED9F10180834394E9CF8A8572
:103220008E37E9F245E050E0B701C6010E9456DA58
:10323000892BA9F6FF92EF927F926F92BF92AF9285
:103240000E9473DAC5010E94F02780E493E00E9497
:10325000BA280F900F900F900F900F900F90552459
:103260005394BDCF511004C08FEF9FEFF80104C0FD
:10327000F80185A596A5019696A785A7C45ADF4FA4
:103280000FB6F894DEBF0FBECDBFDF91CF911F9177
:103290000F91FF90EF90DF90CF90BF90AF909F90F5
:1032A0008F907F906F905F904F903F902F900895F8
:1032B0000F931F93CF93DF93EC018C0102531E4FAA
:1032C000C8010E947674C8010E94C27419821882D3
:1032D000DF91CF911F910F910895CF92DF92EF92DE
:1032E000FF920F931F93CF93DF93CDB7DEB76F9706
:1032F0000FB6F894DEBF0FBECDBF8C016A017C0112
:103300008EE4E80EF11CC801805B9F4FF7019183AA
:103310008083E65CFD4F22E030E0318320833296EB
:103320007183608340E050E0BA0104960E94DC7330
:10333000F701808191812BE1FC013496DE01159625
:1033400001900D922A95E1F7FC01828193819C8383
:103350008B838AEB94E09A8389839601AE014F5F59
:103360005F4F61ED74E0C8010E945C13CE010196CD
:103370000E94CF126F960FB6F894DEBF0FBECDBF7E
:10338000DF91CF911F910F91FF90EF90DF90CF9041
:1033900008952F923F924F925F926F927F928F92F9
:1033A0009F92AF92BF92CF92DF92EF92FF920F93D4
:1033B0001F93CF93DF93CDB7DEB7AC970FB6F894DA
:1033C000DEBF0FBECDBF8C016B01342EFC018381AB
:1033D000882309F4BCC2EF52FE4F8081882309F490
:1033E000F9C0222319F0E9ECF0E1CCC07801F7E153
:1033F000EF1AFEEFFF0AF7018081811103C0E9ECAB
:10340000F0E133C0EFECF0E18491882341F090913A
:10341000C00095FFFCCF8093C6003196F5CFE4E85D
:10342000F4E08491882341F09091C00095FFFCCF97
:103430008093C6003196F5CF4AE050E061E070E03D
:1034400086E595E00E9478268091C00085FFFCCF3C
:103450008AE08093C6000E94794579C29091C000AD
:1034600095FFFCCF8093C600319684918111F6CFF1
:10347000EBE6F4E08491882341F09091C00095FF41
:10348000FCCF8093C6003196F5CFF6018191882359
:1034900039F09091C00095FFFCCF8093C600F6CF25
:1034A000E0E6F4E08491882341F09091C00095FF1C
:1034B000FCCF8093C6003196F5CFF70180815DE89F
:1034C000B52EB801B89E600D711D112462517E4F5A
:1034D000C8010E942116F7018081F801B89EE00D15
:1034E000F11D1124E251FE4F8191882339F0909112
:1034F000C00095FFFCCF8093C600F6CFEAE5F4E06C
:103500008491882341F09091C00095FFFCCF809377
:10351000C6003196F5CF5801FDE7AF1AFDEFBF0A9F
:10352000F50140815181628173812AE030E086E5B6
:1035300095E00E94A7268091C00085FFFCCF8AE01D
:103540008093C600F7012081F80184E0289FE00DF8
:10355000F11D1124AF0146515E4FF501808191812B
:10356000A281B381FA0180839183A283B3832F5F09
:10357000F701208329C09091C00095FFFCCF809374
:10358000C600319684918111F6CFE9E4F4E084918C
:10359000882341F09091C00095FFFCCF8093C60036
:1035A0003196F5CFF6018191882339F09091C000D2
:1035B00095FFFCCF8093C600F6CF8091C00085FFB9
:1035C000FCCF8AE08093C600C80182539E4F0E94C0
:1035D000C27430C0F801E751FE4F1082E9ECF0E10F
:1035E0008491882341F09091C00095FFFCCF809397
:1035F000C6003196F5CFE8E3F4E08491882341F0EA
:103600009091C00095FFFCCF8093C6003196F5CF16
:10361000F6018191882339F09091C00095FFFCCF8D
:103620008093C600F6CF8091C00085FFFCCF8AE072
:103630008093C600F8011282CE0101965C010E94BF
:10364000C51228019EE4490E511CC8018F96F20153
:1036500091838083F60180818F3209F074C07601F6
:10366000FFEFEF1AFF0A4AE0242EE114F10409F4F7
:1036700070C06FE270E0C7010E943BDA4C01009716
:1036800009F468C0E816F90608F064C03C016E1839
:103690007F08A301B701CE0180960E9464DAE0E2C0
:1036A000F0E0EC0FFD1FE60DF71D1082FE01B09655
:1036B0008191882339F09091C00095FFFCCF8093D1
:1036C000C600F6CF8091C00085FFFCCF2092C600D7
:1036D000F201608171816115710519F06C5F7F4F96
:1036E00002C060E070E021E0AE01405E5F4FCE01BD
:1036F00005960E94CB7681111EC0E4E2F4E084912D
:10370000882341F09091C00095FFFCCF8093C600C4
:103710003196F5CFFE01B0968191882339F09091D2
:10372000C00095FFFCCF8093C600F6CF8091C0000B
:1037300085FFFCCFDFC0F201B182A0827401FFEFF0
:10374000EF1AFF0A92CFC801805B9F4FF20191836D
:1037500080837601C80182539E4F4C01F201608143
:103760007181332009F49BC06115710519F06C5FFC
:103770007F4F02C060E070E021E0A701C4010E9419
:10378000CB76811103C0ECEEF3E076C098012558AA
:103790003D4FF40181899289A389B489F90180831D
:1037A0009183A283B383E6E1F4E08491882341F01E
:1037B0009091C00095FFFCCF8093C6003196F5CF65
:1037C000F7018191882339F09091C00095FFFCCFDB
:1037D0008093C600F6CFEEE0F4E08491882341F0B8
:1037E0009091C00095FFFCCF8093C6003196F5CF35
:1037F000F90140815181628173812AE030E086E5E0
:1038000095E00E94A7268091C00085FFFCCF8AE04A
:103810008093C600F801ED57FD4F1082118212828D
:103820001382E0E0F4E08491882341F09091C0009D
:1038300095FFFCCF8093C6003196F5CF8091C000F4
:1038400085FFFCCF8AE08093C600A70160E070E0AE
:10385000C8010E946D19F8018289882319F0C801F6
:10386000429601C0C70160E06DC09091C00095FF15
:10387000FCCF8093C600319684918111F6CFF70179
:103880008191882339F09091C00095FFFCCF8093FF
:10389000C600F6CF8091C00085FFFCCF2BC061151C
:1038A000710519F06C5F7F4F02C060E070E026E5A3
:1038B000A701C4010E94CB76811120C0E8EDF3E09E
:1038C0008491882341F09091C00095FFFCCF8093B4
:1038D000C6003196F5CFF7018191882339F0909198
:1038E000C00095FFFCCF8093C600F6CF8091C0004A
:1038F00085FFFCCF8EE28093C60026C081E0F801F0
:103900008083E6ECF3E08491882341F09091C0003D
:1039100095FFFCCF8093C6003196F5CFF6018191DB
:10392000882339F09091C00095FFFCCF8093C600AA
:10393000F6CF8091C00085FFFCCF8AE08093C6005F
:1039400060E0C7010E94D597C5010E94CF12AC96D6
:103950000FB6F894DEBF0FBECDBFDF91CF911F91A0
:103960000F91FF90EF90DF90CF90BF90AF909F901E
:103970008F907F906F905F904F903F902F90089521
:1039800021E0FC01218340E00C94C919CF92DF9221
:10399000EF92FF920F931F93CF93DF93CDB7DEB7D4
:1039A0006F970FB6F894DEBF0FBECDBF8C016C01D0
:1039B0002EE4C20ED11C805B9F4FF6019183808361
:1039C000E65CFD4F21E030E0318320837801F6E7AB
:1039D000EF1AFDEFFF0AF7011182108240E050E07C
:1039E000BA0104960E94DC73F601808191812BE17B
:1039F000FC013496DE01159601900D922A95E1F7AF
:103A0000FC01828193819C838B838AEB94E09A836F
:103A1000898320E030E0AE014F5F5F4F61ED74E0DD
:103A2000C8010E945C13CE0101960E94CF12F701DB
:103A3000808191816F960FB6F894DEBF0FBECDBF27
:103A4000DF91CF911F910F91FF90EF90DF90CF907A
:103A50000895AF92BF92CF92DF92EF92FF920F93B1
:103A60001F93CF93DF93CDB7DEB76F970FB6F89460
:103A7000DEBF0FBECDBF8C017B01CE0101960E943F
:103A8000C512F801E95AFF4F80816801811104C015
:103A90002FE2C20ED11C03C080E5C80ED11C21E06C
:103AA000A701B6016C5F7F4FCE0105960E94CB76D1
:103AB00081112DC0E9ECF0E18491882341F09091CF
:103AC000C00095FFFCCF8093C6003196F5CFEAE2A7
:103AD000F3E08491882341F09091C00095FFFCCFE2
:103AE0008093C6003196F5CFF7018191882339F094
:103AF0009091C00095FFFCCF8093C600F6CF8091D7
:103B0000C00085FFFCCF8AE08093C60036C0F80174
:103B1000EB55FE4F808191818A30910530F59C01F3
:103B20002F5F3F4F318320832FE1289F7001299F12
:103B3000F00C11242FE6E20EF11CE00EF11E5C01E8
:103B4000B701C7014F960E943A1581E0A81AB10843
:103B50002FE1E21AF1088FEFA816B80689F7B6012F
:103B6000C80181599F4F0E943A15BE016F5F7F4F78
:103B7000C801805B9F4F0E943A15CE0101960E94BA
:103B8000CF126F960FB6F894DEBF0FBECDBFDF9198
:103B9000CF911F910F91FF90EF90DF90CF90BF904A
:103BA000AF900895EF92FF920F931F93CF93DF93FF
:103BB000EC01CB55DE4F2881398121153105F9F013
:103BC00021503109398328838C0101591F4FB801D5
:103BD000805B9F4F0E943A15C80100E010E07C0115
:103BE0002FE1E20EF11C288139810217130738F406
:103BF0000F5F1F4FB7010E943A15C701F0CFDF9149
:103C0000CF911F910F91FF90EF900895EF92FF9247
:103C10000F931F93CF93DF93EC010E940E868E01CA
:103C200007511E4FF80180819E0122533E4F7901BA
:103C30008823A9F1C9010E94C274F80180818150D2
:103C40008083BE01FDE88F9F600D711D11246251BC
:103C50007E4F21E041E0CE010E94C919F801808128
:103C6000FE0124E0829FE00DF11D1124E651FE4F7C
:103C70004081518162817381FE01ED57FD4F408388
:103C8000518362837383C7010E94DC73CE01DF918D
:103C9000CF911F910F91FF90EF900C941516C901D1
:103CA0000E94C2741A828EE193E00E94BA28809129
:103CB000A80F8823F9F01092A80FC0911A06D0E03F
:103CC000CC0FDD1FCF50DD4E68817981882777FDCD
:103CD0008095982F0E946CD320915102309152020E
:103CE00040915302509154020E94CDD4181614F4FE
:103CF00019821882DF91CF911F910F91FF90EF9061
:103D00000895AF92BF92CF92DF92EF92FF920F93FE
:103D10001F93CF93DF93CDB7DEB7E0970FB6F8943C
:103D2000DEBF0FBECDBF80E1EAEBF2E0DE0191968F
:103D300001900D928A95E1F780E1EAECF2E0DE0174
:103D4000519601900D928A95E1F780E1EAEDF2E05B
:103D5000DE01119601900D928A95E1F76E0181E2E4
:103D6000C80ED11C99EEE92E9FE0F92E8E010F5E50
:103D70001F4F69EF7FE0AE014F5F5F4F29EDA22E2D
:103D80002FE0B22E20E030E0F60181919191A191D7
:103D9000B1916F01F70181939193A193B1937F0149
:103DA000F80181919191A191B1918F01FB018193D2
:103DB0009193A193B193BF01FA0181919191A19146
:103DC000B191AF01F50181939193A193B1935F01FB
:103DD0002F5F3F4F24303105B9F60E949A6D80E085
:103DE00090E8ABE3B5E48093D10F9093D20FA0930A
:103DF000D30FB093D40F8093CD0F9093CE0FA09399
:103E0000CF0FB093D00F8093C90F9093CA0FA09398
:103E1000CB0FB093CC0F1092D50F1092D60F1092FB
:103E2000D70F1092D80F80E29EE4A0E0B0E080931C
:103E3000091090930A10A0930B10B0930C101092DD
:103E4000B90F1092BA0F1092BB0F1092BC0F80E006
:103E500090E0A0EAB1E48093C50F9093C60FA093C1
:103E6000C70FB093C80F8DEC9CECACECBEE3809315
:103E7000C10F9093C20FA093C30FB093C40F80E003
:103E800090E0A0EAB0E48093BD0F9093BE0FA093A2
:103E9000BF0FB093C00F10922F06109230061092F1
:103EA00031061092320610922B0610922C061092B8
:103EB0002D0610922E0610922706109228061092B8
:103EC000290610922A061092850A84EB90E09093BE
:103ED0005D1380935C1386E490E090935B13809372
:103EE0005A138FEF90E0909359138093581320EF5B
:103EF00030E0309357132093561324E630E030938C
:103F000055132093541390935313809352138AE9BB
:103F100099E9A1EBB1E48093750290937602A093A6
:103F20007702B093780261E77DE38AE89FE30E941D
:103F30004E93609371027093720280937302909318
:103F4000740260E070E084EE92E40E945C936093FF
:103F50006D0270936E0280936F029093700280E006
:103F600090E0A0E8BFE38093690290936A02A09377
:103F70006B02B0936C020E947F881092330680E03F
:103F800090E0A0E4B0E48093290290932A02A093E9
:103F90002B02B0932C0280932D0290932E02A093BB
:103FA0002F02B09330020E940051E9ECF0E18491BD
:103FB000882341F09091C00095FFFCCF8093C6000C
:103FC0003196F5CFE6E9F7E08491882341F09091AE
:103FD000C00095FFFCCF8093C6003196F5CF80914D
:103FE000C00085FFFCCF8AE08093C600E0960FB644
:103FF000F894DEBF0FBECDBFDF91CF911F910F911F
:10400000FF90EF90DF90CF90BF90AF9008956F92A8
:104010007F928F929F92AF92BF92CF92DF92EF9258
:10402000FF920F931F93CF93DF93782E882389F10C
:104030004091E90F5091EA0F6091EB0F7091EC0FF6
:104040008EE797E00E94CC274091ED0F5091EE0F44
:104050006091EF0F7091F00F8BE797E00E94CC27F3
:104060004091F10F5091F20F6091F30F7091F40FA6
:1040700088E797E00E94CC274091F50F5091F60F0A
:104080006091F70F7091F80F85E797E00E94CC27B9
:104090002FC0E9ECF0E18491882341F09091C000B9
:1040A00095FFFCCF8093C6003196F5CFE6E8F7E0A8
:1040B0008491882341F09091C00095FFFCCF8093BC
:1040C000C6003196F5CF8091C00085FFFCCF8AE015
:1040D0008093C600E9ECF0E18491882309F4A8CF2D
:1040E0009091C00095FFFCCF8093C6003196F4CF2D
:1040F0008091C00085FFFCCF8AE08093C6007720C6
:1041000089F14091F90F5091FA0F6091FB0F709176
:10411000FC0F82E597E00E94CC274091FD0F509163
:10412000FE0F6091FF0F709100108FE497E00E94E6
:10413000CC274091011050910210609103107091B2
:1041400004108CE497E00E94CC2740910510509118
:104150000610609107107091081089E497E00E94A2
:10416000CC272FC0E9ECF0E18491882341F09091B5
:10417000C00095FFFCCF8093C6003196F5CFEBE5EC
:10418000F7E08491882341F09091C00095FFFCCF27
:104190008093C6003196F5CF8091C00085FFFCCF9B
:1041A0008AE08093C600E9ECF0E18491882309F469
:1041B000A8CF9091C00095FFFCCF8093C6003196A8
:1041C000F4CF8091C00085FFFCCF8AE08093C600C9
:1041D000772089F14091D90F5091DA0F6091DB0F70
:1041E0007091DC0F82E297E00E94DE274091DD0FA4
:1041F0005091DE0F6091DF0F7091E00F8FE197E03B
:104200000E94DE274091E10F5091E20F6091E30F91
:104210007091E40F8CE197E00E94DE274091E50F5A
:104220005091E60F6091E70F7091E80F89E197E0F8
:104230000E94DE272FC0E9ECF0E18491882341F051
:104240009091C00095FFFCCF8093C6003196F5CFCA
:10425000EBE2F7E08491882341F09091C00095FF54
:10426000FCCF8093C6003196F5CF8091C00085FFCA
:10427000FCCF8AE08093C600E9ECF0E184918823CA
:1042800009F4A8CF9091C00095FFFCCF8093C600A1
:104290003196F4CF8091C00085FFFCCF8AE08093F7
:1042A000C600772029F14091D10F5091D20F609133
:1042B000D30F7091D40F8EED96E00E94CC274091E1
:1042C000CD0F5091CE0F6091CF0F7091D00F8BED2D
:1042D00096E00E94CC274091C90F5091CA0F60917F
:1042E000CB0F7091CC0F88ED96E00E94CC272FC0A9
:1042F000E9ECF0E18491882341F09091C00095FFB2
:10430000FCCF8093C6003196F5CFE7EEF6E08491BE
:10431000882341F09091C00095FFFCCF8093C600A8
:104320003196F5CF8091C00085FFFCCF8AE0809365
:10433000C600E9ECF0E18491882309F4B4CF9091B0
:10434000C00095FFFCCF8093C6003196F4CF8091DA
:10435000C00085FFFCCF8AE08093C600772009F477
:1043600049C04091D50F5091D60F6091D70F7091F1
:10437000D80F8CE196E00E94CC274091B90F509164
:10438000BA0F6091BB0F7091BC0F89E196E00E945B
:10439000CC274091091050910A1060910B10709138
:1043A0000C1086E196E00E94DE274091C50F5091E7
:1043B000C60F6091C70F7091C80F83E196E00E940D
:1043C000CC274091C10F5091C20F6091C30F7091E3
:1043D000C40F80E196E00E94CC274091BD0F509120
:1043E000BE0F6091BF0F7091C00F8DE096E00E94EC
:1043F000CC272FC0E9ECF0E18491882341F0909123
:10440000C00095FFFCCF8093C6003196F5CFE5E262
:10441000F6E08491882341F09091C00095FFFCCF95
:104420008093C6003196F5CF8091C00085FFFCCF08
:104430008AE08093C600E9ECF0E18491882309F4D6
:1044400090CF9091C00095FFFCCF8093C60031962D
:10445000F4CF8091C00085FFFCCF8AE08093C60036
:10446000772029F14091270650912806609129066E
:1044700070912A0682EF95E00E94CC2740912B068E
:1044800050912C0660912D0670912E068FEE95E0CE
:104490000E94CC2740912F06509130066091310642
:1044A000709132068CEE95E00E94CC272FC0E9EC8B
:1044B000F0E18491882341F09091C00095FFFCCFFA
:1044C0008093C6003196F5CFEBEFF5E08491882319
:1044D00041F09091C00095FFFCCF8093C6003196CB
:1044E000F5CF8091C00085FFFCCF8AE08093C600A5
:1044F000E9ECF0E18491882309F4B4CF9091C000F5
:1045000095FFFCCF8093C6003196F4CF8091C00018
:1045100085FFFCCF8AE08093C6007720D1F04091E0
:10452000850A50E060E070E080ED95E00E94DE27B3
:1045300043E050E060E070E08DEC95E00E94DE2703
:1045400043E050E060E070E08AEC95E00E94DE27F6
:1045500021C0E9EDF5E08491882341F09091C000FD
:1045600095FFFCCF8093C6003196F5CF8091C000B7
:1045700085FFFCCF8AE08093C600E9ECF0E18491EE
:10458000882369F29091C00095FFFCCF8093C6000C
:104590003196F5CF8091C00085FFFCCF8AE08093F3
:1045A000C60035E8832E3AE0932ECAE0D0E04AE018
:1045B000642EA12CB12C0AE010E06E01EE24D7FC91
:1045C000E094FE2C772019F1B801882777FD8095BB
:1045D000982F0E946CD3AB01BC0181EC95E00E9446
:1045E000CC27C701B6010E946CD3AB01BC018EEB96
:1045F00095E00E94CC27F401EA0DFB1D4181528118
:10460000638174818BEB95E00E94CC270DC0E9ECAF
:10461000F0E184918823C1F29091C00095FFFCCF16
:104620008093C6003196F5CF8091C00085FFFCCF06
:104630006092C600005B1F4F84E0A80EB11C0A3FC9
:10464000110509F0BFCFCD58DF4F8CE0880E911CCB
:10465000C33681E0D80709F0ACCF772029F140912B
:104660005C1350915D13662757FD6095762F83E9A3
:1046700095E00E94DE2740915A1350915B13662704
:1046800057FD6095762F80E995E00E94DE274091E6
:10469000581350915913662757FD6095762F8DE872
:1046A00095E00E94DE272FC0E9ECF0E18491882399
:1046B00041F09091C00095FFFCCF8093C6003196E9
:1046C000F5CFEFE9F5E08491882341F09091C000A7
:1046D00095FFFCCF8093C6003196F5CF8091C00046
:1046E00085FFFCCF8AE08093C600E9ECF0E184917D
:1046F000882309F4B4CF9091C00095FFFCCF80933C
:10470000C6003196F4CF8091C00085FFFCCF8AE0CF
:104710008093C600772029F140915613509157138A
:10472000662757FD6095762F81E895E00E94DE2789
:104730004091541350915513662757FD6095762F7D
:104740008EE795E00E94DE2740915213509153135B
:10475000662757FD6095762F8BE795E00E94DE2750
:104760000DC0E9ECF0E184918823B1F29091C00092
:1047700095FFFCCF8093C6003196F5CF8091C000A5
:1047800085FFFCCF8AE08093C600711024C0E9EC5D
:10479000F0E18491882341F09091C00095FFFCCF17
:1047A0008093C6003196F5CFEDE6F5E0849188233D
:1047B00041F09091C00095FFFCCF8093C6003196E8
:1047C000F5CF8091C00085FFFCCF8AE08093C600C2
:1047D000E9ECF0E15CC0C12CD12C7601CAE0B70154
:1047E000A60184E695E00E94DE2740917502509173
:1047F0007602609177027091780281E695E00E94DE
:10480000CC27609171027091720280917302909135
:1048100074020E945593AB01BC018EE595E00E94A5
:10482000CC2760916D0270916E0280916F02909121
:1048300070020E946393AB01BC018BE595E00E947E
:10484000CC274091690250916A0260916B0270918D
:104850006C0288E595E00E94CC278091C00085FF1E
:10486000FCCFC093C6008FEFC81AD80AE80AF80A2E
:1048700082E0C816D104E104F10409F0B0CF49C0C8
:104880009091C00095FFFCCF8093C6003196849133
:104890008111F6CF409175025091760260917702B6
:1048A000709178028FE495E00E94CC2760917102AC
:1048B0007091720280917302909174020E945593DC
:1048C000AB01BC018CE495E00E94CC2760916D02A5
:1048D00070916E0280916F02909170020E946393BA
:1048E000AB01BC0189E495E00E94CC2740916902AC
:1048F00050916A0260916B0270916C0286E495E0BF
:104900000E94CC278091C00085FFFCCF8AE0809375
:10491000C60080913306882309F465C0772069F0CA
:104920004091290250912A0260912B0270912C0231
:104930008AE295E00E94CC272EC0E9ECF0E1849158
:10494000882341F09091C00095FFFCCF8093C60072
:104950003196F5CFE3E3F5E08491882341F090911F
:10496000C00095FFFCCF8093C6003196F5CF8091B3
:10497000C00085FFFCCF8AE08093C600E9ECF0E13F
:104980008491882369F29091C00095FFFCCF8093B9
:10499000C6003196F5CF8091C00085FFFCCF8AE03C
:1049A0008093C600772069F040912D0250912E022D
:1049B00060912F02709130028EE195E00E94CC2729
:1049C0000DC0E9ECF0E18491882371F39091C0006F
:1049D00095FFFCCF8093C6003196F5CF8091C00043
:1049E00085FFFCCF20C0711021C0E9ECF0E184917B
:1049F000882341F09091C00095FFFCCF8093C600C2
:104A00003196F5CFE2E0F5E08491882341F0909172
:104A1000C00095FFFCCF8093C6003196F5CF809102
:104A2000C00085FFFCCF8AE08093C600DF91CF9164
:104A30001F910F91FF90EF90DF90CF90BF90AF90BC
:104A40009F908F907F906F9008951F920F920FB656
:104A50000F9211240BB60F922F933F934F935F93B6
:104A60006F938F939F93EF93FF936091C600209174
:104A7000D7053091D805C90101968F7799274091C4
:104A8000D9055091DA058417950741F0F901E95AE3
:104A9000FA4F60839093D8058093D705FF91EF91EB
:104AA0009F918F916F915F914F913F912F910F90B7
:104AB0000BBE0F900FBE0F901F9018959A01AB017F
:104AC000211581EE38074105510549F182E08093B7
:104AD000C00060E079E08DE390E00E94BFD62150F5
:104AE000310941095109CA01B90122E030E040E031
:104AF00050E00E94BFD63093C5002093C40080913F
:104B0000C10080618093C1008091C1008860809362
:104B1000C1008091C10080688093C1000895109207
:104B2000C00020E130E0E7CF2091D9053091DA05CF
:104B30008091D7059091D8058217930771F0F901FC
:104B4000E95AFA4F80812F5F3F4F2F7733273093F9
:104B5000DA052093D90590E008958FEF9FEF08952F
:104B60008091D9059091DA059093D8058093D70567
:104B700008954F925F926F927F928F929F92AF9221
:104B8000BF92CF92DF92EF92FF920F931F93CF933A
:104B9000DF93CDB7DEB7A0970FB6F894DEBF0FBE98
:104BA000CDBF5C014115510561057105F1F420E0AF
:104BB00030E040E350E060E070E0A0960FB6F8947B
:104BC000DEBF0FBECDBFDF91CF911F910F91FF9040
:104BD000EF90DF90CF90BF90AF909F908F907F909D
:104BE0006F905F904F900C9451268E010F5F1F4F76
:104BF000C12CD12C76014801422E512C612C712CF4
:104C00008FEFC81AD80AE80AF80ACB01BA01A30143
:104C100092010E949DD6CA01F80161938F01A901FA
:104C2000BC01411551056105710551F7F1E0CF1A3D
:104C3000D108E108F108F401EC0DFD1D80818A30F6
:104C400010F440E301C047E3480F552747FD509556
:104C5000652F752F20E030E0C5010E94512681E0CC
:104C6000C81AD108E108F108EFEFCE16DE06EE060D
:104C7000FE0609F7A0960FB6F894DEBF0FBECDBFB3
:104C8000DF91CF911F910F91FF90EF90DF90CF9028
:104C9000BF90AF909F908F907F906F905F904F905C
:104CA00008952115310539F48091C00085FFFCCFAE
:104CB0004093C60008952A30310511F40C948026E3
:104CC0000C94B925CF93DF93EC0120E030E04DE068
:104CD00050E060E070E00E94512620E030E04AE0C1
:104CE00050E060E070E0CE01DF91CF910C9451264E
:104CF0009A01AB01662757FD6095762F0C945126DB
:104D0000CF92DF92EF92FF92CF93DF93EC016A0193
:104D10007B0177FF10C020E030E04DE250E060E022
:104D200070E00E945126F094E094D094C094C11C8D
:104D3000D11CE11CF11C2AE0B701A601CE01DF91D4
:104D4000CF91FF90EF90DF90CF900C94B925211573
:104D5000310539F48091C00085FFFCCF4093C60037
:104D600008950C94B9259A01462F50E060E070E058
:104D70000C94A726CF93DF93EC019A01AB0160E07E
:104D800070E00E94A726CE01DF91CF910C9462269D
:104D90008F929F92AF92BF92CF92DF92EF92FF924B
:104DA0001F93CF93DF93EC016A017B01122F20E068
:104DB00030E0A901C701B6010E94CAD287FF0DC029
:104DC00020E030E04DE250E060E070E0CE010E9473
:104DD0005126F7FAF094F7F8F094B12C60E070E007
:104DE00080E09FE3B11641F020E030E040E251E482
:104DF0000E94D1D2B394F6CF9B01AC01C701B6019A
:104E00000E94F1D16B017C010E943ED34B015C01F9
:104E10000E946AD39B01AC01C701B6010E94F0D188
:104E20006B017C012AE0B501A401CE010E94B925E5
:104E3000112349F020E030E04EE250E060E070E005
:104E4000CE010E945126112321F120E030E040E202
:104E500051E4C701B6010E949FD56B017C010E94FD
:104E600039D34B01AA2497FCA094BA2CB501A40114
:104E7000CE010E948026C501B4010E946CD39B0123
:104E8000AC01C701B6010E94F0D16B017C01115049
:104E9000DACFDF91CF911F91FF90EF90DF90CF900D
:104EA000BF90AF909F908F9008950C94C826FC01FE
:104EB00065917591859194910895CF92DF92EF92CB
:104EC000FF921F93CF93DF936B017C01C1E0D0E091
:104ED00010E51C9FB0011D9F700D1124665F7F4F70
:104EE000882777FD8095982F0E946CD39B01AC0199
:104EF000C701B6010E94CDD4181624F4219761F0A1
:104F0000C2E0D0E0CE010197DF91CF911F91FF90D9
:104F1000EF90DF90CF900895C2E0D0E0DACFCF924B
:104F2000DF92EF92FF921F93CF93DF936B017C018F
:104F3000C1E0D0E013E71C9FB0011D9F700D11244C
:104F4000665F7F4F882777FD8095982F0E946CD3EE
:104F50009B01AC01C701B6010E94CDD4181624F400
:104F6000219761F0C2E0D0E0CE010197DF91CF91AF
:104F70001F91FF90EF90DF90CF900895C2E0D0E0B6
:104F8000DACF0E9481CB6093FE057093FF0580937A
:104F90000006909301060895FC012491222341F01C
:104FA0003091C00035FFFCCF2093C6000196F4CFAE
:104FB00022E030E086E595E00C945527FC01249131
:104FC000222341F03091C00035FFFCCF2093C60072
:104FD0000196F4CF2AE030E086E595E00C94A72610
:104FE000CF93DF93FC0120812B3309F467C020911C
:104FF000BA073091BB07243031050CF05FC0209117
:10500000BC073091BD0740E6429FE001439FD00DB1
:105010001124C65CD94FBC01CE010E944FDAE9ECE5
:10502000F0E18491882341F09091C00095FFFCCF7E
:105030008093C6003196F5CFEDE7F0E184918823A7
:1050400071F09091C00095FFFCCF8093C60031961F
:10505000F5CF9091C00095FFFCCF8093C600899159
:105060008111F7CFEBE7F0E18491882341F0909133
:10507000C00095FFFCCF8093C6003196F5CF80919C
:10508000C00085FFFCCF8AE08093C6008091BC07FA
:105090009091BD07019664E070E00E9489D69093DC
:1050A000BD078093BC078091BA079091BB0701961A
:1050B0009093BB078093BA0781E001C080E0DF9145
:1050C000CF910895DF92EF92FF920F931F93CF93AA
:1050D000DF93CDB7DEB76E970FB6F894DEBF0FBE85
:1050E000CDBF609102067091030661157105A1F0B4
:1050F0004DE150E08E010F5F1F4FC8010E94DED9C5
:105100001E8EF8017F01E01AF10AD190DD2031F006
:105110008AE0D812F7CF02C080E01EC0F801EE0D81
:10512000FF1D1082C8010E94F0278823A1F0DD2016
:1051300071F08FEFE81AF80A809102069091030649
:105140008E0D9F1D909303068093020604C010925B
:1051500003061092020681E06E960FB6F894DEBF49
:105160000FBECDBFDF91CF911F910F91FF90EF90B8
:10517000DF90089590930306809302060C946228B2
:10518000269A2E9808950E94C02840E05BE460E0D3
:1051900070E086E595E00E945E25E5E7F0E1849108
:1051A000882341F09091C00095FFFCCF8093C6000A
:1051B0003196F5CF8091C00085FFFCCF8AE08093C7
:1051C000C600E9ECF0E18491882341F09091C000A1
:1051D00095FFFCCF8093C6003196F5CF84B780FF52
:1051E00014C0EDE6F0E19491992341F02091C000C4
:1051F00025FFFCCF9093C6003196F5CF9091C0006B
:1052000095FFFCCF9AE09093C60081FF14C0EDE5B6
:10521000F0E19491992341F02091C00025FFFCCF4B
:105220009093C6003196F5CF9091C00095FFFCCFCA
:105230009AE09093C60082FF14C0ECE4F0E19491F0
:10524000992341F02091C00025FFFCCF9093C60028
:105250003196F5CF9091C00095FFFCCF9AE09093E6
:10526000C60083FF14C0ECE3F0E19491992341F070
:105270002091C00025FFFCCF9093C6003196F5CF5A
:105280009091C00095FFFCCF9AE09093C60085FFF7
:1052900014C0ECE2F0E18491882341F09091C000C9
:1052A00095FFFCCF8093C6003196F5CF8091C0006A
:1052B00085FFFCCF8AE08093C60014BEE5E2F0E1F2
:1052C0008491882341F09091C00095FFFCCF80939A
:1052D000C6003196F5CFEAE1F0E18491882341F0F0
:1052E0009091C00095FFFCCF8093C6003196F5CF1A
:1052F0008091C00085FFFCCF8AE08093C600E9EC76
:10530000F0E18491882341F09091C00095FFFCCF9B
:105310008093C6003196F5CFEAE0F0E184918823CE
:1053200041F09091C00095FFFCCF8093C60031966C
:10533000F5CFE5EFFFE08491882341F09091C00024
:1053400095FFFCCF8093C6003196F5CFE9EEFFE0E4
:105350008491882341F09091C00095FFFCCF809309
:10536000C6003196F5CFE5EEFFE08491882341F049
:105370009091C00095FFFCCF8093C6003196F5CF89
:105380008091C00085FFFCCF8AE08093C600EAEDE3
:10539000FFE08491882341F09091C00095FFFCCFFD
:1053A0008093C6003196F5CFEEECFFE08491882320
:1053B00041F09091C00095FFFCCF8093C6003196DC
:1053C000F5CF8091C00085FFFCCF8AE08093C600B6
:1053D000E9ECF0E18491882341F09091C00095FFC1
:1053E000FCCF8093C6003196F5CFEFEBFFE08491C0
:1053F000882341F09091C00095FFFCCF8093C600B8
:105400003196F5CF0E9468794AE050E0BC0186E50C
:1054100095E00E947826E8EAFFE08491882341F035
:105420009091C00095FFFCCF8093C6003196F5CFD8
:105430004AE050E060ED74E086E595E00E94782651
:105440008091C00085FFFCCF8AE08093C600109257
:10545000DC051092DD051092DE051092DF050E943A
:10546000811E80E00E9407200E94778B0E94BE5F11
:105470000E94A7850E94B5982FEF83ED90E32150FD
:1054800080409040E1F700C000000895E0910406DC
:10549000F091050621812D3211F02B3221F4228169
:1054A00082E090E002C081E090E02E3219F4E80F33
:1054B000F91F2181205381E02A3008F080E008950F
:1054C0000F931F93CF93DF9300910406109105066D
:1054D00065E470E0C8010E943BDAEC01C801019666
:1054E000209761F0188260E070E00E9411D725E4F7
:1054F0002883DF91CF911F910F91089560E070E0B4
:10550000DF91CF911F910F910C9411D780910406D8
:10551000909105064AE050E060E070E001960C943E
:1055200082D880910406909105064AE050E060E040
:1055300070E001960E9482D8CB010895682F7727EA
:1055400067FD70952091BE073091BF0740E6429FEE
:10555000C001439F900D1124865C994F0E943BDA55
:10556000909305068093040621E0892B09F420E03E
:10557000822F08950F931F93CF93DF9300D000D015
:10558000CDB7DEB726E0EAEEF2E0DE01119601903B
:105590000D922A95E1F7FC01EE0FFF1F21E030E0AC
:1055A0002C0F3D1FE20FF31F608171818C01000FF2
:1055B000111F000F111F16161706D4F4095C1D4F9A
:1055C000882777FD8095982F0E946CD39B01AC01B2
:1055D000F80160817181828193810E94D1D26093B0
:1055E0004702709348028093490290934A0228C070
:1055F000F801E95CFD4F20E030E040E251E46081D9
:105600007181828193810E94D1D26093470270930D
:1056100048028093490290934A02E5E4F3E08191C5
:10562000882339F09091C00095FFFCCF8093C6008D
:10563000F6CF8091C00085FFFCCF8AE08093C60042
:1056400026960FB6F894DEBF0FBECDBFDF91CF9187
:105650001F910F9108958F929F92AF92BF92CF9218
:10566000DF92EF92FF920F931F9320E030E040E72C
:1056700052E46091470270914802809149029091F2
:105680004A020E94D1D24B015C01E090E707F09002
:10569000E8070091E9071091EA072091E3073091AC
:1056A000E4074091E5075091E6076091DF077091AC
:1056B000E0078091E1079091E207EAE1F6E0FF93CD
:1056C000EF93EBEECE2EE7E0DE2E0E941F610F90EF
:1056D0000F901F910F91FF90EF90DF90CF90BF90B0
:1056E000AF909F908F9008954F925F926F927F92AC
:1056F0008F929F92AF92BF92CF92DF92EF92FF92E2
:105700000F931F932B013C0120E030E040E752E46F
:1057100060914702709148028091490290914A023B
:105720000E94D1D24B015C012091E3073091E40744
:105730004091E5075091E6076091DF077091E0071F
:105740008091E1079091E207EAE1F6E0FF93EF93A1
:10575000FBEECF2EF7E0DF2E830172010E941F6166
:105760000F900F901F910F91FF90EF90DF90CF90CF
:10577000BF90AF909F908F907F906F905F904F9071
:1057800008958F929F92AF92BF92CF92DF92EF9245
:10579000FF920F931F9320E030E040E752E46091C6
:1057A0004702709148028091490290914A020E94FA
:1057B000D1D24B015C01E090D707F090D80700915F
:1057C000D9071091DA072091D3073091D40740917F
:1057D000D5075091D6076091CF077091D00780917F
:1057E000D1079091D207EAE1F6E0FF93EF93ABED9A
:1057F000CA2EA7E0DA2E0E941F610F900F901F9112
:105800000F91FF90EF90DF90CF90BF90AF909F905F
:105810008F900895CF92DF92EF92FF920F931F9394
:10582000E090E707F090E8070091E9071091EA0798
:105830002091E3073091E4074091E5075091E60796
:105840006091DF077091E0078091E1079091E20796
:10585000BBEECB2EB7E0DB2E0E946B6C1F910F913D
:10586000FF90EF90DF90CF9008954F925F926F92EC
:105870007F928F929F92AF92BF92CF92DF92EF92E0
:10588000FF920F931F93CF93DF935C01FC01E657C8
:10589000FF4EF490EC01CC0FDD1FCC0FDD1F8E010D
:1058A0000152184FF80110821182128213820E9455
:1058B0000A2CCE0187569F4E0E9457272B013C0190
:1058C0006F2D772767FD7095872F972F0E946CD3D8
:1058D0006B017C019E012153384F490120E030E0EB
:1058E00040EC5FE3C301B2010E949FD5A70196017E
:1058F0000E949FD5F4016083718382839383FE01AC
:10590000E95CFD4F80819181A281B3818093470240
:1059100090934802A0934902B0934A020E94C12B7F
:105920000E940E86F80110821182128213820E9458
:105930000A2C80E00E94D57E9E0123573F4E3901FC
:10594000C9010E9457279058A70196010E949FD530
:10595000F40160837183828393830E94C12B0E9430
:105960000E8681E00E94D57EC5010E94BA2AC3013D
:105970000E9457279B01AC010E94F1D1A70196011B
:105980000E949FD5F40160837183828393830E9478
:10599000C12B0E940E86CE018B559F4E0E94572729
:1059A0009E01295D394F7901F901208131814281C0
:1059B00053810E94F1D1F8016083718382839383C4
:1059C000CE0183549F4E0E9457279E01255E394F7A
:1059D0006901F70120813181428153810E94F1D117
:1059E000F6016083718382839383CE018F549F4E2F
:1059F0000E945727CB5EDD4FF70120813181428124
:105A000053810E94F1D1688379838A839B830E94AA
:105A10000A2CF80180819181A281B381F4018083F5
:105A20009183A283B383109247021092480210928E
:105A3000490210924A020E942F7EF501E453F84F6A
:105A400081E08083DF91CF911F910F91FF90EF90C4
:105A5000DF90CF90BF90AF909F908F907F906F908E
:105A60005F904F90089580E1EFECF7E0AFEDB7E085
:105A700001900D928A95E1F7089580E1EFEDF7E04E
:105A8000AFECB7E001900D928A95E1F708950F937E
:105A90001F93CF93DF930091850A1092850A80911E
:105AA000470290914802A0914902B0914A02809326
:105AB000EF079093F007A093F107B093F20780915E
:105AC000350290913602909335068093340684E631
:105AD00090E090933602809335020E94C12781E0C6
